:02000000562B7D
:08000800F000030E8312031344
:10001000BD000A0EBE00040EBF008A110A12622B38
:10002000C208031D142808007C30FF3E031D15285C
:10003000C20B14280800831203138C1183132E3073
:1000400084003A08840713088000BA0ABB03BB087F
:10005000031D2C280715080083132E3084003A084E
:10006000840700089300080083120313BB08031DD4
:10007000342807150800C7014608470203184A2814
:1000800083132E3084003A08840700308000BA0AB7
:10009000C70A3C28080083132E3084003A088407DE
:1000A0004B088000BA0A080083132E3084004608EB
:1000B00084070008BC000800831203133A08BB0041
:1000C000BB080319080007112E089300BA010800A5
:1000D00083120313BA01080068200330CB004B20C1
:1000E0004508CB004B200130C6003B205C2034206B
:1000F0000230C60054203C08BC00080068200530CF
:10010000CB004B204808CB004B204A08CB004B20AB
:100110004908CB004B205C203420080068200230C6
:10012000CB004B204808CB004B204908CB004B208C
:100130005C20342008000F3083120313C800C9016B
:10014000E030CA007E200E30C5006C20E0303C0557
:10015000003A031DA32808008316981CAC288312BC
:100160005908990008006820C030CB004B205C2063
:10017000342008004208C50043080339C600460D74
:10018000C60CC50C460DC60CC50C460DC60C450C60
:10019000C40007304205C7003130C8004408C90018
:1001A0008E203230C8004708CB00CB0DCB0DCB0DD5
:1001B000CB0D4B0DE039C900E030CA007E200800AD
:1001C000D801831342188317410884005808840714
:1001D0000008003A0319F8288313421883174108CE
:1001E000840058088407D80A0008D900AC20E12808
:1001F000080083160313871187120711071683124D
:1002000094121130940094168C1183168C1583125D
:100210000B1708004008831699002430980090308E
:1002200083129800080068204108CB004B205C2016
:10023000342008001930C2001020B3202D10AD105A
:100240002A30C8000730C9008E202930C8009030FD
:10025000C9008E202830C8000230C9008E2020300E
:10026000C800FF30C9008E202130C800FF30C9000F
:100270008E20C801FF30C9008E200130C800FF3039
:10028000C9008E200430C800FF30C9008E20053020
:10029000C800FF30C9008E202430C800C9018E205C
:1002A0002530C800C9018E200830C800C9018E2041
:1002B0000930C800C9018E201030C8000130C900C3
:1002C0008E201130C800C9018E201430C8000230C1
:1002D000C9008E201530C800C9018E201830C80012
:1002E0000330C9008E201930C800C9018E202B3080
:1002F000C800C9018E204008C2004108C300BA20CE
:100300009B206030C800C900CA007E200800C301DD
:10031000023043020318A629C308031D9329410E86
:100320000F39C20096290F304105C2000A3042023F
:1003300003189E2930304207C200A12937304207F6
:10034000C2004208D900AC20C30A88290800290845
:10035000363EC8004108C9008E20A90A0800831251
:100360000313A9010800831203132D18BA29EE30D4
:10037000BC0008002C08280603192D108313203018
:100380008400280884070008C200A80A4208BC00AC
:100390000800831203132D1CD0290130BC00080073
:1003A0002C30C5006C203C18D729BC0108002D1446
:1003B000A8016130C5006C20AA013C08AB00623086
:1003C000C5006C20E0303C05C300C4014308AA040A
:1003D0004408AB046530C5006C200F303C05AC0010
:1003E000C101C2012C0841020318032A4108663EDC
:1003F000C5006C20831320308400410884073C082A
:100400008000C10AF2292C30C800C9010130CA009D
:100410007E200130BC000800831203138501860191
:1004200004308700FF3083168500C0308600D0304E
:100430008700453081000C308312C0000A210A3049
:10044000D900AC200D30D900AC202030CA00CF003C
:100450002E30D400D500D6004130CC004230C3004D
:100460004830CB005330CD005930CE006430D2003C
:100470006530D3006730C9006930C7006E30C800EE
:10048000D0006F30C400C500D1007430C600D70161
:100490000030C2004330C100E0200A30D900AC2057
:1004A0000D30D900AC20F9200A30D0002030C60031
:1004B000CB004930C5005030C4005330C300643015
:1004C000CC006530CF006930C700C9006E30C8006D
:1004D000CE006F30CD007430CA00D1010030C200B0
:1004E0004330C100E0200A30D900AC200D30D900E3
:1004F000AC2007158B172030CD004930C300613088
:10050000D0006230D1006430D4006530C600CE0027
:10051000D3006C30D2006E30C400CF007030CA00FF
:100520007230C700C8007330CC007430C500CB00F7
:100530007530C900D5010030C2004330C100E02051
:100540000A30D900AC200D30D900AC20FF30C000FB
:100550000130C1001A212030C600CB004130C40058
:100560004330C3004E30C5006430CC006530CF004E
:100570006930C700C9006E30C800CE006F30CD00B2
:100580007430CA00D0010030C2004330C100E02006
:100590000A30D900AC200D30D900AC2008008312FD
:1005A00003138C1ECF2A1A08BC0008006820A03054
:1005B000CB004B20CB014B205C2034202030C900E5
:1005C000CB003D30CA005330C3006130C5007330EA
:1005D000C8007430C400C6007530C700CC010030BC
:1005E000C2004330C100E0200130C60054203C0866
:1005F000C10087210800303083120313C5006C202E
:10060000BC1D042B0000FB2A3530C8002908C90096
:100610000F30CA007E208130C100132108000C2257
:100620008C1E4C2BCF223C08C0004008743A031D9E
:10063000482B0A30D5000D30D4002030C500C90049
:100640002E30D100D200D3004130C7004330C60065
:100650004E30C8005430C3005830C4006130CE0062
:100660006530CB00D0006730CF006D30CA007330EA
:10067000CC00CD00D6010030C2004330C100E020E4
:10068000AF21BA30C100A721BE30C100A721FB2293
:100690004008733A0319D622C921BC080319552B07
:1006A000B3213C08C10087214C2B102B831203136C
:1006B000A801A901AA01AB01AC012D10AD108A114E
:1006C0000A120F2B831203138C191B203F0E840078
:0E06D0003E0E8A003D0E8300F00E700E0900F3
:02400E00723FFF
:00000001FF