:020000040000FA
:0600000039EF03F01200CD
:06000800DBEF01F0120025
:06001800C3EF01F012002D
:06002A0001008A0600003F
:080030000001000020000000A7
:080038000000000000000000C0
:1000400000000000000000000000000000000000B0
:1000500000000000000000000000000000000000A0
:100060000000000000000000000000000000000090
:10007000000000001200000000000000000000006E
:100080000000000000000000000000000000000070
:10009000120000000000000000000000000000004E
:1000A0000000000000000000000000000000000050
:1000B0000000000000000000000000000000000040
:1000C000000000000000000000000000000012001E
:1000D000D9CFE6FFE1CFD9FFACA2FED7FE0EDBCF32
:1000E000E6FF22EC03F0E552E552E7CFD9FF12001C
:1000F000D9CFE6FFE1CFD9FFE652DF6ADFCF00F0CC
:10010000016A026A00AE02D001680268D950FC0F91
:10011000E96EFF0EDA20EA6EEE500024F36EEE5028
:100120000120F46EEE500220F86EF4CFF7FFF3CF0B
:10013000F6FF0800F55022E0DF50DF2A006E016A6A
:10014000026A00AE02D001680268D950FC0FE96E65
:10015000FF0EDA20EA6EEE500024F36EEE5001201E
:10016000F46EEE500220F86EF4CFF7FFF3CFF6FFF7
:100170000800F550E66EACDFE552C0D7E552E55217
:10018000E7CFD9FF1200D9CFE6FFE1CFD9FFE65282
:10019000DF6A9298929480988084890EC26E050ED0
:1001A000C16E010EE66E0BEC03F0E552C284C2B4E0
:1001B000FED7C450DF6EC26A92889284DF5000D0AE
:1001C000E552E552E7CFD9FF1200D9CFE6FFE1CFE4
:1001D000D9FFE652DF6A9298929480988084990EB3
:1001E000C26E040EC16E010EE66E0BEC03F0E5521A
:1001F000C284C2B4FED7C450DF6EC26A92889284B1
:10020000DF5000D0E552E552E7CFD9FF1200D9CF39
:10021000E6FFE1CFD9FF030EE126DF6A010EDB6ABC
:10022000020EDB6A938095909592839283909682DA
:100230009690949C948E9280959483849388938ACC
:1002400095969488949A9496949483869698958893
:10025000958A958C958EF18ED190C290070EB46ED2
:100260009694928A849493968196939481948490A0
:100270000001DC6BDD6B780E0001DDAF02D0D890A1
:1002800003D0DC5D000EDD590EE2600E0001DC25BE
:10029000E96E000E0001DD21EA6EEF6A0001DC2B41
:1002A000000EDD23E8D7400EE66EE66A7C0EE66EB1
:1002B0007BEC02F0E552E552E5529F9ACF0EE66ED6
:1002C000AFEC02F0E5529F80F288D08EF28EF28C75
:1002D000320EE66E0BEC03F0E5520101006B0001FB
:1002E000010EDE6F839283900101006B9690949CC7
:1002F000AB8E9D8A48DFDF6E68DFE76E010EE7CFC9
:10030000DBFF2A0EDF5C01E1DF2A010EDB502A0849
:1003100002E1010EDB2A83940A0EE66E0BEC03F079
:10032000E552010EE66ED4DEE552DFCFE6FFD0DE09
:10033000E552010EDBCFE6FFCBDEE5522A0EE66E7C
:10034000C7DEE5520A0EE66E0BEC03F0E55283843D
:10035000020EDB6A9D9A9680948CAB9E8384010189
:100360000D6B01010D5108E10000000000000300C9
:10037000000000000000F5D7B9D7D9CFE1FFE55262
:10038000E7CFD9FF1200DACFE4FFE2CFDAFFE9CFFF
:10039000E4FFEACFE4FFE6529EAA05D0D0EC02F0DB
:1003A0000001606F9E9AE552E5CFEAFFE5CFE9FFD5
:1003B000E5CFDAFF1100DACFE4FFE2CFDAFFE9CFD1
:1003C000E4FFEACFE4FFE652F2A204D0F292010188
:1003D000010E136F9EA038D09E90E6687F0EE66EE9
:1003E000EFEC02F0E552E55201010F2B0101182B51
:1003F000000E19231A231B233C0E01010F5D04E19B
:1004000001010F6B0101102B3C0E0101105D04E195
:100410000101106B0101112B180E0101115D04E1A6
:100420000101116B0101122B0101162B000E172384
:100430000101050E161901E1175106E10101010E36
:100440000D6F0101166B176BE552E5CFEAFFE5CFA3
:08045000E9FFE5CFDAFF11001E
:080458002A0EF66E000EF76E8D
:10046000000EF86E00010900F550E96F0900F55023
:10047000EA6F03E1E96701D03DD00900F550E46F70
:100480000900F550E56F0900F550E66F0900090015
:10049000F550E96E0900F550EA6E090009000900FF
:1004A000F550E76F0900F550E86F09000900F6CF35
:1004B000EBF0F7CFECF0F8CFEDF0E4C0F6FFE5C0DD
:1004C000F7FFE6C0F8FF0001E75302E1E85307E059
:1004D0000900F550EE6EE707F8E2E807F9D7EBC040
:1004E000F6FFECC0F7FFEDC0F8FF0001E907000ED2
:0604F000EA5BBFD7120019
:0A04F600D9CFE6FFDACFE6FFE1CF31
:10050000D9FFE2CFDAFFAC6AAB6AFD0EDBB0AC8894
:10051000DBA202D0AC8CAB8CDBB4AC8EDBA602D001
:10052000AB8801D0AB8ADBA802D0AC8401D0AC94FC
:100530009E98DBAC02D09D8A01D09D9A9E9ADBAE3C
:1005400002D09D8801D09D98FB0EDB50AF6EAC8A27
:0E055000AB8EE552E5CFDAFFE7CFD9FF120000
:02055E00D9CFF3
:10056000E6FFDACFE6FFE1CFD9FFE2CFDAFFFD0EFB
:10057000DB507E0BCD6EFD0EDBAC02D0CD8E01D0FC
:10058000CD9ECF6ACE6A9E90DBAE02D09D8001D018
:100590009D90CD80E552E5CFDAFFE7CFD9FF12007D
:1005A000D9CFE6FFDACFE6FFE1CFD9FFE2CFDAFF1E
:1005B000E652F00E0001EE17ABAC03D0EE91ABB0FB
:1005C000EE81ABB4EE85ABB2EE87AE50DF6EDF509E
:0E05D000E552E552E5CFDAFFE7CFD9FF120082
:0205DE00D9CF73
:1005E000E6FFDACFE6FFE1CFD9FFE2CFDAFFE6524E
:1005F000E652FC0EDBCFDEFFDBCFDDFF010EDB5072
:10060000CF6EDF50CE6EE552E552E552E5CFDAFF10
:06061000E7CFD9FF120044
:0A061600FF0EE350066EEF0E01D058
:10062000F30EE76EE72E12EF03F00C0E056EE76A8D
:10063000E72E18EF03F0052E17EF03F0062E10EF4C
:0406400003F01200B1
:0C064400D9CFE6FFDACFE6FFE1CFD9FF07
:10065000E2CFDAFFACAC04D0AC900001EEB3AC80DA
:10066000FD0EDB50AD6EE552E5CFDAFFE7CFD9FFE7
:02067000120076
:0E06720015EE00F025EE00F0F86A049C2CEC6A
:0A06800002F007EC01F0FDD71200B4
:06068A000000000000006A
:100690000000000001000000000000000000000059
:0A06A0000000000000000000000050
:020000040030CA
:0100010022DC
:010003000EEE
:010006008178
:00000001FF
