:020000040000FA
:0600000006EF03F0120000
:06000800CCEF01F0120034
:06001800ACEF01F0120044
:06002A0001003A0600008F
:080030006A000000030000005B
:08003800D9CFE6FFE1CFD9FFAB
:10004000ACA2FED7FE0EDBCFE6FFEFEC02F0E552EE
:10005000E552E7CFD9FF1200D9CFE6FFE1CFD9FFB4
:10006000E652DF6ADFCF00F0016A026A00AE02D01A
:1000700001680268D950FC0FE96EFF0EDA20EA6EC3
:10008000EE500024F36EEE500120F46EEE5002208C
:10009000F86EF4CFF7FFF3CFF6FF0800F55022E03B
:1000A000DF50DF2A006E016A026A00AE02D00168EA
:1000B0000268D950FC0FE96EFF0EDA20EA6EEE50AE
:1000C0000024F36EEE500120F46EEE500220F86E24
:1000D000F4CFF7FFF3CFF6FF0800F550E66EACDF84
:1000E000E552C0D7E552E552E7CFD9FF1200D9CF8C
:1000F000E6FFE1CFD9FFE652DF6A929892948098AA
:100100008084890EC26E050EC16E190EE66E12EC69
:1001100003F0E552C284C2B4FED7C450DF6EC26A97
:100120008094DF5000D0E552E552E7CFD9FF1200AE
:10013000D9CFE6FFE1CFD9FFE652DF6A92989294D9
:1001400080988084990EC26E040EC16E190EE66E00
:1001500012EC03F0E552C284C2B4FED7C450DF6E85
:10016000C26A8094DF5000D0E552E552E7CFD9FF54
:100170001200D9CFE6FFE1CFD9FFE652DF6A9298AD
:10018000929480988084A10EC26E030EC16E9694E4
:100190008484190EE66E12EC03F0E552C284C2B4F8
:1001A000FED7C450DF6EC26A80948494DF5000D0C2
:1001B000E552E552E7CFD9FF12002B0E926EF10EF9
:1001C000936E830E946E956A020E966E8392839060
:1001D00084908288828A838484948386F18ED190ED
:1001E000C290070EB46E400EE66EE66A3C0EE66EF6
:1001F00048EC02F0E552E552E5529F9AE6687CEC45
:1002000002F0E5529F80F298D08EF28EF29C00D0E0
:100210001200D9CFE6FFE1CFD9FF060EE126DF6A53
:10022000010EDB6A020EDB6A030EDB6A040EDB6A78
:10023000050EDB6AC2DF010EF36E040EF3CFDBFFA7
:1002400056DFDF6E75DFE76E010EE7CFDBFF050ED1
:10025000DB040AE1010EDB50EC0806E38ADFE76EFF
:10026000020EE7CFDBFF02D0050EDB6AFC0EF36E59
:10027000010EDBCFF4FFF350F45C02E3040EDB6A03
:100280002A0EDF5C01E1DF2A010EDB502A0802E1C1
:10029000010EDB2A020EDB502A0802E1020EDB2AE5
:1002A000040EDB503AE0AB8E8394050EE66ED8EC7C
:1002B00002F0E552010EE66ED8EC02F0E552010EB6
:1002C000E66ED8EC02F0E552050EDB28E66EB4DEF1
:1002D000E552DFCFE6FFB0DEE552050EDB5006E16A
:1002E000010EDBCFE6FFA8DEE55205D0020EDBCF24
:1002F000E6FFA2DEE5522A0EE66E9EDEE5520A0E0B
:10030000E66ED8EC02F0E552010EE66ED8EC02F093
:10031000E5528384030EDB6AAB9E050EDB5006E1DB
:10032000010EF36E050EF3CFDBFF02D0050EDB6A84
:1003300000016A6B00016A5108E100000000000042
:100340000300000000000000F5D775D7D9CFE1FF0A
:10035000E552E7CFD9FF1200DACFE4FFE2CFDAFFB0
:10036000E9CFE4FFEACFE4FFE652D9CFE6FFE1CFE1
:10037000D9FFE6529EAA04D09DEC02F0DF6E9E9A51
:10038000E552E552E7CFD9FFE552E5CFEAFFE5CFE9
:10039000E9FFE5CFDAFF1100DACFE4FFE2CFDAFFC1
:1003A000E9CFE4FFEACFE4FFE652F2B2F2929EA078
:1003B00018D09E90E66A100EE66EBCEC02F0E55294
:1003C000E55200016B2B000E6C230001140E6B191B
:1003D00001E16C5106E10001010E6A6F00016B6BD7
:1003E0006C6BE552E5CFEAFFE5CFE9FFE5CFDAFF39
:0203F0001100FA
:0E03F2002A0EF66E000EF76E000EF86E000179
:100400000900F550656F0900F550666F03E16567F7
:1004100001D03DD00900F550606F0900F550616FC3
:100420000900F550626F09000900F550E96E0900F6
:10043000F550EA6E090009000900F550636F0900E4
:10044000F550646F09000900F6CF67F0F7CF68F048
:10045000F8CF69F060C0F6FF61C0F7FF62C0F8FF37
:100460000001635302E1645307E00900F550EE6EAA
:100470006307F8E26407F9D767C0F6FF68C0F7FFC3
:1004800069C0F8FF00016507000E665BBFD7120068
:10049000D9CFE6FFDACFE6FFE1CFD9FFE2CFDAFF2F
:1004A000AC6AAB6AFD0EDBB0AC88DBA202D0AC8CD0
:1004B000AB8CDBB4AC8EDBA602D0AB8801D0AB8AB0
:1004C000DBA802D0AC8401D0AC949E98DBAC02D007
:1004D0009D8A01D09D9A9E9ADBAE02D09D8801D064
:1004E0009D98FB0EDB50AF6EAC8AAB8EE552E5CF2C
:0804F000DAFFE7CFD9FF12008B
:0804F800D9CFE6FFDACFE6FFE1
:10050000E1CFD9FFE2CFDAFFFD0EDB507E0BCD6EDF
:10051000FD0EDBAC02D0CD8E01D0CD9ECF6ACE6A6F
:100520009E90DBAE02D09D8001D09D90CD80E552A3
:0A053000E5CFDAFFE7CFD9FF120094
:06053A00D9CFE6FFDACF85
:10054000E6FFE1CFD9FFE2CFDAFFE652F00E00017D
:100550006D17ABAC03D06D91ABB06D81ABB46D8555
:10056000ABB26D87AE50DF6EDF50E552E552E5CF9E
:08057000DAFFE7CFD9FF12000A
:08057800D9CFE6FFDACFE6FF60
:10058000E1CFD9FFE2CFDAFFE652E652FC0EDBCF35
:10059000DEFFDBCFDDFF010EDB50CF6EDF50CE6E16
:1005A000E552E552E552E5CFDAFFE7CFD9FF120079
:1005B000FF0EE350066EEF0E01D0F30EE76EE72E4E
:1005C000DFEF02F00C0E056EE76AE72EE5EF02F0B2
:0E05D000052EE4EF02F0062EDDEF02F0120021
:0205DE00D9CF73
:1005E000E6FFDACFE6FFE1CFD9FFE2CFDAFFACAC2E
:1005F00004D0AC9000016DB3AC80FD0EDB50AD6E4D
:0C060000E552E5CFDAFFE7CFD9FF12008A
:04060C0015EE00F0F7
:1006100025EE00F0F86A049CF9EC01F009EC01F019
:04062000FDD71200F0
:0C062400FF0EE350E84E1200000000D072
:0A06300000D000D0E82EFAD7120027
:03063A00001300AA
:020000040030CA
:0100010022DC
:010003000EEE
:010006008178
:00000001FF
