:020000040000FA
:040000005CEF09F0B8
:0800080081EF09F02A52D8A48F
:100010000BEF00F012007C0EFF0FD8A40CEF00F0E5
:100020002A2E0BEF00F012002750156E1200272A1F
:100030003C0E276001D002D0262A276A3C0E26609B
:1000400001D002D0252A266A180E256001D01200A0
:10005000256A12005C50CF6E5B50CE6E1200ACA2CF
:10006000FED75A50AD6E1200426A106A436A43B618
:100070001200D89010363D36423642503E6401D0D0
:1000800003D03E50425E1080432AF1D7106A426A84
:10009000436A43B61200D89042363F3610361050AD
:1000A000406401D003D04050105E4280432AF1D713
:1000B000596A5850EA6E57505924E96EEF52D8B435
:1000C00012005850EA6E57505924E96E592AEF50E1
:1000D0005A6E2FEC00F0EDD7630E3B6414D03B500A
:1000E0003D6E640E3E6E34EC00F010503F6E0A0E12
:1000F000406E46EC00F01050416E300E41245A6EB6
:100100002FEC00F007D0020E3C6404D0300E5A6E83
:100110002FEC00F0090E3B6414D03B503D6E0A0EEC
:100120003E6E34EC00F010503F6E0A0E406E46EC0E
:1001300000F01050416E300E41245A6E2FEC00F04A
:1001400007D0010E3C6404D0300E5A6E2FEC00F044
:100150003B503F6E0A0E406E46EC00F010503D6E74
:10016000300E3D245A6E2FEC00F01200ABA210D0DE
:100170004F0E316E450E326E520E336E346E356A4E
:10018000000E586E310E576E58EC00F0AB98AB88ED
:100190009EAAFED7AE50106E1200A69CA6B2FED745
:1001A0003A50A96E3B50A86EA69EA684F29E550EAC
:1001B000A76EAA0EA76EA682A694F28E12004550D4
:1001C000A96EA69EA69CA680A850106E1200386A42
:1001D000080E3860120037AE05D0310E5A6E2FEC83
:1001E00000F004D0300E5A6E2FEC00F0D890373665
:1001F000382AEED725503B6E020E3C6E6CEC00F0B8
:100200003A0E3B6E3C6A000E586E3B0E576E58EC31
:1002100000F026503B6E020E3C6E6CEC00F02E0E91
:100220003B6E3C6A000E586E3B0E576E58EC00F069
:1002300027503B6E020E3C6E6CEC00F01200948E68
:10024000948CAC9CAC8AAC98AC84AB8EAB9CAB88E9
:10025000AB962A50AF6E12003A0ECA6ECC6ACB68CB
:100260009E929D82F28C12002550106E1200265034
:10027000106E1200276A266A256A12002A50256E1F
:100280002B50266E2C50276E1200300ECD6ECF6A8A
:10029000CE6A9E909D80F28C1200D59AD596070E5C
:1002A000D512D66AF29412002F6A306AB6EC00F0CA
:1002B0001050306E0D0E306201D010D030505A6E9A
:1002C0002FEC00F00A0E2F02F3502F6E300E305C30
:1002D0002F26B6EC00F01050306EECD70A0E5A6E96
:1002E0002FEC00F00D0E5A6E2FEC00F02F50106E18
:1002F00012003650386E396AD89038363936D89070
:1003000038363936040E3824376E3A6E32503B6E2A
:10031000CDEC00F0372A37503A6E33503B6ECDECBF
:1003200000F0372A37503A6E34503B6ECDEC00F077
:10033000372A37503A6E35503B6ECDEC00F0120044
:100340005B0E5A6E2FEC00F0FAEC00F0200E3C6EC3
:10035000446E3A0E436E410E3D6E5D0E3B6E630E73
:100360003E6E690E406E6E0E426E6F0E416E740EE2
:100370003F6E456A000E586E3B0E576E58EC00F00B
:1003800012003550366E3B6E030E3C6E6CEC00F086
:10039000200E376E386E396E3A6A000E586E370E80
:1003A000576E58EC00F031503B6E020E3C6E6CEC18
:1003B00000F03A0E376E386A000E586E370E576EE0
:1003C00058EC00F032503B6E020E3C6E6CEC00F0CC
:1003D000200E376E386E396A000E586E370E576E23
:1003E00058EC00F03350376EE7EC00F0200E376E1B
:1003F000386E396A000E586E370E576E58EC00F0A2
:10040000340410E14F0E376E4E0E386E0A0E396E00
:100410000D0E3A6E3B6A000E586E370E576E58EC52
:1004200000F012004F0E376E460E386E396E0A0E0F
:100430003A6E0D0E3B6E3C6A000E586E370E576ECC
:1004400058EC00F012003C50436E446AD89043369A
:100450004436D890433644364350040F426E456EBE
:10046000DFEC00F010503D6EAA0E3D620BD0415003
:10047000146E4050136E3F50126E3E50116E3D5040
:10048000106E1200422A4250456EDFEC00F0105010
:100490003E6E422A4250456EDFEC00F010503F6E37
:1004A000422A4250456EDFEC00F01050406E422A66
:1004B0003C50416E146E4050136E3F50126E3E50D1
:1004C000116E3D50106E1200215204E12AA002D09C
:1004D000106A1200140E216208D0289C226A236A36
:1004E000246A2AB002D0106A1200140E216410D0BF
:1004F0001C0E21600DD02AA009D0000EEA6E030E5A
:10050000E96E150E215CE926EF5022262AB0287CE0
:100510001C0E216207D028AC04D02AB002D0106A89
:100520001200289C1C0E216410D0230E21600DD0D7
:100530002AA009D0000EEA6E030EE96E1D0E215CA2
:10054000E926EF5023262AB0287C230E216206D00C
:1005500028AC04D02AB002D0106A1200290E2164FF
:100560000ED02D0E21600BD02AA009D0000EEA6E0D
:10057000030EE96E2A0E215CE926EF502426212A7B
:10058000010E106E1200630E2A6413D02A503D6EC5
:10059000640E3E6E34EC00F010503F6E0A0E406E5A
:1005A00046EC00F010502B6E300E2B245A6E2FECC0
:1005B00000F0090E2A6413D02A503D6E0A0E3E6EDA
:1005C00034EC00F010503F6E0A0E406E46EC00F026
:1005D00010502B6E300E2B245A6E2FEC00F02A5048
:1005E0003F6E0A0E406E46EC00F010502B6E300E3F
:1005F0002B245A6E2FEC00F0120034EC01F0105056
:10060000366E37EC01F01050376E040E346E356ADA
:100610002F6A306A3368456ADFEC00F01050386E9C
:10062000396A3850396050D03A9239503C6E23ECD8
:1006300002F014502E6E13502D6E12502C6E11506D
:100640002B6E10502A6E800E3B6E24503C6E04E0E0
:10065000D8903B323C06FBD72C503B1402E03A804A
:1006600001D03A903AA00ED036502A600BD02A50D2
:100670002F6001D03A822F502A6204D02B50306074
:1006800001D03A823AA012D036502A620FD03750A9
:100690002B6401D00BD02A502F6001D03A822F500A
:1006A0002A6204D02B50306001D03A823AA20AD09C
:1006B0002E50336E2D50326E2C50316E2B50306ECA
:1006C0002A502F6E392AADD70F5033620F621200B5
:1006D000FF0E336202D033AE1200A0EC01F032B054
:1006E000818432A0819432520CE06F0E3B6E6E0E0C
:1006F0003C6E3D6A000E586E3B0E576E58EC00F093
:100700000CD06F0E3B6E660E3C6E3D6E3E6A000E68
:10071000586E3B0E576E58EC00F0200E3B6E3D6E4F
:10072000426E400E3C6E650E416E6C0E406E720E57
:100730003E6E750E3F6E436A000E586E3B0E576E4E
:1007400058EC00F033503B6E030E3C6E6CEC00F046
:100750000A0E5A6E2FEC00F00D0E5A6E2FEC00F0C0
:1007600033500F6E32500E6E31500D6E30500C6E95
:100770002F500B6E12000A0E476E496E0D0E486E1A
:100780004A6E200E376E3D6E3A0E466E530E316E37
:10079000630E356E650E406E446E680E366E690EE1
:1007A000336E3A6E436E6E0E3B6E6F0E396E3E6E5A
:1007B000700E386E720E416E740E346E3C6E760E94
:1007C0003F6E426E770E326E456E4B6A000E586E6B
:1007D000310E576E58EC00F00A0E506E0D0E516E31
:1007E000200E366E3B6E3C6E3D6E466E476E410E81
:1007F000486E460E436E490E316E4D0E3F6E530EDF
:10080000446E456E540E376E406E426E570E416E0A
:10081000630E496E640E336E650E346E3A6E690E69
:10082000386E4B6E4D6E6D0E396E6E0E326E740EEE
:100830004A6E4E6E760E4C6E780E356E3E6E790EAA
:100840004F6E526A000E586E310E576E58EC00F023
:100850002D0E316E326E336E346E356E366E376EEF
:10086000386E396E3A6E3B6E3C6E3D6E3E6E3F6E3C
:10087000406E416E426E436E446E456E466E476EEC
:10088000486E496E4A6E4B6E4C6E4D6E4E6E4F6E9C
:100890000A0E506E0D0E516E526A000E586E310ED9
:1008A000576E58EC00F0456ADFEC00F010502F6EE8
:1008B000306A2F5030601CD030503C6E23EC02F078
:1008C00014502E6E13502D6E12502C6E11502B6E34
:1008D00010502A6E2E50356E2D50346E2C50336EC3
:1008E0002B50326E2A50316EC1EC01F0302AE1D724
:1008F0000A0E5A6E2FEC00F00D0E5A6E2FEC00F01F
:100900001200200E2F6E366E3C6E3E6E486E2D0E1F
:100910002D6E3E0E2E6E3F0E476E400E3D6E520EF9
:10092000306E610E426E630E416E650E316E356E35
:10093000690E396E446E6C0E3F6E6D0E326E6E0E29
:100940003A6E466E6F0E336E386E406E456E700EA8
:10095000376E740E3B6E436E760E346E496A000E2F
:10096000586E2D0E576E58EC00F054EC01F01050FC
:100970002C6E200E356E416E436E400E426E520E4E
:100980002D6E630E3A6E650E2E6E670E346E680E17
:100990003B6E690E326E386E3E6E6D0E2F6E6E0EB1
:1009A000336E3F6E6F0E306E3D6E700E3C6E730E8A
:1009B000366E740E396E406E760E316E770E376E6F
:1009C000446A000E586E2D0E576E58EC00F02C50F5
:1009D0003B6E030E3C6E6CEC00F00A0E5A6E2FEC70
:1009E00000F00D0E5A6E2FEC00F0200E316E386EB6
:1009F000280E326E290E366E2F0E346E3F0E376E75
:100A0000530E2D6E650E306E6E0E356E720E2F6E9D
:100A1000750E2E6E790E336E396A000E586E2D0EDD
:100A2000576E58EC00F0B6EC00F0790E106201D071
:100A300026D00A0E5A6E2FEC00F00D0E5A6E2FECD7
:100A400000F0410E2D6E620E2E6E6F0E2F6E720E26
:100A5000306E740E316E650E326E640E336E2E0E75
:100A6000346E356E366E0D0E376E0A0E386E396A7C
:100A7000000E586E2D0E576E58EC00F01200456AAD
:100A8000DFEC00F010502B6E2C502A6E2B502A6099
:100A90001DD02A283C6E23EC02F01450316E135006
:100AA000306E12502F6E11502E6E10502D6E31067A
:100AB0003150366E3050356E2F50346E2E50336EAE
:100AC0002D50326E79EC01F02A2AE0D73A6A2B04D5
:100AD0003B6ECDEC00F01200D388D39AD38C0F0E6E
:100AE000C16E010E806E816A040E826E926AC10E22
:100AF000936ED00E946EF19EF18C0C0E2A6E1FEC4C
:100B000001F00A0E5A6E2FEC00F00D0E5A6E2FEC0B
:100B100000F0640E2A6E06EC00F0200E316E376E87
:100B20003F6E2E0E426E446E456E466E300E436E24
:100B3000310E416E370E356E366E420E2A6E430E02
:100B4000336E440E326E460E346E630E3A6E640E91
:100B5000386E3C6E650E396E3D6E670E306E690EF6
:100B60002E6E6E0E2F6E6F0E2B6E2C6E3B6E720EF7
:100B70003E6E740E2D6E760E406E476A000E586EF5
:100B80002A0E576E58EC00F00A0E5A6E2FEC00F049
:100B90000D0E5A6E2FEC00F0456ADFEC00F010509D
:100BA000296E292804E13A6A3B6ACDEC00F04DEC4D
:100BB00001F045EC01F02CEC01F0F28EF2883AECF9
:100BC00001F0F28ACD80F292F2949E90CF688194E7
:100BD000818280800F681200456ADFEC00F01050BF
:100BE0002E6E200E356E416E436E400E426E410EEB
:100BF0002F6E630E3A6E640E306E316E670E346E79
:100C0000680E3B6E690E326E386E3E6E6E0E336E3F
:100C10003F6E6F0E3D6E700E3C6E730E366E740E30
:100C2000396E406E770E376E446A000E586E2F0E86
:100C3000576E58EC00F02E503B6E030E3C6E6CEC81
:100C400000F00A0E5A6E2FEC00F00D0E5A6E2FECCB
:100C500000F0200E316E376E3C6E3D6E3F6E2D0EF5
:100C60002F6E3A0E3E6E3E0E306E450E326E650EA3
:100C7000356E680E386E6E0E336E6F0E396E720EF4
:100C8000366E3B6E740E346E750E3A6E406A000E10
:100C9000586E2F0E576E58EC00F054EC01F01050C7
:100CA0002A6E200E316E376E3F6E2D0E2F6E3A0E6D
:100CB0003E6E3E0E306E450E326E650E356E3D6EEA
:100CC000690E396E6D0E386E6E0E336E3A6E720EA0
:100CD000366E740E346E3C6E750E3B6E406A000EBE
:100CE000586E2F0E576E58EC00F054EC01F0105077
:100CF0002B6E200E316E376E3C6E3D6E3F6E2D0EAC
:100D00002F6E3A0E3E6E3E0E306E450E326E610E06
:100D1000396E650E356E6B0E3B6E6D0E386E6E0E57
:100D2000336E720E366E730E3A6E740E346E406A07
:100D3000000E586E2F0E576E58EC00F054EC01F078
:100D400010502C6E200E316E376E3F6E2D0E2F6EB2
:100D50003A0E3E6E3E0E306E450E326E610E386EAD
:100D6000630E396E650E356E690E3B6E6E0E336E18
:100D70003D6E6F0E3C6E720E366E740E346E3A6EB1
:100D8000406A000E586E2F0E576E58EC00F054EC6F
:100D900001F010502D6E2E50366E2D50356E2C50A9
:100DA000346E2B50336E2A50326E79EC01F03A6A71
:100DB0002E283B6ECDEC00F00A0E536E556E0D0ED4
:100DC000526E546E200E356E3B6E416E446E4B6E0D
:100DD000210E516E530E2F6E610E3C6E4D6E620EE3
:100DE0004E6E630E336E496E640E3D6E3E6E406E07
:100DF000650E3F6E506E680E346E4A6E690E316E2F
:100E0000386E476E6C0E4F6E6E0E396E6F0E376E0B
:100E1000436E700E366E730E456E740E326E3A6E01
:100E2000426E486E4C6E770E306E466E566A000EFD
:100E3000586E2F0E576E58EC00F0120020520EE044
:100E4000200414E0020E206201D017D0030E2062AD
:100E500001D02BD0040E20625CD058D0CD8028A0C9
:100E60001200010E206E289028941200216ACD9065
:100E700028A41200020E206E120028A004D0010E39
:100E8000206E2890289428A40AD02A9028A601D061
:100E90002A8064EC02F0106601D0206A28943B0E90
:100EA00021621200030E206E120028A412002350AB
:100EB0002A6E22502B6E2C6A3EEC01F02894A0EC96
:100EC00001F0200E2D6E306E2D0E2E6E3E0E2F6E0A
:100ED000430E2B6E336E440E2A6E460E2C6E520E4F
:100EE000316E540E326E346A000E586E2A0E576EF2
:100EF00058EC00F028880A0E5A6E2FEC00F00D0E08
:100F00005A6E2FEC00F0040E206E1200040E206EBC
:100F10001200206A12006CEC05F0050E206E2A6AA1
:100F200081A42A2A2AB080862AA080961EEC07F087
:100F300028AE5AD0440E2A6E610E2B6E790E2C6E9E
:100F40003A0E2D6E200E2E6E2F6A000E586E2A0E4F
:100F5000576E58EC00F024502A6EC3EC02F0200EBD
:100F60002A6E2B6E2C6A000E586E2A0E576E58ECA5
:100F700000F0FAEC00F0200E2A6E326E3A0E316E5E
:100F80006F0E2B6E700E2E6E740E2D6E306E750EF3
:100F90002C6E2F6E336A000E586E2A0E576E58EC68
:100FA00000F081A40CD06F0E2A6E6E0E2B6E2C6A90
:100FB000000E586E2A0E576E58EC00F00CD06F0ED3
:100FC0002A6E660E2B6E2C6E2D6A000E586E2A0E3F
:100FD000576E58EC00F00A0E5A6E2FEC00F00D0E12
:100FE0005A6E2FEC00F0289E9EAA51D1B6EC00F06C
:100FF0001050296E700E296203D0BBEC03F047D16C
:10100000730E296202D0288E42D1740E296209D053
:101010002A6A81A42A2A2AB081842AA08194288E4F
:1010200036D1610E296205D0BBEC03F0ECEC05F083
:101030002ED1640E296205D0BBEC03F081EC04F0E4
:1010400026D1750E296203D0FDEC02F020D10A0EE4
:101050002B6E3E6E0D0E2A6E3D6E200E336E3A0ED6
:101060003C6E430E2C6E610E306E640E326E650E59
:10107000366E3A6E690E396E6D0E2E6E2F6E6E0ED6
:10108000316E6F0E2D6E346E720E376E760E356EBB
:10109000386E770E3B6E3F6A000E586E2A0E576E02
:1010A00058EC00F0090E2A6E0A0E476E0D0E466EC1
:1010B000200E2E6E346E3B6E416E5B0E2B6E5D0EFF
:1010C0002D6E630E396E680E3A6E690E316E376E94
:1010D0003E6E436E6C0E426E6E0E326E3F6E6F0E43
:1010E0003D6E700E2C6E2F6E3C6E720E306E730E57
:1010F000356E446E740E336E386E406E456E770EEC
:10110000366E486A000E586E2A0E576E58EC00F084
:10111000090E2A6E0A0E446E0D0E436E200E2E6EC0
:10112000346E3C6E5B0E2B6E5D0E2D6E610E3F6E4F
:10113000630E356E650E396E690E316E6E0E326E4F
:101140003A6E700E2F6E720E306E376E386E730EF2
:101150002C6E3D6E426E740E336E3B6E3E6E406E74
:10116000750E366E416E456A000E586E2A0E576E29
:1011700058EC00F0090E2A6E0A0E416E0D0E406EFC
:10118000200E2E6E356E396E5B0E2B6E5D0E2D6E43
:10119000650E346E386E670E316E326E680E376EC5
:1011A0006C0E336E6F0E306E3A6E700E3D6E740EB6
:1011B0002C6E2F6E366E3C6E3F6E750E3B6E3E6E25
:1011C000426A000E586E2A0E576E58EC00F0090E57
:1011D0002A6E0A0E3F6E0D0E3E6E200E2E6E326E81
:1011E0005B0E2B6E5D0E2D6E610E2C6E2F6E630EE0
:1011F000376E640E306E316E680E386E690E356E65
:101200003B6E6E0E3C6E6F0E3A6E700E396E730E44
:10121000336E740E366E3D6E770E346E406A000E7D
:10122000586E2A0E576E58EC00F0090E2A6E0A0E00
:10123000426E0D0E416E200E2E6E356E5B0E2B6EC5
:101240005D0E2D6E630E3A6E640E2C6E2F6E650E63
:10125000306E326E346E680E3B6E690E386E3E6EC6
:101260006C0E316E6E0E3F6E6F0E3D6E700E3C6EEC
:10127000730E366E740E336E396E406E770E376EA7
:10128000436A000E586E2A0E576E58EC00F037EC89
:1012900001F00A0E106201D005D037EC01F0280EE3
:1012A000106204D0040E206201D0206A28A837D62C
:1012B0002898FDEC02F033D6206A289028922894D2
:1012C000289628981A6A1B6A1C6A1D6A1E6A1F6A79
:1012D000216A288A289C226A236A246A289E010E91
:1012E000036E020E046E040E056E080E066E0A0EE4
:1012F000076E140E086E280E096E500E0A6E8BEFE4
:1013000007F0EACF01F0E9CF02F09EA011D0E50E80
:101310005B6E480E5C6E2AEC00F01C4A1D2A020E21
:101320001C6205D01D5003E128801C6A1D6A9E9036
:101330009EA211D0CC6A1E4A1F2A020E1E620AD03B
:101340001F5008E12884289681B028861E6A1F6AEB
:10135000CA9480809E92F2A20ED0E50E5B6E480E7B
:101360005C6E2AEC00F0CD80CC6ACA841C6A1D6ACF
:101370009E908090F292F2A419D00B0ED66E1A5263
:1013800004E11B5202E1120ED66E1A4A1B2A080E05
:101390001A620BD01B5009E117EC00F01A6A1B6AA5
:1013A00014EC00F01552D8B42888F29402C0E9FF7A
:0613B00001C0EAFF11007C
:020000040030CA
:0E000000FF38FEFEFFFDFAFFFFFFFFFFFFFFD0
:00000001FF