:020000040000FA
:0400000040EF01F0DC
:0800080043EF01F01252D8A4ED
:100010000BEF00F01200F90E0000000000000000DD
:10002000FF0FD8A40CEF00F000000000000000005B
:100030000000122E0BEF00F01200ACA2FED73450DD
:10004000AD6E1200166A020E16601200165204E11E
:1000500014380F0B156E03D00F0E1414156E0A0E04
:10006000156004D0300E1524156E03D0370E1524FC
:10007000156E1550346E1DEC00F0162AE4D7336A65
:100080001350EA6E12503324E96EEF52D8B41200C6
:100090001350EA6E12503324E96E332AEF50346E57
:1000A0001DEC00F0EDD7948E948CAC9CAC8AAC988F
:1000B000AC84AB8EAB9CAB88AB961250AF6E12008B
:1000C0001150126E1250146E22EC00F01050136E8C
:1000D0001350146E22EC00F01200ABA210D04F0EA1
:1000E000146E450E156E520E166E176E186A000EBF
:1000F000136E140E126E3FEC00F0AB98AB889EAA04
:10010000FED7AE50106E1200106A056A066AD388D8
:10011000D38AD38C0F0EC16EEF0E926E010E936ECA
:10012000DE0E946E330E126E53EC00F01050116E12
:10013000102A050E11600BD0320E126E06EC00F084
:100140008098320E126E06EC00F08088EFD7200EF9
:100150001B6E236E276E2D0E216E2E0E2E6E2F6EB1
:10016000306E316E310E206E330E226E360E1F6EE3
:10017000410E256E420E146E4C0E246E4E0E266EEF
:10018000520E1E6E550E1C6E560E1D6E650E2C6E9A
:10019000670E1A6E2A6E2B6E690E186E6C0E286E24
:1001A0006E0E196E6F0E156E166E296E720E2D6E16
:1001B000740E176E326A000E136E140E126E3FEC40
:1001C00000F00A0E346E1DEC00F00D0E346E1DECC6
:1001D00000F0F19CF292F28E12000B6A0D6A0E6A28
:1001E0000F6A84EC00F005500E6204D006500F62D6
:1001F000066205D0819205500E6E06500F6E808803
:100200009EAAF1D780986DEC00F010500C6E200E75
:100210001F6E3A0E1E6E490E146E650E176E6E0E30
:10022000156E700E1B6E720E186E196E730E1D6EAB
:10023000740E166E1C6E750E1A6E206A000E136E0A
:10024000140E126E3FEC00F00550106E0650116E49
:1002500060EC00F00A0E346E1DEC00F00D0E346EF2
:100260001DEC00F0450E146E4F0E156E540E166EFA
:10027000176A000E136E140E126E3FEC00F0B3D727
:100280000A6AEDEF00F0EACF01F0E9CF02F0F4CF17
:1002900003F0F3CF04F09EA006D00950CF6E0850B3
:1002A000CE6E07809E90F2A203D0054A062AF292F3
:1002B00004C0F3FF03C0F4FF02C0E9FF01C0EAFF7E
:0202C00011002B
:020000040030CA
:0E000000FF38FEFEFFFDFAFFFFFFFFFFFFFFD0
:00000001FF
