:020000040000FA
:0400000017EF05F001
:080008001CEF05F0515200004D
:1000100001E11200040EFF0FD8A4FDD70000512EFD
:10002000F9D712005250556E000EF86E000EF76EA2
:10003000460EF66E5550F626D8B0F72AD8B0F82AF4
:100040000800F5501200005EBCE2613FDD83C29CF7
:100050007E20A3FD1F419DC3217FFCA2401E5F01A6
:10006000E3BD3E6082DC237D9FC1421CFEA0E1BF58
:100070005D0380DE3C62BEE0025CDF81633D7C228A
:10008000C09E1D43A1FF4618FAA427799BC584DAB8
:100090003866E5BB5907DB856739BAE40658194766
:1000A000A5FB7826C49A653BD987045AB8E6A7F918
:1000B0001B45C6987A24F8A6441A99C7257B3A644A
:1000C00086D85B05E7B98CD2306EEDB3510F4E1078
:1000D000F2AC2F7193CD114FADF3702ECC92D38D26
:1000E0006F31B2EC0E50AFF1134DCE90722C6D33D8
:1000F000D18F0C52B0EE326C8ED0530DEFB1F0AE0A
:100100004C1291CF2D73CA947628ABF51749085637
:10011000B4EA6937D58B5709EBB536688AD495CBE5
:100120002977F4AA4816E9B7550B88D6346A2B7597
:1001300097C94A14F6A8742AC896154BA9F7B6E8C9
:100140000A54D7896B353E52000001E11200F90EC6
:100150000000000000000000FF0FD8A4F9D7000045
:1001600000000000000000003E2EF1D71200809039
:100170009290000000004FB004D0060E516E06ECC5
:1001800000F09280010E516E06EC00F04FA01200BC
:10019000060E516E06EC00F012004E6A080E4E601C
:1001A00012004DA004D04F80B7EC00F003D04F9068
:1001B000B7EC00F04D52D8904D324E2AEFD7506A2E
:1001C00080909290000000009280010E516E06EC2B
:1001D00000F0506A80B0502A050E516E06EC00F017
:1001E0005050516E12003750516E50503618526EAA
:1001F00012EC00F0366E1200366A12008090929077
:100200003C0E516E06EC00F092800A0E516E06EC28
:1002100000F080A003D0010E4C6E1200280E516E2B
:1002200006EC00F04C6A120012004D6A4E6A4F90C4
:10023000080E4D600CD0DFEC00F04F9051B04F80B5
:100240004E52D8904E324FB04E8E4D2AF1D74E506E
:10025000506EF3EC00F04E50506E1200426A436A4A
:10026000446A45683990FEEC00F04C5203E0010E00
:10027000466E1200F00E4D6ECDEC00F0446A080E92
:10028000446065D0476A436A080E436057D0DFEC8C
:1002900000F0419051B04180DFEC00F0419251B04C
:1002A000418241B037D041B235D04250456E3850CE
:1002B00038BE24D0456022D000EE2EF0E9504450E4
:1002C000E926EF5219E0010E486E496A4A6A4B6A04
:1002D0004350FF0B07E0D890483649364A364B3634
:1002E000FF0FF7D7486606D0496604D04A6602D0A9
:1002F0004B5202E0418015D0419013D038504562F6
:1003000004D038BE02D041800CD041904550386EA8
:10031000398007D041A005D041A203D0010E466E1E
:1003200012004752D890473241B0478E4F9041B0AB
:100330004F80B7EC00F0422A432AA6D700EE2EF0F9
:10034000E9504450E9264750EF6E442A98D7FCEC18
:1003500000F0446A080E44600BD000EE2EF0E95025
:100360004450E926EF50506EF3EC00F0442AF2D7E7
:10037000365203E03650466E1200466A1200A69CC2
:10038000A6B2FED74150A96E4250A86EA69EA68482
:10039000F29E550EA76EAA0EA76EA682A694F28EA6
:1003A00012003A5203E1010E406E12003F6A0F0E36
:1003B000426E14EC01F00F0E426E14EC01F03D6A37
:1003C0003A503D601ED000EE05F0E9503D50E92660
:1003D000EF503E6E0F0E3E6201D007D0040E3E621B
:1003E00001D003D0050E3E6204D0050E426E14EC1F
:1003F00001F03E50426E14EC01F03E503F263D2A83
:10040000DFD741683F1E3F283F6E0F0E3F6201D08D
:1004100007D0040E3F6201D003D0050E3F6204D026
:10042000050E426E14EC01F03F50426E14EC01F0E8
:10043000040E426E14EC01F03A6A406A120000EEBB
:1004400005F0E9503A50E9263D50EF6E3A2A200E69
:100450003A6203D0010E3E6E12003E6A12003A6A02
:100460001200948E948CAC9CAC8AAC98AC84AB8E0D
:10047000AB9CAB88AB963C50AF6E1200426A120048
:100480003E6A38683980FEEC00F04C5203E0010E01
:10049000406E120039A02CD02EEC01F046503D6E7B
:1004A0003D5203E03D50406E12003F6A080E3F602F
:1004B0001DD0456A3F50080F416ED8B0452A3E50C6
:1004C000436E446A433644364336443643364436F4
:1004D000F80E4314412600EE2EF0E9503F50E92675
:1004E000EF50426EBFEC01F03F2AE0D73E2AD2D750
:1004F000416A3E50426EBFEC01F0406A1200BE0EEF
:100500004D6ECDEC00F04C6AFCEC00F0090E4C6036
:100510000BD015EC01F000EE25F0E9504C50E92627
:100520005050EF6E4C2AF2D736504D6E120015EC3B
:1005300001F0502803E1010E3E6E12003E6A1200E7
:100540004C50A96EA69EA69CA680A8504D6E120087
:10055000456A436A446A44B61200D890433640362E
:1005600045364550416401D003D04150455E43803B
:10057000442AF1D7436A456A446A44B61200D890C7
:1005800045363E36433643503F6401D003D03F509A
:10059000435E4580442AF1D73A6A3E6A3F6A020EBA
:1005A0003F600BD03EEC02F042503D6E0F0E3D62BC
:1005B00002D03F2AF4D7416A120040903EEC02F08C
:1005C00042503D6E050E3D6205D03EEC02F04250B9
:1005D0003D6E408000EE05F0E9503A50E9263D506E
:1005E000EF6E3A2A200E3A6202D041681200040EE1
:1005F0003D62E3D740B0E1D7020E3A5E3A50416E19
:100600001200630E3D6412D03D503E6E640E3F6E8C
:10061000BAEC02F04550406E0A0E416EA8EC02F0B2
:100620004550426E300E422614EC01F0090E3D6436
:1006300012D03D503E6E0A0E3F6EBAEC02F04550AD
:10064000406E0A0E416EA8EC02F04550426E300E2C
:10065000422614EC01F03D50406E0A0E416EA8ECAB
:1006600002F04550426E300E422614EC01F01200AA
:100670003F6A4450EA6E43503F24E96EEF52D8B4CB
:1006800012004450EA6E4350E96E3F503F2AE9267B
:10069000EF50426E14EC01F0ECD73D6A97EC02F09B
:1006A0003E520AE0040E3E6EA3EC00F03D2A3D28C7
:1006B000F5E1010E3E6E12003E6A1200CC0E4D6E48
:1006C000CDEC00F0440E4D6ECDEC00F012004B6A04
:1006D000FEEC00F0550E4D6ECDEC00F03E6A080EBB
:1006E0003E6035D04F6A3E50080F4C6ED8B04F2A4E
:1006F0003D504D6E4E6A4D364E364D364E364D3669
:100700004E36F80E4D144C26A0EC02F000EE2EF002
:10071000E9503E50E9264D50EF6E2E0EE96E3E50E8
:10072000E926EF504D6ECDEC00F000EE2EF0E950D2
:100730003E504C6E4C50E926EF504D6E00EE3FF0AF
:10074000E9503E50E9264D50EF6E3E2AC8D77FEC67
:1007500002F04D521BE04B50586E4A50576E4950B4
:10076000566E4850556E4750546E4650536E455025
:10077000526E4450516E4350506E42504F6E415035
:100780004E6E40504D6E3F504C6E12002650476EDC
:100790002550486E2B50496E2C504A6E010E4B6E00
:1007A0004B50586E4A50576E4950566E4850556ED1
:1007B0004750546E4650536E4550526E4450516EE1
:1007C0004350506E42504F6E41504E6E40504D6EF1
:1007D0003F504C6E12004C6AA0EC02F04D503E6E41
:1007E0001200D388D38AD38C0F0EC16EF70E926E8F
:1007F000C10E936ED00E946E8096640E3E6EA3EC86
:1008000000F080860C0E3C6E31EC02F00A0E426E57
:1008100014EC01F00D0E426E14EC01F04C6AA0ECE9
:1008200002F04D28D8A412000A0E426E14EC01F01A
:100830000D0E426E14EC01F040EC02F012002FECB1
:1008400002F03D6A1FEC02F0010E3D6E1FEC02F05B
:10085000010E3D6E1FEC02F03D6A1FEC02F0060E29
:100860003D6E1FEC02F04C6AA0EC02F04D503D6E64
:100870001FEC02F0010E4C6EA0EC02F04D503D6EEC
:100880001FEC02F0D1EC01F01200F1EC03F01FECD0
:1008900004F09EAAFED73EEC02F042503C6E3C5063
:1008A000426E14EC01F0300E3C6203D03D6A67ECFE
:1008B00003F0310E3C6204D0010E3D6E67EC03F094
:1008C000740E3C620CD02FEC02F0310E3D6E1FEC2A
:1008D00002F00F0E3D6E1FEC02F0D1EC01F0720E33
:1008E0003C6219D0CCEC02F041503B6E7C0E3D6E68
:1008F0003E6A000E446E3D0E436E38EC03F03B52F0
:1009000002E03B06FCD70A0E426E14EC01F00D0E1D
:10091000426E14EC01F0630E3C623FD0FEEC00F03E
:100920005EEC03F04DEC03F03E0437E1200E506E18
:100930005B6E616E540E456E610E4B6E630E516EB2
:10094000640E606E650E466E496E4F6E556E5F6E3C
:10095000690E586E5D6E6D0E476E5E6E6E0E536E56
:100960005A6E6F0E526E596E626E700E486E720E37
:100970004A6E4E6E566E730E576E740E4C6E5C6EF3
:10098000646E750E4D6E636E760E546E656A000E63
:10099000446E450E436E38EC03F0690E3C6202D0A3
:1009A0001FEC04F0730E3C6202D040EC02F06E0EBD
:1009B0003C626FD7200E476E4A6E546E5D6E3A0EE3
:1009C0005C6E4E0E456E610E4B6E4D6E506E620E3D
:1009D000516E650E536E566E660E496E690E4E6E02
:1009E0006C0E4F6E526E6E0E576E6F0E486E596ED5
:1009F000720E466E5A6E730E556E586E5B6E760EA4
:100A00004C6E5E6A000E446E450E436E38EC03F089
:100A1000EBEC03F03E503D6E01EC03F00A0E426E2B
:100A200014EC01F00D0E426E14EC01F032D7366A70
:100A3000000E376E45EF04F0EACF01F0E9CF02F087
:100A4000F4CF03F0F3CF04F004C0F3FF03C0F4FFCE
:0A0A500002C0E9FF01C0EAFF110037
:020000040030CA
:0E000000FF38F2FEFFFDFAFFFFFFFFFFFFFFDC
:00000001FF
