:020000040000FA
:0400000067EF0AF0AC
:080008006AEF0AF05952D8A476
:100010000BEF00F01200F90E0000000000000000DD
:10002000FF0FD8A40CEF00F000000000000000005B
:100030000000592E0BEF00F01200BB51B36EBA5105
:10004000B26E1200ACA2FED7B951AD6E12007D5057
:10005000CF6E7C50CE6E12000001B86B6250EA6E1B
:100060006150B825E96EEF52D8B412006250EA6EC2
:100070006150B825E96EB82BEF50B96F22EC00F053
:10008000EDD76E6A6F6A6B6A6C6A6D6A6DB8120042
:10009000D8906B366C36643665366E366F36665081
:1000A0006E5C67506F626F5C05E366506E5E675012
:1000B0006F5A6B806D2AEAD76C6A6D6A6F6A706AD4
:1000C0006E6A6EB81200D8906F3670366036613640
:1000D0006C366D3662506C5C63506D626D5C05E32E
:1000E00062506C5E63506D5A6F806E2AEAD7CE50B4
:1000F0007E6ECF507F6E7E500001A06F7F50A16F4B
:100100001200800ECD6E7C6A7D6A27EC00F09E9016
:1001100079B09D8079A09D90790405E179A001D006
:10012000F28C79A0F29C7952D8A4F28E12005F5022
:10013000270802E15E500F083FE25FBE3DD06B6AC8
:100140005E50606E5F50616E5FAE06D0601E611ED5
:10015000602AD8B4612A6B2A100E626E270E636E75
:100160005CEC00F06F50646E7050686E6BA005D050
:10017000641E681E642AD8B4682A6850656E68AE2A
:1001800005D0641E651E642AD8B4652A0A0E666E00
:10019000676A41EC00F06E50696E6F506A6E68AE2F
:1001A00005D0691E6A1E692AD8B46A2A300E6924ED
:1001B0000001B96F22EC00F05F50030802E15E50CD
:1001C000E7083FE25FBE3DD06B6A5E50606E5F50F5
:1001D000616E5FAE06D0601E611E602AD8B4612ACF
:1001E0006B2AE80E626E030E636E5CEC00F06F50DB
:1001F000646E7050686E6BA005D0641E681E642A21
:10020000D8B4682A6850656E68AE05D0641E651E55
:10021000642AD8B4652A0A0E666E676A41EC00F05B
:100220006E50696E6F506A6E68AE05D0691E6A1EA8
:10023000692AD8B46A2A300E69240001B96F22EC09
:1002400000F0630E5E645F6601D03ED05FBE3CD0BE
:100250006B6A5E50606E5F50616E5FAE06D0601E6E
:10026000611E602AD8B4612A6B2A640E626E636ACA
:100270005CEC00F06F50646E7050686E6BA005D03F
:10028000641E681E642AD8B4682A6850656E68AE19
:1002900005D0641E651E642AD8B4652A0A0E666EEF
:1002A000676A41EC00F06E50696E6F506A6E68AE1E
:1002B00005D0691E6A1E692AD8B46A2A300E6924DC
:1002C0000001B96F22EC00F0090E5E645F6601D098
:1002D0003FD05FBE3DD06B6A5E50606E5F50616E16
:1002E0005FAE06D0601E611E602AD8B4612A6B2AF8
:1002F0000A0E626E636A5CEC00F06F50646E7050C0
:10030000686E6BA005D0641E681E642AD8B4682A83
:100310006850656E68AE05D0641E651E642AD8B448
:10032000652A0A0E666E676A41EC00F06E50696ECF
:100330006F506A6E68AE05D0691E6A1E692AD8B40D
:100340006A2A300E69240001B96F22EC00F009D04E
:10035000300E636E646A000E626E630E616E2CEC8A
:1003600000F02E0E636E646A000E626E630E616EA4
:100370002CEC00F05E50646E5F50656E5FAE05D091
:10038000641E651E642AD8B4652A0A0E666E676A02
:1003900041EC00F06E50606E6F50616E5FAE05D044
:1003A000601E611E602AD8B4612A300E6024B96FC5
:1003B00022EC00F012005F6A020E5F6012005F52D2
:1003C00004E15D380F0B5E6E03D00F0E5D145E6EA0
:1003D0000A0E5E6004D0300E5E245E6E03D0370ECF
:1003E0005E245E6E5E500001B96F22EC00F05F2A61
:1003F000E3D7696A676A686A68B61200D890673698
:10040000643669366950656401D003D06550695E11
:100410006780682AF1D7676A696A686A68B61200F5
:10042000D8906936623667366750636401D003D06E
:100430006350675E6980682AF1D7A00EB16EB36A17
:10044000B26AA19259B0A08259A0A09259B0F28C80
:1004500059A0F29C5952D8A4F28E1200816AAA0EB9
:10046000636E646AE10E616E070E626E6150676EC4
:100470006250686E683468326730FF08656EFF0E40
:100480006854666E61506B6E62506C6ED8906B36BD
:100490006C366B50FF086D6EFF0E6C546E6E6D50B7
:1004A000696E6E506A6E6150716E6250706E70341B
:1004B0007032713069246F6E6A5070220C0E695E62
:1004C000D8A06A0669504F6E6A50506E736A82B443
:1004D00002D00000FCD782A402D00000FCD7796AC9
:1004E00081EC00F065507C6E66507D6E27EC00F06C
:1004F000CD809E909EB002D00000FCD7010E796E98
:1005000081EC00F069507C6E6A507D6E27EC00F043
:10051000CD806350746E64503F0B756E745202E16F
:10052000755223E06350766E64503F0B776E7650C1
:10053000FF0A77BE04D003E177503F0A16E04EB0C1
:1005400002D00000FCD7726A82B4722A8180819046
:100550004E90D89063366436639072B06380732A8D
:10056000C80E7362D6D7786A120082A402D0000047
:10057000FCD782B402D00000FCD75794CD909E9057
:10058000796A81EC00F057B416D06F507C6E7050D1
:100590007D6E27EC00F082A402D00000FCD7CD8055
:1005A000000082B402D00000FCD79EA002D0578485
:1005B000EAD7CD90E8D7010E786E1200700E59146C
:1005C0005A6E5B6A5C6A5D6A5A5208E0100E5A62A3
:1005D00001D021D0200E5A6264D038D0200E666E31
:1005E0004E0E636E630E676E6C6E640E6F6E650EFC
:1005F0006B6E6E6E6E0E696E6A6E6F0E646E686EF6
:10060000740E656E6D6E706A000E626E630E616EC2
:100610002CEC00F04FD059BE0DD06F0E636E660EFD
:10062000646E656E666A000E626E630E616E2CEC1F
:1006300000F040D06F0E5E6E6E0E5F6E606A000E50
:10064000626E5E0E616E2CEC00F034D059505D6E1F
:100650005DAE03D0700E5D1202D08F0E5D16585045
:100660005B6E5D505C6E59AE15D02D0E5E6E5F6A8E
:10067000000E626E5E0E616E2CEC00F0FF0E5B18D9
:100680005E6E5C50FF0A5F6E5E505B6E5F505C6E2C
:100690005B4A5C2A5B505E6E5C505F6E97EC00F0CC
:1006A00009D0230E5E6E5F6A000E626E5E0E616E92
:1006B0002CEC00F00A0EB96F22EC00F00D0EB96FB1
:1006C00022EC00F01200616A626A636A796A81EC66
:1006D00000F0100E636048D07C6A7D6A27EC00F061
:1006E00082B40BD0614A622A6250FD0802E1615077
:1006F000E808F6E27C6A7D6A1200616A626A82A496
:100700000BD0614A622A6250FD0802E16150E8089C
:10071000F6E27C6A7D6A1200CD8082A4FED7CD907D
:10072000000077EC00F0A0517A6EA1517B6E7B50F7
:100730000B0802E17A50B80808E27BBE06D07A5076
:10074000646E7B347B3264307A6E000EEA6E800E0B
:10075000E96E6350646ED8906434E9267A50EF6E87
:100760007B50EC6E632AB5D7010E636E8051646EC8
:10077000813581336430806F100E63601AD0000EB3
:10078000EA6E800EE96E6350646ED8906434E92698
:10079000EF50656EEC50676E6734673265308025C8
:1007A000666E815167226650806F6750816F632A41
:1007B000E3D78051646E8135813364328135813372
:1007C0006432813581336430806F80517C6E815119
:1007D0007D6E1200630E586415D05850626E640E20
:1007E000636E0BEC02F06950646E0A0E656EF9ECF4
:1007F00001F069505A6E300E5A240001B96F22EC94
:1008000000F008D0020E596405D0300E0001B96F17
:1008100022EC00F0090E586415D05850626E0A0E92
:10082000636E0BEC02F06950646E0A0E656EF9ECB3
:1008300001F069505A6E300E5A240001B96F22EC53
:1008400000F008D0010E596405D0300E0001B96FD8
:1008500022EC00F05850646E0A0E656EF9EC01F05F
:1008600069505A6E300E5A240001B96F22EC00F024
:100870001200630E616414D06150626E640E636E88
:100880000BEC02F06950646E0A0E656EF9EC01F033
:100890006950666E300E66240001B96F22EC00F0DC
:1008A000090E616414D06150626E0A0E636E0BEC27
:1008B00002F06950646E0A0E656EF9EC01F0695041
:1008C000666E300E66240001B96F22EC00F06150B4
:1008D000646E0A0E656EF9EC01F06950626E300EBE
:1008E00062240001B96F22EC00F012005A505B6ED6
:1008F0005B505D6EDBEC01F059505C6E5C505D6EE0
:10090000DBEC01F01200948E948CAC9CAC8AAC9819
:10091000AC84AB8EAB9CAB88AB965950AF6E1200DB
:10092000576A586A220E58600AD0000EEA6E050E09
:10093000E96E5850E926582AEF505726F3D7000E93
:10094000EA6E050EE96E5850E926EF5057621AD04C
:10095000586A230E586012D0000EEA6E050EE96E3A
:100960005850E926EF50596E000EEA6E280EE96ED7
:100970005850E9265950EF6E582AEBD7010E516EA8
:10098000596A1200010E596E1200576A900E2862C1
:1009900001D03BD00A0E0001816F9C6F0D0E806F5D
:1009A0009B6F200E886F8B6F8F6F926F210E9A6FE7
:1009B0002D0E986F310E976F330E996F360E966F1E
:1009C000440E826F520E956F550E936F560E946FB4
:1009D000610E906F630E866F650E836F876F690E71
:1009E000856F896F6E0E8C6F916F6F0E8D6F730EAA
:1009F0008A6F740E8E6F760E846F9D6B000E626E22
:100A0000800E616E2CEC00F032D00A0E646E7B6EAC
:100A10000D0E636E7A6E200E6E6E726E2D0E786EF7
:100A2000310E776E330E796E360E766E3A0E716E2B
:100A3000430E656E520E756E550E736E560E746EC5
:100A4000630E6A6E640E6D6E650E696E6C6E6E0E70
:100A5000676E686E6F0E666E706E740E6B6E6F6E84
:100A60007C6A000E626E630E616E2CEC00F0200E4C
:100A7000686E6E6E300E706E320E6F6E3A0E6D6E68
:100A80004C0E636E610E666E630E656E650E6C6E67
:100A9000690E6A6E6C0E676E6D0E6B6E6F0E646E15
:100AA000740E696E716A000E626E630E616E2CECDC
:100AB00000F02F50586E020E596EEAEC03F02D0E26
:100AC000586E596A000E626E580E616E2CEC00F082
:100AD0002E50586E020E596EEAEC03F02D0E586E31
:100AE000596A000E626E580E616E2CEC00F02D50AB
:100AF000586E020E596EEAEC03F0200E586E596AD9
:100B0000000E626E580E616E2CEC00F01F0E2C145D
:100B1000586E020E596EEAEC03F03A0E586E596A9E
:100B2000000E626E580E616E2CEC00F02B50586E69
:100B3000020E596EEAEC03F00A0EB96F22EC00F0D7
:100B40000D0EB96F22EC00F00A0EB96F22EC00F026
:100B50000D0EB96F22EC00F0200E696E3A0E706E29
:100B6000530E636E610E6B6E650E646E6E6E6C0E70
:100B70006C6E6E0E656E6F0E676E720E686E730E23
:100B8000666E6F6E750E6D6E760E6A6E716A000E11
:100B9000626E630E616E2CEC00F00A0EB96F22ECEF
:100BA00000F00D0EB96F22EC00F0540E5A6E310EAB
:100BB0005B6E3A0E5C6E200E5D6E5E6A000E626EBB
:100BC0005A0E616E2CEC00F03050586E3150596E58
:100BD000DEEC02F0540E5A6E320E5B6E3A0E5C6E14
:100BE000200E5D6E5E6A000E626E5A0E616E2CEC17
:100BF00000F03250586E3350596EDEEC02F0540E55
:100C00005A6E330E5B6E3A0E5C6E200E5D6E5E6A3F
:100C1000000E626E5A0E616E2CEC00F03450586E6D
:100C20003550596EDEEC02F0540E5A6E340E5B6E87
:100C30003A0E5C6E200E5D6E5E6A000E626E5A0E9B
:100C4000616E2CEC00F03650586E3750596EDEEC69
:100C500002F0540E5A6E350E5B6E3A0E5C6E200E2C
:100C60005D6E5E6A000E626E5A0E616E2CEC00F0D4
:100C70003850586E3950596EDEEC02F0540E5A6EF0
:100C8000360E5B6E3A0E5C6E200E5D6E5E6A000E76
:100C9000626E5A0E616E2CEC00F03A50586E3B506A
:100CA000596EDEEC02F00A0EB96F22EC00F00D0E68
:100CB000B96F22EC00F00A0E726E0D0E716E200EEE
:100CC000696E766E310E746E3A0E706E756E410EF0
:100CD000736E4F0E636E610E6B6E650E6E6E6C0EF4
:100CE0006C6E700E666E730E6F6E740E656E686E4F
:100CF000750E646E676E6D6E760E6A6E776A000EA4
:100D0000626E630E616E2CEC00F03CA00CD06F0E96
:100D1000586E6E0E596E5A6A000E626E580E616EF3
:100D20002CEC00F00CD06F0E586E660E596E5A6E99
:100D30005B6A000E626E580E616E2CEC00F00A0EBB
:100D4000B96F22EC00F00D0EB96F22EC00F0410EED
:100D50005A6E320E5B6E3A0E5C6E200E5D6E5E6AEF
:100D6000000E626E5A0E616E2CEC00F03CA20CD0AC
:100D70006F0E586E6E0E596E5A6A000E626E580EE5
:100D8000616E2CEC00F00CD06F0E586E660E596E32
:100D90005A6E5B6A000E626E580E616E2CEC00F0AB
:100DA0000A0EB96F22EC00F00D0EB96F22EC00F0C4
:100DB000410E5A6E330E5B6E3A0E5C6E200E5D6E07
:100DC0005E6A000E626E5A0E616E2CEC00F03CA45E
:100DD0000CD06F0E586E6E0E596E5A6A000E626E0F
:100DE000580E616E2CEC00F00CD06F0E586E660E33
:100DF000596E5A6E5B6A000E626E580E616E2CEC74
:100E000000F00A0EB96F22EC00F00D0EB96F22EC63
:100E100000F0500E5A6E750E5B6E6D0E5C6E700EAD
:100E20005D6E3A0E5E6E200E5F6E606A000E626E40
:100E30005A0E616E2CEC00F03DAE2DD0200E6B6E84
:100E40006F6E736E610E646E676E746E620E686EA6
:100E5000630E756E650E6A6E796E690E666E776EDC
:100E60006C0E696E6D0E6E6E6E0E706E6F0E716E24
:100E7000700E6D6E720E656E6C6E740E726E766EA6
:100E8000760E636E786E7A6A000E626E630E616E25
:100E90002CEC00F005D01F0E3D14616E39EC04F00F
:100EA0000A0EB96F22EC00F00D0EB96F22EC00F0C3
:100EB000516A120057905792586A596A5A6A5B6A87
:100EC00063EC03F07C505C6E7D505D6E5C5205E11E
:100ED0005D5203E1010E606E12005C50616E5D5068
:100EE000626E623462326130FF085E6EFF0E6254E1
:100EF0005F6E5C50616E5D50626E2EEC02F0786643
:100F000017D063EC03F07C505C6E7D505D6E5C50DE
:100F1000616E5D50626E623462326130FF08636EF2
:100F2000FF0E6254646E63505E6E64505F6EE1D774
:100F30005E507C6E5F507D6E27EC00F0CD809E9001
:100F40009EB002D00000FCD7010E796E81EC00F05B
:100F50005C50616E5D50626ED89061366236615051
:100F6000FF087C6EFF0E62547D6E27EC00F0CD8092
:100F700057825A6A230E5A60E8D04EB004D057B256
:100F800002D00000FAD7616A82B4612A6150596EBA
:100F90008182819257924E9058525CE1595257E1AA
:100FA000200E686E6C6E706E756E796E7E6E530E6E
:100FB000636E610E656E620E696E7A6E650E726E9C
:100FC0007D6E660E766E690E6A6E6E0E6D6E6F0EBB
:100FD0006E6E746E776E720E666E736E786E740ED1
:100FE000646E676E6B6E6F6E7C6E790E7B6E7A0EC2
:100FF000716E7F6A000E626E630E616E2CEC00F003
:101000005A50616E39EC04F0210E636E646E200E4E
:10101000656E510E666E750E676E690E686E740EA3
:10102000696E2E0E6A6E6B6E6C6E6D6A000E626E6D
:10103000630E616E2CEC00F00A0EB96F22EC00F02A
:101040000D0EB96F22EC00F0010E606E12005B6AAB
:10105000582A90D7090E58626ED0590454E1200ED8
:10106000676E6B6E6F6E736E776E7C6E530E636E13
:10107000620E686E786E650E726E7B6E660E746EB2
:10108000690E696E6E0E6C6E716E6F0E656E6D6EB2
:10109000706E756E700E666E720E766E740E646E85
:1010A0006A6E6E6E7A6E790E796E7D6A000E626E71
:1010B000630E616E2CEC00F05A50616E39EC04F056
:1010C000210E636E646E200E656E510E666E750E97
:1010D000676E690E686E740E696E2E0E6A6E6B6EA8
:1010E0006C6E6D6A000E626E630E616E2CEC00F029
:1010F0000A0EB96F22EC00F00D0EB96F22EC00F071
:10110000010E606E1200586AFF0E5B18616E000ED1
:10111000EA6E050EE96E5A50E9266150EF6E5A2AC2
:10112000CD905E507C6E5F507D6E27EC00F082A407
:10113000FED7CD801FD75B50616ED89061305B6E5B
:101140005B9E59B05B8E582A15D7606A12005150C9
:10115000576E1200ABA210D04F0E5A6E450E5B6E4A
:10116000520E5C6E5D6E5E6A000E626E5A0E616EAD
:101170002CEC00F0AB98AB889EAAFED7AE50576E11
:101180001200576A586A200E6C6E706E2E0E7A6EC0
:101190007B6E7C6E520E636E610E6D6E640E6F6EB2
:1011A000650E646E726E746E670E6B6E796E690E8C
:1011B000696E776E6E0E6A6E6E6E786E6F0E666E0C
:1011C000700E656E720E676E716E730E736E740EB6
:1011D000686E756E766E7D6A000E626E630E616E6D
:1011E0002CEC00F00A0EB96F22EC00F00D0EB96F76
:1011F00022EC00F0570E636E610E646E740E656E25
:10120000666E2D0E676E680E686E6F0E696E750ED7
:101210006A6E720E6B6E730E6C6E3A0E6D6E200EF1
:101220006E6E6F6A000E626E630E616E2CEC00F0E3
:10123000F29E4B50576E4C50586E4B6A4C6AF28E71
:101240005750596E58505A6E76EC04F00A0E000151
:10125000B96F22EC00F00D0EB96F22EC00F0450ED4
:101260005A6E4F0E5B6E540E5C6E5D6A000E626EBF
:101270005A0E616E2CEC00F01200576A4B6A4C6AF1
:10128000D388D38AD38C0F0EC16EEF0E926E010EEF
:10129000936EDE0E946E0C0E596E83EC04F0575074
:1012A000586E572A050E58600BD0320E596E06EC58
:1012B00000F08098320E596E06EC00F08088EFD76F
:1012C0000A0E0001B96F22EC00F00D0EB96F22EC8E
:1012D00000F0F19EF19CF292F288F28E010E596EAE
:1012E0001DEC02F01200526A546A556A566A3DECCF
:1012F00009F080984B50556204D04C5056624C62B5
:1013000004D04B50556E4C50566E5AEC07F060525C
:1013100003E190EC04F059529EAAECD7AAEC08F035
:101320005750536E530E536203D0C1EC08F0E2D70E
:10133000A7EC08F0575203E0C5EC04F05BD0200E98
:101340000001826F886F8F6F986F9D6FA76FAD6F71
:10135000B26F4E0E806F610E846F8A6FA36FAF6F96
:10136000B56F630E8B6F926FAB6F640E876F976F65
:10137000B66F650E8D6F916F936F966F9F6FAC6FA9
:10138000B46F660E996F670EA06F690E866F946FCB
:10139000A96F6B0E8C6F6C0E856FA26FAE6F6D0EAA
:1013A0009C6F6E0EAA6F6F0E816F9B6FA56F700E94
:1013B000896F720E906F9A6F9E6FA66FB36F730EE8
:1013C000A86FB06F740E8E6FA46FB16F750EA16FA2
:1013D000760E836F956FB76B000E626E800E616E36
:1013E0002CEC00F00A0EB96F22EC00F00D0EB96F74
:1013F00022EC00F00A0EB96F22EC00F00D0EB96F6E
:1014000022EC00F0200E6A6E3A0E716E440E636E8E
:10141000610E686E670E656E690E646E666E6B6E49
:101420006C0E696E6E0E6C6E700E6D6E730E706E5D
:10143000740E676E6F6E750E6E6E726A000E626E5F
:10144000630E616E2CEC00F00A0EB96F22EC00F016
:101450000D0EB96F22EC00F0570E636E610E646ED4
:10146000740E656E666E2D0E676E680E686E6F0E7A
:10147000696E750E6A6E720E6B6E730E6C6E3A0E3E
:101480006D6E200E6E6E6F6A000E626E630E616E80
:101490002CEC00F04B50596E4C505A6E76EC04F028
:1014A0000A0E0001B96F22EC00F00D0EB96F22ECAC
:1014B00000F0450E576E4F0E586E540E596E5A6A14
:1014C000000E626E570E616E2CEC00F013D7516A5D
:1014D00073EF09F0EACF01F0E9CF02F0F4CF03F0A7
:1014E000F3CF04F09EA006D05050CF6E4F50CE6E7A
:1014F0004E809E90F2A20ED0F2A80CD080884B4A6B
:101500004C2AF2980001BA6BBB6B1DEC00F04D6ADF
:10151000B180F292A1A209D04D2A040E4D6204D0EE
:10152000B190F292F2888098A19204C0F3FF03C0B8
:0C153000F4FF02C0E9FF01C0EAFF110057
:020000040030CA
:0E000000FF38FEFEFFFDFAFFFFFFFFFFFFFFD0
:00000001FF
