:020000040000FA
:0400000073EF09F0A1
:0800080076EF09F05852D8A46C
:100010000BEF00F01200F90E0000000000000000DD
:10002000FF0FD8A40CEF00F000000000000000005B
:100030000000582E0BEF00F01200ACA2FED7B85112
:10004000AD6E12007C50CF6E7B50CE6E12007F6A78
:100050006050EA6E5F507F24E96EEF52D8B4120010
:100060006050EA6E5F507F24E96E7F2AEF500001F6
:10007000B86F1DEC00F0ECD76D6A6E6A6A6A6B6A45
:100080006C6A6CB81200D8906A366B366336643688
:100090006D366E3665506D5C66506E626E5C05E363
:1000A00065506D5E66506E5A6A806C2AEAD76B6A3C
:1000B0006C6A6E6A6F6A6D6A6DB81200D8906E369F
:1000C0006F365F3660366B366C3661506B5C6250F3
:1000D0006C626C5C05E361506B5E62506C5A6E80C2
:1000E0006D2AEAD7CE507D6ECF507E6E7D500001D6
:1000F000A06F7E50A16F1200800ECD6E7B6A7C6A6D
:1001000022EC00F09E9077B09D8077A09D9077B014
:10011000F28C77A0F29C7752D8A4F28E12005E5037
:10012000270802E15D500F083FE25EBE3DD06A6ADB
:100130005D505F6E5E50606E5EAE06D05F1E601EEC
:100140005F2AD8B4602A6A2A100E616E270E626E8A
:1001500057EC00F06E50636E6F50676E6AA005D06A
:10016000631E671E632AD8B4672A6750646E67AE41
:1001700005D0631E641E632AD8B4642A0A0E656E15
:10018000666A3CEC00F06D50686E6E50696E67AE4A
:1001900005D0681E691E682AD8B4692A300E682402
:1001A0000001B86F1DEC00F05E50030802E15D50E5
:1001B000E7083FE25EBE3DD06A6A5D505F6E5E500A
:1001C000606E5EAE06D05F1E601E5F2AD8B4602AE5
:1001D0006A2AE80E616E030E626E57EC00F06E50F4
:1001E000636E6F50676E6AA005D0631E671E632A38
:1001F000D8B4672A6750646E67AE05D0631E641E6C
:10020000632AD8B4642A0A0E656E666A3CEC00F074
:100210006D50686E6E50696E67AE05D0681E691EBF
:10022000682AD8B4692A300E68240001B86F1DEC22
:1002300000F0630E5D645E6601D03ED05EBE3CD0D1
:100240006A6A5D505F6E5E50606E5EAE06D05F1E85
:10025000601E5F2AD8B4602A6A2A640E616E626AE0
:1002600057EC00F06E50636E6F50676E6AA005D059
:10027000631E671E632AD8B4672A6750646E67AE30
:1002800005D0631E641E632AD8B4642A0A0E656E04
:10029000666A3CEC00F06D50686E6E50696E67AE39
:1002A00005D0681E691E682AD8B4692A300E6824F1
:1002B0000001B86F1DEC00F0090E5D645E6601D0B0
:1002C0003FD05EBE3DD06A6A5D505F6E5E50606E2C
:1002D0005EAE06D05F1E601E5F2AD8B4602A6A2A0E
:1002E0000A0E616E626A57EC00F06E50636E6F50DA
:1002F000676E6AA005D0631E671E632AD8B4672A9A
:100300006750646E67AE05D0631E641E632AD8B45E
:10031000642A0A0E656E666A3CEC00F06D50686EE9
:100320006E50696E67AE05D0681E691E682AD8B423
:10033000692A300E68240001B86F1DEC00F009D066
:10034000300E616E626A000E606E610E5F6E27ECA9
:1003500000F02E0E616E626A000E606E610E5F6EBE
:1003600027EC00F05D50636E5E50646E5EAE05D0AB
:10037000631E641E632AD8B4642A0A0E656E666A18
:100380003CEC00F06D505F6E6E50606E5EAE05D05E
:100390005F1E601E5F2AD8B4602A300E5F24000101
:1003A000B86F1DEC00F01200676A656A666A66B68F
:1003B0001200D8906536623667366750636401D0A4
:1003C00003D06350675E6580662AF1D7656A676A05
:1003D000666A66B61200D890673660366536655034
:1003E000616401D003D06150655E6780662AF1D7F1
:1003F000816AAA0E616E626AE10E5F6E070E606E20
:100400005F50656E6050666E663466326530FF0818
:10041000636EFF0E6654646E5F50696E60506A6E64
:10042000D89069366A366950FF086B6EFF0E6A54C1
:100430006C6E6B50676E6C50686E5F506F6E605084
:100440006E6E6E346E326F3067246D6E68506E2241
:100450000C0E675ED8A0680667504E6E68504F6EEF
:10046000716A82B402D00000FCD782A402D00000DE
:10047000FCD7776A7CEC00F063507B6E64507C6E36
:1004800022EC00F0CD809E909EB002D00000FCD700
:10049000010E776E7CEC00F067507B6E68507C6ECE
:1004A00022EC00F0CD806150726E62503F0B736E93
:1004B000725202E1735223E06150746E62503F0B3E
:1004C000756E7450FF0A75BE04D003E175503F0A83
:1004D00016E04DB002D00000FCD7706A82B4702ADA
:1004E000818081904D90D89061366236619070B075
:1004F0006180712AC80E7162D6D7766A120082A412
:1005000002D00000FCD782B402D00000FCD7569481
:10051000CD909E90776A7CEC00F056B416D06D506A
:100520007B6E6E507C6E22EC00F082A402D0000044
:10053000FCD7CD80000082B402D00000FCD79EA082
:1005400002D05684EAD7CD90E8D7010E766E12001D
:10055000700E5814596E5A6A5B6A5C6A595208E008
:10056000100E596201D021D0200E596264D038D0CB
:10057000200E646E4E0E616E630E656E6A6E640EC2
:100580006D6E650E696E6C6E6E0E676E686E6F0EC8
:10059000626E666E740E636E6B6E6E6A000E606ED7
:1005A000610E5F6E27EC00F04FD058BE0DD06F0E7D
:1005B000616E660E626E636E646A000E606E610E3E
:1005C0005F6E27EC00F040D06F0E616E6E0E626EB3
:1005D000636A000E606E610E5F6E27EC00F034D02F
:1005E00058505C6E5CAE03D0700E5C1202D08F0E61
:1005F0005C1657505A6E5C505B6E58AE15D02D0E7F
:100600005D6E5E6A000E606E5D0E5F6E27EC00F040
:10061000FF0E5A185D6E5B50FF0A5E6E5D505A6E9B
:100620005E505B6E5A4A5B2A5A505D6E5B505E6E3E
:100630008FEC00F009D0230E5D6E5E6A000E606ED6
:100640005D0E5F6E27EC00F00A0E0001B86F1DEC26
:1006500000F00D0EB86F1DEC00F012005F6A606ACA
:10066000616A776A7CEC00F0100E616048D07B6AAA
:100670007C6A22EC00F082B40BD05F4A602A6050A2
:10068000FD0802E15F50E808F6E27B6A7C6A12002E
:100690005F6A606A82A40BD05F4A602A6050FD08DE
:1006A00002E15F50E808F6E27B6A7C6A1200CD80C6
:1006B00082A4FED7CD90000072EC00F0A051796EBC
:1006C000A1517A6E7A500B0802E17950B80808E21D
:1006D0007ABE06D07950626E7A347A326230796EA0
:1006E000000EEA6E800EE96E6150626ED890623440
:1006F000E9267950EF6E7A50EC6E612AB5D7010E7B
:10070000616E8051626E813581336230806F100E70
:1007100061601AD0000EEA6E800EE96E6150626E62
:10072000D8906234E926EF50636EEC50656E653404
:10073000653263308025646E815165226450806F1C
:100740006550816F612AE3D78051626E81358133B4
:100750006232813581336232813581336230806F1C
:1007600080517B6E81517C6E1200630E576415D0F0
:100770005750606E640E616EE6EC01F06750626E79
:100780000A0E636ED4EC01F06750596E300E592496
:100790000001B86F1DEC00F008D0020E586405D0BF
:1007A000300E0001B86F1DEC00F0090E576415D033
:1007B0005750606E0A0E616EE6EC01F06750626E93
:1007C0000A0E636ED4EC01F06750596E300E592456
:1007D0000001B86F1DEC00F008D0010E586405D080
:1007E000300E0001B86F1DEC00F05750626E0A0E1B
:1007F000636ED4EC01F06750596E300E592400013D
:10080000B86F1DEC00F01200630E5F6414D05F50EF
:10081000606E640E616EE6EC01F06750626E0A0E67
:10082000636ED4EC01F06750646E300E64240001F6
:10083000B86F1DEC00F0090E5F6414D05F50606E5D
:100840000A0E616EE6EC01F06750626E0A0E636E8E
:10085000D4EC01F06750646E300E64240001B86F70
:100860001DEC00F05F50626E0A0E636ED4EC01F076
:100870006750606E300E60240001B86F1DEC00F010
:100880001200948E948CAC9CAC8AAC98AC84AB8EE9
:10089000AB9CAB88AB965850AF6E1200566A576A45
:1008A000220E57600AD0000EEA6E050EE96E575010
:1008B000E926572AEF505626F3D7000EEA6E050EAA
:1008C000E96E5750E926EF5056621AD0576A230E48
:1008D000576012D0000EEA6E050EE96E5750E926F9
:1008E000EF50586E000EEA6E280EE96E5750E9265A
:1008F0005850EF6E572AEBD7010E506E586A12000F
:10090000010E586E1200566A900E286201D03AD03D
:100910000A0E626E7D6E0D0E616E7C6E200E696E2B
:100920006C6E706E736E210E7B6E2D0E796E310EB5
:10093000786E330E7A6E360E776E440E636E520EFC
:10094000766E550E746E560E756E610E716E630E78
:10095000676E650E646E686E690E666E6A6E6E0E08
:100960006D6E726E6F0E6E6E730E6B6E740E6F6EBA
:10097000760E656E7E6A000E606E610E5F6E27EC0D
:1009800000F032D00A0E626E796E0D0E616E786ED6
:10099000200E6C6E706E2D0E766E310E756E330EEF
:1009A000776E360E746E3A0E6F6E430E636E520E95
:1009B000736E550E716E560E726E630E686E640E17
:1009C0006B6E650E676E6A6E6E0E656E666E6F0E8E
:1009D000646E6E6E740E696E6D6E7A6A000E606E75
:1009E000610E5F6E27EC00F0200E666E6C6E300EAE
:1009F0006E6E320E6D6E3A0E6B6E4C0E616E610E47
:100A0000646E630E636E650E6A6E690E686E6C0EC0
:100A1000656E6D0E696E6F0E626E740E676E6F6A34
:100A2000000E606E610E5F6E27EC00F02F50576E67
:100A3000020E586EB5EC03F02D0E576E586A000E7C
:100A4000606E570E5F6E27EC00F02E50576E020E50
:100A5000586EB5EC03F02D0E576E586A000E606E9E
:100A6000570E5F6E27EC00F02D50576E020E586E39
:100A7000B5EC03F0200E576E586A000E606E570EEC
:100A80005F6E27EC00F01F0E2C14576E020E586E8E
:100A9000B5EC03F03A0E576E586A000E606E570EB2
:100AA0005F6E27EC00F02B50576E020E586EB5ECBF
:100AB00003F00A0EB86F1DEC00F00D0EB86F1DECC0
:100AC00000F00A0EB86F1DEC00F00D0EB86F1DECB3
:100AD00000F0200E676E3A0E6E6E530E616E610E60
:100AE000696E650E626E6C6E6C0E6A6E6E0E636E73
:100AF0006F0E656E720E666E730E646E6D6E750EA1
:100B00006B6E760E686E6F6A000E606E610E5F6EC1
:100B100027EC00F00A0E0001B86F1DEC00F00D0E7E
:100B2000B86F1DEC00F0540E596E310E5A6E3A0E2D
:100B30005B6E200E5C6E5D6A000E606E590E5F6E1D
:100B400027EC00F03050576E3150586EA8EC02F090
:100B5000540E596E320E5A6E3A0E5B6E200E5C6E5B
:100B60005D6A000E606E590E5F6E27EC00F0325029
:100B7000576E3350586EA8EC02F0540E596E330E77
:100B80005A6E3A0E5B6E200E5C6E5D6A000E606EF1
:100B9000590E5F6E27EC00F03450576E3550586E8A
:100BA000A8EC02F0540E596E340E5A6E3A0E5B6E7B
:100BB000200E5C6E5D6A000E606E590E5F6E27EC53
:100BC00000F03650576E3750586EA8EC02F0540EB5
:100BD000596E350E5A6E3A0E5B6E200E5C6E5D6A73
:100BE000000E606E590E5F6E27EC00F03850576EA5
:100BF0003950586EA8EC02F0540E596E360E5A6EEB
:100C00003A0E5B6E200E5C6E5D6A000E606E590ED1
:100C10005F6E27EC00F03A50576E3B50586EA8ECD0
:100C200002F00A0EB86F1DEC00F00D0EB86F1DEC4F
:100C300000F00A0E706E0D0E6F6E200E676E746EF1
:100C4000310E726E3A0E6E6E736E410E716E4F0EF5
:100C5000616E610E696E650E6C6E6C0E6A6E700E62
:100C6000646E730E6D6E740E636E666E750E626EDC
:100C7000656E6B6E760E686E756A000E606E610E44
:100C80005F6E27EC00F03CA00CD06F0E576E6E0E1E
:100C9000586E596A000E606E570E5F6E27EC00F0BA
:100CA0000CD06F0E576E660E586E596E5A6A000E53
:100CB000606E570E5F6E27EC00F00A0E0001B86FF1
:100CC0001DEC00F00D0EB86F1DEC00F0410E596EDA
:100CD000320E5A6E3A0E5B6E200E5C6E5D6A000E2E
:100CE000606E590E5F6E27EC00F03CA20CD06F0EC8
:100CF000576E6E0E586E596A000E606E570E5F6E1C
:100D000027EC00F00CD06F0E576E660E586E596EC1
:100D10005A6A000E606E570E5F6E27EC00F00A0EE6
:100D20000001B86F1DEC00F00D0EB86F1DEC00F067
:100D3000410E596E330E5A6E3A0E5B6E200E5C6E8B
:100D40005D6A000E606E590E5F6E27EC00F03CA4E9
:100D50000CD06F0E576E6E0E586E596A000E606E94
:100D6000570E5F6E27EC00F00CD06F0E576E660EBC
:100D7000586E596E5A6A000E606E570E5F6E27EC01
:100D800000F00A0E0001B86F1DEC00F00D0EB86FF8
:100D90001DEC00F0500E616E750E626E6D0E636E8E
:100DA000700E646E3A0E656E200E666E676A000EF7
:100DB000606E610E5F6E27EC00F03DAE2DD0200E10
:100DC000696E6D6E716E610E626E656E726E620E30
:100DD000666E630E736E650E686E776E690E646E76
:100DE000756E6C0E676E6D0E6C6E6E0E6E6E6F0EA7
:100DF0006F6E700E6B6E720E636E6A6E740E706E36
:100E0000746E760E616E766E786A000E606E610E9C
:100E10005F6E27EC00F005D01F0E3D145F6E04ECF2
:100E200004F00A0E0001B86F1DEC00F00D0EB86F53
:100E30001DEC00F0506A120056905692576A586A9C
:100E4000596A5A6A2EEC03F07B505B6E7C505C6EE4
:100E50005B5203E15C5201E112005B505F6E5C503B
:100E6000606E603460325F30FF085D6EFF0E60546C
:100E70005E6E5B505F6E5C50606EF8EC01F0766603
:100E800017D02EEC03F07B505B6E7C505C6E5B5099
:100E90005F6E5C50606E603460325F30FF08616E80
:100EA000FF0E6054626E61505D6E62505E6EE1D7FF
:100EB0005D507B6E5E507C6E22EC00F0CD809E908B
:100EC0009EB002D00000FCD7010E776E7CEC00F0E3
:100ED0005B505F6E5C50606ED8905F3660365F50DE
:100EE000FF087B6EFF0E60547C6E22EC00F0CD801C
:100EF0005682596A230E596012004DB004D056B282
:100F000002D00000FAD75F6A82B45F2A5F50586E41
:100F10008182819256924D9057525BE1585256E130
:100F2000200E666E6A6E6E6E736E776E7C6E530EFA
:100F3000616E610E636E620E676E786E650E706E26
:100F40007B6E660E746E690E686E6E0E6B6E6F0E43
:100F50006C6E726E756E720E646E716E766E740E5D
:100F6000626E656E696E6D6E7A6E790E796E7A0E4E
:100F70006F6E7D6A000E606E610E5F6E27EC00F092
:100F800059505F6E04EC04F0210E616E626E200E0B
:100F9000636E510E646E750E656E690E666E740E2C
:100FA000676E2E0E686E696E6A6E6B6A000E606EFA
:100FB000610E5F6E27EC00F00A0E0001B86F1DECA9
:100FC00000F00D0EB86F1DEC00F012005A6A572A9F
:100FD00091D7090E57626DD0580453E1200E656E0B
:100FE000696E6D6E716E756E7A6E530E616E620E05
:100FF000666E766E650E706E796E660E726E690E36
:10100000676E6E0E6A6E6F6E6F0E636E6B6E6E6ED7
:10101000736E700E646E720E746E740E626E686E15
:101020006C6E786E790E776E7B6A000E606E610E64
:101030005F6E27EC00F059505F6E04EC04F0210E57
:10104000616E626E200E636E510E646E750E656E7B
:10105000690E666E740E676E2E0E686E696E6A6E2D
:101060006B6A000E606E610E5F6E27EC00F00A0E78
:101070000001B86F1DEC00F00D0EB86F1DEC00F014
:101080001200576AFF0E5A185F6E000EEA6E050EC8
:10109000E96E5950E9265F50EF6E592ACD905D50A8
:1010A0007B6E5E507C6E22EC00F082A4FED7CD8079
:1010B00021D75A505F6ED8905F305A6E5A9E58B002
:1010C0005A8E572A17D75050566E1200ABA210D026
:1010D0004F0E596E450E5A6E520E5B6E5C6E5D6A17
:1010E000000E606E590E5F6E27EC00F0AB98AB8877
:1010F0009EAAFED7AE50566E1200566A4B6A4C6AD4
:10110000D388D38AD38C0F0EC16EEF0E926E010E70
:10111000936EDE0E946E0C0E586E41EC04F0565039
:10112000576E562A050E57600BD0320E586E06ECDD
:1011300000F08098320E586E06EC00F08088EFD7F1
:101140000A0E0001B86F1DEC00F00D0EB86F1DEC1B
:1011500000F0F19CF292F288F28E1200516A536A0A
:10116000546A556A7DEC08F04B50546204D04C50E0
:1011700055624C6205D081924B50546E4C50556E66
:101180001CEC07F081824EEC04F0585202E180988A
:1011900001D080889EAAE8D766EC08F05650526EBF
:1011A00063EC08F0565204E0808883EC04F05CD0D5
:1011B000200E0001826F886F8F6F986F9D6FA76FF1
:1011C000AD6FB26F4E0E806F610E846F8A6FA36F2A
:1011D000AF6FB56F630E8B6F926FAB6F640E876FDF
:1011E000976FB66F650E8D6F916F936F966F9F6F50
:1011F000AC6FB46F660E996F670EA06F690E866F45
:10120000946FA96F6B0E8C6F6C0E856FA26FAE6FB3
:101210006D0E9C6F6E0EAA6F6F0E816F9B6FA56F28
:10122000700E896F720E906F9A6F9E6FA66FB36F7C
:10123000730EA86FB06F740E8E6FA46FB16F750EC2
:10124000A16F760E836F956FB76B000E606E800E88
:101250005F6E27EC00F00A0E0001B86F1DEC00F085
:101260000D0EB86F1DEC00F0200E6C6E3A0E6B6E1A
:10127000490E616E650E646E6E0E626E700E686E63
:10128000720E656E666E730E6A6E740E636E696EB4
:10129000750E676E6D6A000E606E610E5F6E27ECF4
:1012A00000F0F29E4B505D6E4C505E6E8FEC00F085
:1012B0004B6A4C6A546A556AF28E0A0EB86F1DEC7E
:1012C00000F00D0EB86F1DEC00F0450E566E4F0E7F
:1012D000576E540E586E596A000E606E560E5F6E51
:1012E00027EC00F041D7506AAEEF08F0EACF01F0EA
:1012F000E9CF02F0F4CF03F0F3CF04F09EA006D0C4
:101300004F50CF6E4E50CE6E4D809E90F2A203D0C5
:101310004B4A4C2AF29204C0F3FF03C0F4FF02C010
:08132000E9FF01C0EAFF110022
:020000040030CA
:0E000000FF38FEFEFFFDFAFFFFFFFFFFFFFFD0
:00000001FF
