:020000040000FA
:040000004FEF0AF0C4
:0800080052EF0AF05852D8A48F
:100010000BEF00F01200F90E0000000000000000DD
:10002000FF0FD8A40CEF00F000000000000000005B
:100030000000582E0BEF00F01200ACA2FED7B95111
:10004000AD6E12007C50CF6E7B50CE6E1200000160
:10005000B86B6150EA6E6050B825E96EEF52D8B4C3
:1000600012006150EA6E6050B825E96EB82BEF506F
:10007000B96F1DEC00F0EDD76D6A6E6A6A6A6B6A43
:100080006C6A6CB81200D8906A366B366336643688
:100090006D366E3665506D5C66506E626E5C05E363
:1000A00065506D5E66506E5A6A806C2AEAD76B6A3C
:1000B0006C6A6E6A6F6A6D6A6DB81200D8906E369F
:1000C0006F365F3660366B366C3661506B5C6250F3
:1000D0006C626C5C05E361506B5E62506C5A6E80C2
:1000E0006D2AEAD7CE507D6ECF507E6E7D500001D6
:1000F000A06F7E50A16F1200800ECD6E7B6A7C6A6D
:1001000022EC00F09E9078B09D8078A09D9078B011
:10011000F28C78A0F29C7852D8A4F28E12005E5035
:10012000270802E15D500F083FE25EBE3DD06A6ADB
:100130005D505F6E5E50606E5EAE06D05F1E601EEC
:100140005F2AD8B4602A6A2A100E616E270E626E8A
:1001500057EC00F06E50636E6F50676E6AA005D06A
:10016000631E671E632AD8B4672A6750646E67AE41
:1001700005D0631E641E632AD8B4642A0A0E656E15
:10018000666A3CEC00F06D50686E6E50696E67AE4A
:1001900005D0681E691E682AD8B4692A300E682402
:1001A0000001B96F1DEC00F05E50030802E15D50E4
:1001B000E7083FE25EBE3DD06A6A5D505F6E5E500A
:1001C000606E5EAE06D05F1E601E5F2AD8B4602AE5
:1001D0006A2AE80E616E030E626E57EC00F06E50F4
:1001E000636E6F50676E6AA005D0631E671E632A38
:1001F000D8B4672A6750646E67AE05D0631E641E6C
:10020000632AD8B4642A0A0E656E666A3CEC00F074
:100210006D50686E6E50696E67AE05D0681E691EBF
:10022000682AD8B4692A300E68240001B96F1DEC21
:1002300000F0630E5D645E6601D03ED05EBE3CD0D1
:100240006A6A5D505F6E5E50606E5EAE06D05F1E85
:10025000601E5F2AD8B4602A6A2A640E616E626AE0
:1002600057EC00F06E50636E6F50676E6AA005D059
:10027000631E671E632AD8B4672A6750646E67AE30
:1002800005D0631E641E632AD8B4642A0A0E656E04
:10029000666A3CEC00F06D50686E6E50696E67AE39
:1002A00005D0681E691E682AD8B4692A300E6824F1
:1002B0000001B96F1DEC00F0090E5D645E6601D0AF
:1002C0003FD05EBE3DD06A6A5D505F6E5E50606E2C
:1002D0005EAE06D05F1E601E5F2AD8B4602A6A2A0E
:1002E0000A0E616E626A57EC00F06E50636E6F50DA
:1002F000676E6AA005D0631E671E632AD8B4672A9A
:100300006750646E67AE05D0631E641E632AD8B45E
:10031000642A0A0E656E666A3CEC00F06D50686EE9
:100320006E50696E67AE05D0681E691E682AD8B423
:10033000692A300E68240001B96F1DEC00F009D065
:10034000300E626E636A000E616E620E606E27ECA4
:1003500000F02E0E626E636A000E616E620E606EB9
:1003600027EC00F05D50636E5E50646E5EAE05D0AB
:10037000631E641E632AD8B4642A0A0E656E666A18
:100380003CEC00F06D505F6E6E50606E5EAE05D05E
:100390005F1E601E5F2AD8B4602A300E5F24B96FDA
:1003A0001DEC00F012005E6A020E5E6012005E52EA
:1003B00004E15C380F0B5D6E03D00F0E5C145D6EB4
:1003C0000A0E5D6004D0300E5D245D6E03D0370EE2
:1003D0005D245D6E5D500001B96F1DEC00F05E2A7A
:1003E000E3D7686A666A676A67B61200D8906636AD
:1003F000633668366850646401D003D06450685E28
:100400006680672AF1D7666A686A676A67B612000B
:10041000D8906836613666366650626401D003D083
:100420006250665E6880672AF1D7816AAA0E626EA2
:10043000636AE10E606E070E616E6050666E615019
:10044000676E673467326630FF08646EFF0E67546C
:10045000656E60506A6E61506B6ED8906A366B360E
:100460006A50FF086C6EFF0E6B546D6E6C50686EB8
:100470006D50696E6050706E61506F6E6F346F3288
:10048000703068246E6E69506F220C0E685ED8A0C2
:10049000690668504E6E69504F6E726A82B402D01F
:1004A0000000FCD782A402D00000FCD7786A7CEC64
:1004B00000F064507B6E65507C6E22EC00F0CD80C5
:1004C0009E909EB002D00000FCD7010E786E7CECAE
:1004D00000F068507B6E69507C6E22EC00F0CD809D
:1004E0006250736E63503F0B746E735202E174522C
:1004F00023E06250756E63503F0B766E7550FF0AB5
:1005000076BE04D003E176503F0A16E04DB002D02B
:100510000000FCD7716A82B4712A818081904D906D
:10052000D89062366336629071B06280722AC80ECB
:100530007262D6D7776A120082A402D00000FCD77C
:1005400082B402D00000FCD75694CD909E90786A79
:100550007CEC00F056B416D06E507B6E6F507C6E03
:1005600022EC00F082A402D00000FCD7CD80000075
:1005700082B402D00000FCD79EA002D05684EAD7F5
:10058000CD90E8D7010E776E1200700E5814596E98
:100590005A6A5B6A5C6A595208E0100E596201D0CF
:1005A00021D0200E596264D038D0200E656E4E0ED8
:1005B000626E630E666E6B6E640E6E6E650E6A6EB4
:1005C0006D6E6E0E686E696E6F0E636E676E740E82
:1005D000646E6C6E6F6A000E616E620E606E27EC68
:1005E00000F04FD058BE0DD06F0E626E660E636E77
:1005F000646E656A000E616E620E606E27EC00F03C
:1006000040D06F0E5D6E6E0E5E6E5F6A000E616EA4
:100610005D0E606E27EC00F034D058505C6E5CAE1E
:1006200003D0700E5C1202D08F0E5C1657505A6EBB
:100630005C505B6E58AE15D02D0E5D6E5E6A000E7E
:10064000616E5D0E606E27EC00F0FF0E5A185D6E55
:100650005B50FF0A5E6E5D505A6E5E505B6E5A4A8A
:100660005B2A5A505D6E5B505E6E8FEC00F009D0D5
:10067000230E5D6E5E6A000E616E5D0E606E27EC8D
:1006800000F00A0EB96F1DEC00F00D0EB96F1DECF5
:1006900000F01200606A616A626A786A7CEC00F0BD
:1006A000100E626048D07B6A7C6A22EC00F082B453
:1006B0000BD0604A612A6150FD0802E16050E808F1
:1006C000F6E27B6A7C6A1200606A616A82A40BD0DF
:1006D000604A612A6150FD0802E16050E808F6E2D4
:1006E0007B6A7C6A1200CD8082A4FED7CD90000088
:1006F00072EC00F0A051796EA1517A6E7A500B081D
:1007000002E17950B80808E27ABE06D07950636EEB
:100710007A347A326330796E000EEA6E800EE96EBA
:100720006250636ED8906334E9267950EF6E7A5048
:10073000EC6E622AB5D7010E626E8051636E813510
:1007400081336330806F100E62601AD0000EEA6E43
:10075000800EE96E6250636ED8906334E926EF50E4
:10076000646EEC50666E6634663264308025656E69
:10077000815166226550806F6650816F622AE3D78F
:100780008051636E813581336332813581336332C9
:10079000813581336330806F80517B6E81517C6EF7
:1007A0001200630E576415D05750616E640E626E6E
:1007B00003EC02F06850636E0A0E646EF1EC01F017
:1007C0006850596E300E59240001B96F1DEC00F0CD
:1007D00008D0020E586405D0300E0001B96F1DEC30
:1007E00000F0090E576415D05750616E0A0E626E04
:1007F00003EC02F06850636E0A0E646EF1EC01F0D7
:100800006850596E300E59240001B96F1DEC00F08C
:1008100008D0010E586405D0300E0001B96F1DECF0
:1008200000F05750636E0A0E646EF1EC01F06850F0
:10083000596E300E59240001B96F1DEC00F0120002
:10084000630E606414D06050616E640E626E03ECDF
:1008500002F06850636E0A0E646EF1EC01F06850AD
:10086000656E300E65240001B96F1DEC00F0090EB5
:10087000606414D06050616E0A0E626E03EC02F088
:100880006850636E0A0E646EF1EC01F06850656E9C
:10089000300E65240001B96F1DEC00F06050636EEE
:1008A0000A0E646EF1EC01F06850616E300E612446
:1008B0000001B96F1DEC00F0120059505A6E5A50E9
:1008C0005C6ED3EC01F058505B6E5B505C6ED3EC09
:1008D00001F01200948E948CAC9CAC8AAC98AC84E1
:1008E000AB8EAB9CAB88AB965850AF6E1200566A7D
:1008F000576A220E57600AD0000EEA6E050EE96EA6
:100900005750E926572AEF505626F3D7000EEA6EC5
:10091000050EE96E5750E926EF5056621AD0576A15
:10092000230E576012D0000EEA6E050EE96E575086
:10093000E926EF50586E000EEA6E280EE96E575009
:10094000E9265850EF6E572AEBD7010E506E586AC1
:100950001200010E586E1200566A900E286201D0E5
:100960003AD00A0E636E7E6E0D0E626E7D6E200EA4
:100970006A6E6D6E716E746E210E7C6E2D0E7A6EC7
:10098000310E796E330E7B6E360E786E440E646EC9
:10099000520E776E550E756E560E766E610E726E35
:1009A000630E686E650E656E696E690E676E6B6EBE
:1009B0006E0E6E6E736E6F0E6F6E730E6C6E740EC7
:1009C000706E760E666E7F6A000E616E620E606EED
:1009D00027EC00F032D00A0E636E7A6E0D0E626E56
:1009E000796E200E6D6E716E2D0E776E310E766EF5
:1009F000330E786E360E756E3A0E706E430E646E60
:100A0000520E746E550E726E560E736E630E696ED4
:100A1000640E6C6E650E686E6B6E6E0E666E676E43
:100A20006F0E656E6F6E740E6A6E6E6E7B6A000E70
:100A3000616E620E606E27EC00F0200E676E6D6EC8
:100A4000300E6F6E320E6E6E3A0E6C6E4C0E626E23
:100A5000610E656E630E646E650E6B6E690E696E77
:100A60006C0E666E6D0E6A6E6F0E636E740E686E3F
:100A7000706A000E616E620E606E27EC00F02F50FF
:100A8000576E020E586ED1EC03F02D0E576E586A59
:100A9000000E616E570E606E27EC00F02E50576E00
:100AA000020E586ED1EC03F02D0E576E586A000EF0
:100AB000616E570E606E27EC00F02D50576E020EDF
:100AC000586ED1EC03F0200E576E586A000E616E1E
:100AD000570E606E27EC00F01F0E2C14576E020E9E
:100AE000586ED1EC03F03A0E576E586A000E616EE4
:100AF000570E606E27EC00F02B50576E020E586EAA
:100B0000D1EC03F00A0EB96F1DEC00F00D0EB96FB9
:100B10001DEC00F00A0EB96F1DEC00F00D0EB96F60
:100B20001DEC00F0200E686E3A0E6F6E530E626E72
:100B3000610E6A6E650E636E6D6E6C0E6B6E6E0E80
:100B4000646E6F0E666E720E676E730E656E6E6EFD
:100B5000750E6C6E760E696E706A000E616E620EB6
:100B6000606E27EC00F00A0EB96F1DEC00F00D0E60
:100B7000B96F1DEC00F0540E596E310E5A6E3A0EDC
:100B80005B6E200E5C6E5D6A000E616E590E606ECB
:100B900027EC00F03050576E3150586EC5EC02F023
:100BA000540E596E320E5A6E3A0E5B6E200E5C6E0B
:100BB0005D6A000E616E590E606E27EC00F03250D7
:100BC000576E3350586EC5EC02F0540E596E330E0A
:100BD0005A6E3A0E5B6E200E5C6E5D6A000E616EA0
:100BE000590E606E27EC00F03450576E3550586E39
:100BF000C5EC02F0540E596E340E5A6E3A0E5B6E0E
:100C0000200E5C6E5D6A000E616E590E606E27EC00
:100C100000F03650576E3750586EC5EC02F0540E47
:100C2000596E350E5A6E3A0E5B6E200E5C6E5D6A22
:100C3000000E616E590E606E27EC00F03850576E52
:100C40003950586EC5EC02F0540E596E360E5A6E7D
:100C50003A0E5B6E200E5C6E5D6A000E616E590E80
:100C6000606E27EC00F03A50576E3B50586EC5EC62
:100C700002F00A0EB96F1DEC00F00D0EB96F1DECFD
:100C800000F00A0E716E0D0E706E200E686E756E9D
:100C9000310E736E3A0E6F6E746E410E726E4F0EA1
:100CA000626E610E6A6E650E6D6E6C0E6B6E700E0E
:100CB000656E730E6E6E740E646E676E750E636E87
:100CC000666E6C6E760E696E766A000E616E620EEE
:100CD000606E27EC00F03CA00CD06F0E576E6E0ECD
:100CE000586E596A000E616E570E606E27EC00F068
:100CF0000CD06F0E576E660E586E596E5A6A000E03
:100D0000616E570E606E27EC00F00A0EB96F1DEC95
:100D100000F00D0EB96F1DEC00F0410E596E320E51
:100D20005A6E3A0E5B6E200E5C6E5D6A000E616E4E
:100D3000590E606E27EC00F03CA20CD06F0E576E7F
:100D40006E0E586E596A000E616E570E606E27EC7B
:100D500000F00CD06F0E576E660E586E596E5A6AC0
:100D6000000E616E570E606E27EC00F00A0EB96F30
:100D70001DEC00F00D0EB96F1DEC00F0410E596E28
:100D8000330E5A6E3A0E5B6E200E5C6E5D6A000E7C
:100D9000616E590E606E27EC00F03CA40CD06F0E13
:100DA000576E6E0E586E596A000E616E570E606E69
:100DB00027EC00F00CD06F0E576E660E586E596E11
:100DC0005A6A000E616E570E606E27EC00F00A0E34
:100DD000B96F1DEC00F00D0EB96F1DEC00F0500E58
:100DE000596E750E5A6E6D0E5B6E700E5C6E3A0E1D
:100DF0005D6E200E5E6E5F6A000E616E590E606E53
:100E000027EC00F03DAE2DD0200E6A6E6E6E726E35
:100E1000610E636E666E736E620E676E630E746E45
:100E2000650E696E786E690E656E766E6C0E686E14
:100E30006D0E6D6E6E0E6F6E6F0E706E700E6C6E50
:100E4000720E646E6B6E740E716E756E760E626EDF
:100E5000776E796A000E616E620E606E27EC00F0AC
:100E600005D01F0E3D14606E20EC04F00A0EB96F21
:100E70001DEC00F00D0EB96F1DEC00F0506A120071
:100E800056905692576A586A596A5A6A4AEC03F061
:100E90007B505B6E7C505C6E5B5205E15C5203E103
:100EA000010E5F6E12005B50606E5C50616E6134CB
:100EB00061326030FF085D6EFF0E61545E6E5B5004
:100EC000606E5C50616E15EC02F0776617D04AECEC
:100ED00003F07B505B6E7C505C6E5B50606E5C50D0
:100EE000616E613461326030FF08626EFF0E6154E2
:100EF000636E62505D6E63505E6EE1D75D507B6ED7
:100F00005E507C6E22EC00F0CD809E909EB002D0B0
:100F10000000FCD7010E786E7CEC00F05B50606E38
:100F20005C50616ED890603661366050FF087B6E11
:100F3000FF0E61547C6E22EC00F0CD805682596A1F
:100F4000230E5960E8D04DB004D056B202D0000054
:100F5000FAD7606A82B4602A6050586E81828192AA
:100F600056924D9057525CE1585257E1200E676EF1
:100F70006B6E6F6E746E786E7D6E530E626E610E68
:100F8000646E620E686E796E650E716E7C6E660EB2
:100F9000756E690E696E6E0E6C6E6F0E6D6E736E91
:100FA000766E720E656E726E776E740E636E666E1E
:100FB0006A6E6E6E7B6E790E7A6E7A0E706E7E6AD7
:100FC000000E616E620E606E27EC00F05950606E8C
:100FD00020EC04F0210E626E636E200E646E510EE2
:100FE000656E750E666E690E676E740E686E2E0EF7
:100FF000696E6A6E6B6E6C6A000E616E620E606E78
:1010000027EC00F00A0EB96F1DEC00F00D0EB96F61
:101010001DEC00F0010E5F6E12005A6A572A90D73D
:10102000090E57626ED0580454E1200E666E6A6E47
:101030006E6E726E766E7B6E530E626E620E676EB1
:10104000776E650E716E7A6E660E736E690E686EDF
:101050006E0E6B6E706E6F0E646E6C6E6F6E746E75
:10106000700E656E720E756E740E636E696E6D6EC7
:10107000796E790E786E7C6A000E616E620E606E1B
:1010800027EC00F05950606E20EC04F0210E626EE7
:10109000636E200E646E510E656E750E666E690E7F
:1010A000676E740E686E2E0E696E6A6E6B6E6C6A79
:1010B000000E616E620E606E27EC00F00A0EB96FD2
:1010C0001DEC00F00D0EB96F1DEC00F0010E5F6E0F
:1010D0001200576AFF0E5A18606E000EEA6E050E77
:1010E000E96E5950E9266050EF6E592ACD905D5057
:1010F0007B6E5E507C6E22EC00F082A4FED7CD8029
:101100001FD75A50606ED89060305A6E5A9E58B0B1
:101110005A8E572A15D75F6A12005050566E120029
:10112000ABA210D04F0E596E450E5A6E520E5B6E2A
:101130005C6E5D6A000E616E590E606E27EC00F009
:10114000AB98AB889EAAFED7AE50566E1200566A78
:10115000576A200E6B6E6F6E2E0E796E7A6E7B6EF6
:10116000520E626E610E6C6E640E6E6E650E636E74
:10117000716E736E670E6A6E786E690E686E766E4B
:101180006E0E696E6D6E776E6F0E656E700E646EAC
:10119000720E666E706E730E726E740E676E746E83
:1011A000756E7C6A000E616E620E606E27EC00F058
:1011B0000A0EB96F1DEC00F00D0EB96F1DEC00F0BA
:1011C000570E626E610E636E740E646E656E2D0E48
:1011D000666E680E676E6F0E686E750E696E720EC3
:1011E0006A6E730E6B6E3A0E6C6E200E6D6E6E6ACA
:1011F000000E616E620E606E27EC00F0F29E4B50A6
:10120000566E4C50576E4B6A4C6AF28E5650586E62
:101210005750596E5DEC04F00A0E0001B96F1DECD9
:1012200000F00D0EB96F1DEC00F0450E596E4F0E1B
:101230005A6E540E5B6E5C6A000E616E590E606EE3
:1012400027EC00F01200566A4B6A4C6AD388D38AA6
:10125000D38C0F0EC16EEF0E926E010E936EDE0EEA
:10126000946E0C0E586E6AEC04F05650576E562A67
:10127000050E57600BD0320E586E06EC00F08098C9
:10128000320E586E06EC00F08088EFD70A0E00018F
:10129000B96F1DEC00F00D0EB96F1DEC00F0F19C64
:1012A000F292F288F28E1200516A536A546A556AB9
:1012B00023EC09F04B50546204D04C5055624C6200
:1012C00005D081924B50546E4C50556E40EC07F057
:1012D0005F5207E177EC04F0585202E1809801D0A8
:1012E000808881829EAAE6D7809890EC08F05650BC
:1012F000526E530E526203D0A7EC08F0DBD78DEC90
:1013000008F0565204E08088ACEC04F05BD0200E6C
:101310000001826F886F8F6F986F9D6FA76FAD6FA1
:10132000B26F4E0E806F610E846F8A6FA36FAF6FC6
:10133000B56F630E8B6F926FAB6F640E876F976F95
:10134000B66F650E8D6F916F936F966F9F6FAC6FD9
:10135000B46F660E996F670EA06F690E866F946FFB
:10136000A96F6B0E8C6F6C0E856FA26FAE6F6D0EDA
:101370009C6F6E0EAA6F6F0E816F9B6FA56F700EC4
:10138000896F720E906F9A6F9E6FA66FB36F730E18
:10139000A86FB06F740E8E6FA46FB16F750EA16FD2
:1013A000760E836F956FB76B000E616E800E606E68
:1013B00027EC00F00A0EB96F1DEC00F00D0EB96FAE
:1013C0001DEC00F00A0EB96F1DEC00F00D0EB96FA8
:1013D0001DEC00F0200E696E3A0E706E440E626EC7
:1013E000610E676E670E646E690E636E656E6A6E7F
:1013F0006C0E686E6E0E6B6E700E6C6E730E6F6E92
:10140000740E666E6E6E750E6D6E716A000E616E94
:10141000620E606E27EC00F00A0EB96F1DEC00F052
:101420000D0EB96F1DEC00F0570E626E610E636E0B
:10143000740E646E656E2D0E666E680E676E6F0EAE
:10144000686E750E696E720E6A6E730E6B6E3A0E72
:101450006C6E200E6D6E6E6A000E616E620E606EB6
:1014600027EC00F04B50586E4C50596E5DEC04F078
:101470000A0E0001B96F1DEC00F00D0EB96F1DECE6
:1014800000F0450E566E4F0E576E540E586E596A48
:10149000000E616E560E606E27EC00F00BD7506A9E
:1014A00054EF09F0EACF01F0E9CF02F0F4CF03F0F6
:1014B000F3CF04F09EA006D04F50CF6E4E50CE6EAC
:1014C0004D809E90F2A203D04B4A4C2AF29204C067
:1014D000F3FF03C0F4FF02C0E9FF01C0EAFF1100FF
:020000040030CA
:0E000000FF38FEFEFFFDFAFFFFFFFFFFFFFFD0
:00000001FF
