:020000040000FA
:04000000B3EF04F066
:08000800B8EF04F06A52D8A41D
:100010000BEF00F01200040EFF0FD8A40CEF00F05D
:100020006A2E0BEF00F012006B506E6E6A506C6E11
:100030006D6AD8906C366D366C366D364E0E6C2609
:10004000000E6D22FB6A6D50FA6E6C50F96E29EF4E
:1000500000F0700EF66E000EF76E000EF86E6E5029
:10006000F626D8B0F72AD8B0F82A0800F5501200C2
:10007000005EBCE2613FDD83C29C7E20A3FD1F4188
:100080009DC3217FFCA2401E5F01E3BD3E6082DC78
:10009000237D9FC1421CFEA0E1BF5D0380DE3C6268
:1000A000BEE0025CDF81633D7C22C09E1D43A1FF58
:1000B0004618FAA427799BC584DA3866E5BB590748
:1000C000DB856739BAE406581947A5FB7826C49A38
:1000D000653BD987045AB8E6A7F91B45C6987A2428
:1000E000F8A6441A99C7257B3A6486D85B05E7B918
:1000F0008CD2306EEDB3510F4E10F2AC2F7193CD08
:10010000114FADF3702ECC92D38D6F31B2EC0E50F7
:10011000AFF1134DCE90722C6D33D18F0C52B0EEE7
:10012000326C8ED0530DEFB1F0AE4C1291CF2D73D7
:10013000CA947628ABF517490856B4EA6937D58BC7
:100140005709EBB536688AD495CB2977F4AA4816B7
:10015000E9B7550B88D6346A2B7597C94A14F6A8A7
:10016000742AC896154BA9F7B6E80A54D7896B3597
:100170005752D8A4BDEF00F01200F90E00000000A5
:1001800000000000FF0FD8A4BEEF00F00000000048
:1001900000000000572EBDEF00F0120080909290FA
:1001A0000000000068B004D0060E6A6E06EC00F095
:1001B0009280010E6A6E06EC00F068A01200060E36
:1001C0006A6E06EC00F0120042506A6E69504118E7
:1001D0006B6E14EC00F0416E1200696A8090929090
:1001E000000000009280010E6A6E06EC00F0696A61
:1001F00080B0692A050E6A6E06EC00F06950236E25
:100200001200676A080E6760120066A004D068805A
:10021000CEEC00F003D06890CEEC00F06650686E33
:10022000D8906830666E672AEDD71200416A1200D6
:10023000809092903C0E6A6E06EC00F092800A0E5E
:100240006A6E06EC00F080A003D0010E236E12004F
:10025000280E6A6E06EC00F0236A1200666A676A6E
:100260006890080E66600ED0EDEC00F0689023B048
:1002700068806750696ED8906930676E68B0678E25
:10028000662AEFD76750696EE4EC00F06750236E82
:100290001200A69CA6B2FED75A50A96E5B50A86E5B
:1002A000A69EA684F29E550EA76EAA0EA76EA682E3
:1002B000A694F28E1200526A5150EA6E50505224A7
:1002C000E96EEF52D8B412005150EA6E50505224E9
:1002D000E96E522AEF50596E15EC01F0EDD75A6ACB
:1002E0005B6A5C6A5D68459018EC01F0235203E09C
:1002F000010E236E1200F00E666E01EC01F05C6AD6
:10030000080E5C6069D05F6A5B6A080E5B605AD059
:10031000EDEC00F05E9023B05E80EDEC00F05E92BC
:1003200023B05E825EB038D05EB236D05A505D6E79
:10033000435043BE25D05D6023D0000EEA6E390ED7
:10034000E96E5C50E926EF5219E0010E606E616AB9
:10035000626A636A5B50FF0B07E0D89060366136D3
:1003600062366336FF0FF7D7606606D0616604D049
:10037000626602D0635202E05E8015D05E9013D0B8
:1003800043505D6204D043BE02D05E800CD05E90CC
:100390005D50436E458007D05EA005D05EA203D0BD
:1003A000010E236E12005F50606ED89060305F6E59
:1003B0005EB05F8E68905EB06880CEEC00F05A2A26
:1003C0005B2AA3D7000EEA6E390EE96E5C50E9266F
:1003D0005F50EF6E5C2A94D716EC01F05C6A080E51
:1003E0005C600CD0000EEA6E390EE96E5C50E926B6
:1003F000EF50696EE4EC00F05C2AF1D7415203E063
:100400004150236E1200236A1200948E948CAC9C8F
:10041000AC8AAC98AC84AB8EAB9CAB88AB964750A7
:10042000AF6E12006550A96EA69EA69CA680A8502D
:10043000236E1200445203E1010E236E1200586A2B
:100440000F0E596E15EC01F00F0E596E15EC01F000
:10045000566A445056601FD0000EEA6E030EE96ED5
:100460005650E926EF50576E0F0E576201D007D055
:10047000040E576201D003D0050E576204D0050E5A
:10048000596E15EC01F05750596E15EC01F05750AC
:100490005826562ADED75A68581C596E5928586E65
:1004A0000F0E586201D007D0040E586201D003D05D
:1004B000050E586204D0050E596E15EC01F0585027
:1004C000596E15EC01F0040E596E15EC01F0446AFA
:1004D000236A1200000EEA6E030EE96E4450E9260C
:1004E0005650EF6E442A200E446203D0010E236E54
:1004F0001200236A1200446A1200236A1200586A2A
:100500004368458018EC01F0235203E0010E236E8E
:10051000120045A029D06FEC01F02350576E5752BE
:1005200003E05750236E1200596A080E59601AD022
:100530005E6A5950080F5D6ED8B05E2A58505C6EE6
:100540005C365C365C34F80B5D245A6E000EEA6E45
:10055000390EE96E5950E926EF505B6E49EC01F017
:10056000592AE3D7582AD5D75A6A58505B6E49ECB6
:1005700001F0236A12002EEC01F0232803E1010EA2
:10058000236E1200236A1200BE0E666E01EC01F0AB
:10059000656A16EC01F0090E65600CD02EEC01F0D6
:1005A000000EEA6E300EE96E6550E9262350EF6EBC
:1005B000652AF1D74150236E1200446A486A496A9D
:1005C000020E49600BD07DEC02F02350476E0F0EF7
:1005D000476202D0492AF4D7496AF2D74A907DECA3
:1005E00002F02350476E050E476205D07DEC02F005
:1005F0002350476E4A80000EEA6E030EE96E4450A7
:10060000E9264750EF6E442A200E446202D0236848
:100610001200040E4762E2D74AB0E0D7020E445EF1
:100620004450236E1200D388D38AD38C0F0EC16E30
:10063000F70E926EC10E936ED00E946E8096640E7D
:10064000576EB8EC00F080860C0E476E05EC02F099
:100650000A0E596E15EC01F00D0E596E15EC01F0F5
:10066000656A12EC02F02328D8A412000A0E596E13
:1006700015EC01F00D0E596E15EC01F07FEC02F057
:100680001200566ABBEC02F023520AE0040E576EC9
:10069000B8EC00F0562A5628F5E1010E236E120040
:1006A000236A1200CC0E666E01EC01F0440E666EF9
:1006B00001EC01F01200000EEA6E030EE96E5750D5
:1006C000E926EF50236E1200636A18EC01F0550E14
:1006D000666E01EC01F0646A080E646034D0686AEA
:1006E0006450080F676ED8B0682A5650666E66363A
:1006F00066366634F80B6724656E12EC02F0000E65
:10070000EA6E390EE96E6450E9262350EF6E000E52
:10071000EA6E390EE96E6450E926EF50666E01EC20
:1007200001F0000EEA6E390EE96E6450E926EF50D2
:10073000656E000EEA6E570EE96E6450E92665504C
:10074000EF6E642AC9D7C4EC02F023521BE0635059
:100750002F6E62502E6E61502D6E60502C6E5F5069
:100760002B6E5E502A6E5D50296E5C50286E5B5079
:10077000276E5A50266E5950256E5850246E575089
:10078000236E120031505F6E3050606E3650616ED5
:100790003750626E010E636E2F6E62502E6E615086
:1007A0002D6E60502C6E5F502B6E5E502A6E5D5029
:1007B000296E5C50286E5B50276E5A50266E595039
:1007C000256E5850246E5750236E1200656A12EC45
:1007D00002F02350236E12007BEC02F0566A6AECA2
:1007E00002F0010E566E6AEC02F0010E566E6AECD3
:1007F00002F0566A6AEC02F0060E566E6AEC02F0DF
:10080000656A12EC02F02350566E6AEC02F0010E9B
:10081000656E12EC02F02350566E6AEC02F01AEC90
:1008200002F0120013EC03F0ECEC03F09EAAFED7EA
:10083000DDEC02F02350466E576A5BEC03F0235266
:100840000FE1010E576E5BEC03F0235201E1FF0054
:10085000010E576E5BEC03F02304D8B4ECEC03F00C
:10086000576A5BEC03F02304E1E1010E576E5BEC89
:1008700003F023520AE0230413E0020E236201D0A6
:100880001AD0030E2362D2D72BD07BEC02F07FEC80
:1008900002F02350566E6AEC02F01AEC02F0C6D752
:1008A0007BEC02F0E6EC03F02350566E6AEC02F0AB
:1008B0001AEC02F0BBD718EC01F052EC03F07BEC21
:1008C00002F041EC03F0230405E1010E566E6AECE0
:1008D00002F003D0566A6AEC02F01AEC02F0A6D7D6
:1008E000020E576E5BEC03F02350566E64EC03F07F
:1008F0002F50536E2E50526E2D50516E2C50506E04
:100900002B504F6E2A504E6E29504D6E28504C6E13
:1009100027504B6E26504A6E2550496E2450486E23
:100920002350476E000E556E470E546E7BEC02F05E
:10093000020E576E5BEC03F02350566E6AEC02F029
:10094000466A0D0E46600CD05550EA6E5450E96E62
:10095000544A552AEF50566E6AEC02F0462AF1D7F7
:100960001AEC02F063D7416A000E426E12EF04F0F7
:10097000EACF01F0E9CF02F002C0E9FF01C0EAFFCF
:02098000110064
:020000040030CA
:0E000000FF38FEFEFFFDFAFFFFFFFFFFFFFFD0
:00000001FF