:400000007D7F2E30303030307E3030307E3030307E3030307E3030307E3030307E3030307D75E17E7E3030307D77C97E7D77CA7E7D788A7E7E3030307D7A727E7D7A737EA2
:400040007E3030307E3030307E3030307D7E047E7E3030307E3030307E3030307E3030307E3030307E30303030303030303030303030303030303030303030303030303005
:400080003030303030303030303030303030303030303030303030303030303030303030303030303030303030303030303030303030303030303030303030303030303040
:4000C0003030303030303030303030303030303030303030303030303030303030303030303030303030303030303030303030303030303030303030303030303030303000
:4001000030303030303030303030303030303030303030303030303030303030303030303030303030303030303030303030303030303030303030303030303030303030BF
:40014000303030303030303030303030303030303030303030303030303030303030303030303030303030303030303030303030303030303030303030303030303030307F
:4073C00030303030303030303030303030303030303030303030303071106200006201FF70EF6203FF620200711062020062030070EF62010071106204406205BF70EF6287
:4074000007BB620644711062060062070070EF62050071106208006209FF70EF620BFF620A007110620A00620B0070EF6209007110620C80620D7F70EF620F7F620E007189
:4074400010620E00620F0070EF620D0071106210046211FB70EF6213EF621214711062120062130070EF621100711062140062150070EF6217006216007110621600621731
:407480000070EF621500711062180062190070EF621B00621A007110621A00621B0070EF6219007110621C00621D0070EF621F00621E007110621E00621F0070EF621D0096
:4074C0007F6028660063056500E600E700D600B001B100B200B333B433B500B600B865B900BA10BB33BC33BD00BE08C000C100C220C333C433C500C600C855C900CA30CBDD
:4075000033CC33CD00CE006C006D006E006F002300212722133300312732133F003D003E003B0039003A004B0049FF4A014F004DFF4E002F002D002E002B0029002A00FF22
:4075400061006900600062006733683363006600D100D300D000D200E130E200DF00DE01DD00E7002061211522403061311532403C053DE23E40381D39023A4648014917CD
:407580004A404C214D374E402C052DC22E40281D29022A40FF43E1017F41E1FE7F4323017F4123FE7F60217F60227F5D227F71404F5D22085D23084123FE71105D21086278
:4075C000210070EF5D205D22085200602271105202602170EF520160231838FD703F71807F7E43E10443E1087F41E1FB41E1F77F71102101A00743281070EF7F4128EF70CB
:40760000EF7F2901602B602F91287F412BFE412FFE7F60297F5D2B7F5D2E7F5D2F7F210171103901A0064128EF800443281070EF7F082101A00643E108800441E1F718215B
:4076400002A00643E104800441E1FB7F303132333435363738394142434445460867676767210FFFE7900F18210FFFE090087F4B9FEA5B9FE77F492B10AFFC60297F492FFE
:4076800008AFFC5D2E7F5D2F082108B00418800B5D2E4B1821A0B0034B7F50007F5D2F21E8082108B0071829014B80071821E04B5D2E7F60D35200A0069FBB758FF8703FCF
:4076C00071807F62D3074F52FBA01A7BFB52FC59FD60D35200492B10AFFC60294F62D30777FD8FE4703F71807F71404F3DFA00B0063DFB00A01D1052FC59FD28492B10AFAF
:40770000FC60292007FD010FFC0017FB011FFA008FDB703F71807F081028A00B9F58201875DFF5748FF238FE7F500D9F49500A9F457F62D00055120062D000550F00260E6D
:407740000062D0005532007F62D000510E21017F62D000510E21F0260E0F7F62D000510F7F62D000501202325C62D3005200B0041080333900B01175763252003C320FBF63
:40778000F310560000801F107576323C320FAFF35200A0123900BFF156000076323C320FB00455320F20103D0000B00B2057005000703F71807F205000703F71807F62D004
:4077C00000501202325C50007F7E08105DD308580F5D2F082108B00418805E1821E0A0122C0E492E002120A050412FFE432F0180485D2E470E01B041392AB0142E0E01623E
:40780000D300703F7180561200703F7100802A3901C02662D3003C0F0FC011703F7180561200703F71002E0E10800E703F71805412703F7100755A0F1860D320187E43E1F8
:40784000107F41E1EF7F4333017F4133FE7F60317F60327F5D327F71404F5D32085D33084133FE71105D310862310070EF5D305D32085200603271105202603170EF520109
:4078800060331838FD703F71807F7E43E14043E1807F41E1BF41E17F7F71102101A00743381070EF7F4138EF70EF7F2901603B603F91287F413BFE413FFE7F60397F5D3B07
:4078C0007F5D3E7F5D3F7F210171103901A0064138EF800443381070EF7F082101A00643E180800441E17F182102A00643E140800441E1BF7F3031323334353637383941EC
:4079000042434445460867676767210FFFE7900F18210FFFE090087F4B9FEA5B9FE77F493B10AFFC60397F493F08AFFC5D3E7F5D3F082108B00418800B5D3E4B1821A0B0E9
:40794000034B7F50007F5D3F21E8082108B0071829014B80071821E04B5D3E7F60D35200A0069FBB758FF8703F71807F62D3074F52FBA01A7BFB52FC59FD60D35200493BF7
:4079800010AFFC60394F62D30777FD8FE4703F71807F71404F3DFA00B0063DFB00A01D1052FC59FD28493B10AFFC60392007FD010FFC0017FB011FFA008FDB703F71807F67
:4079C000081028A00B9F58201875DFF5748FF238FE7F500D9F49500A9F457F62D00055220062D00055110026100062D0005533007F62D000511021017F62D000511021F0F0
:407A000026100F7F62D00051117F62D000502202335C62D3005200B0041080333920B01175763352003C330FBFF310560000801F107576333C330FAFF35200A0123920BF13
:407A4000F156000076333C330FB00455330F20103D0000B00B2057005000703F71807F205000703F71807F62D000502202335C50007F7E08105DD30858115D3F082108B0F8
:407A80000418805E1821E0A0122C10493E002120A050413FFE433F0180485D3E471001B041390DB0142E100162D300703F7180562200703F7100802A3920C02662D3003C50
:407AC000110FC011703F7180562200703F71002E1010800E703F71805422703F7100755A111860D320187E43DF087F41DFF77F434B017F414BFE7F60495B604D7F604A5BDF
:407B0000604E7F5D4E5C5D4A7F71404F5D4E085D4A085D4B08414BFE71105D490862490070EF5D4C5D4E085D485D4A085200604E5201604A71105203604970EF5202604B8C
:407B4000182038FC703F71807F500180035000714062D0002900A006260D7F80042E0D80510D600C703F71807F714062D000360D80510D600C703F71807F714062D0005107
:407B80000D732180A0035001703F71807F718070CF7C79D238005700507F718070CF7C79C03800572A507F718070CF7C79C03800718070CF7C79D23800571D507F718070DF
:407BC000CF7C79C0380070CF718062D00151007C790538005020718070CF7C791F380070CF718062D00151017C790538005020718070CF7C791F380070CF718062D0015170
:407C0000027C790538005020718070CF7C791F380070CF718062D00151037C79053800718070CF7C79D238005726507F718070CF7C79C03800718070CF7C79D238007D7C7B
:407C40004170CF7F718070CF7C759D3800718070CF7C78463800718070CF7C7B4D3800718070CF7C7AE73800718070CF7C77323800718070CF7C75E238005000718070CF34
:407C80007C76023800718070CF7C79DB3800718070CF7C788B38005000718070CF7C78AB38007101718070CF7C7AEF3800500070CF718062D0015303718070CF7C774838B7
:407CC000003900A0E1718070CF7C77613800644B39014B6D3180085B70CF62D000530118530051003900B00551013900A0AF70CF62D0005100580160D352003901B04770CF
:407D0000CF62D000510058014B01014B090060D35200718062D001530062D000510058014B01024B090060D3520062D0015301500070CF718062D00153035041718070CFA7
:407D40007C791F380070CF62D0005100580160D352003902B04770CF62D000510058014B01014B090060D35200718062D001530062D000510058014B01024B090060D3522A
:407D80000062D0015302500070CF718062D00153035042718070CF7C791F3800718070CF7C77323800718070CF7C79F138003900A049718070CF7C7A0A3800644B39014B8B
:407DC0006D3180085B70CF62D000530118530051003900B00551013900A01770CF62D0005100580160D35200393FB00671807C7B8D718070CF7C79DB38007D7CB87D7DFD2E
:407E00008000044008105D6C085D6D085D6E085D6F085DD0085DD3085DD4085DD50871807C7B693800500301005C508170CF60D3520039FFA00E70CF718062D001510301D0
:407E40000153037D7E4670CF1860D51860D41860D31860D018606F18606E18606D18606C20187E550D007C73D87C7E6D7F1070EF500067507457C17C7E885001675075574C
:407E8000407C7E8870EF207F7140380210084F56FC00D00456FC01182070EF62E30010082839FFA01F4F48FC01A003711054FD18207509001008284F59FD61001820750969
:407EC000008FD738FC703F71807F303030303030303030303030303030303030303030303030303030303030303030303030303030303030303030303030303030303030A9
:407F000045415359524144494F20776972656C65737320676174657761792076004E6F646520313A2000454F5400312E3000711062FA0062E38070EF5020285040285060C1
:407F40002841FEFB50804E5DD00862D00055FA014F5B010353F955F83A500600711051F960E851F860EA70EF1860D055F80055F900711062E00270EF62E3386271056275BB
:407F800005627905627D0550004E62D10762D30762D00062D50062D40071807C7E63711070EF62E000711062E00043E78070EF62E2007D7FB850087F62E338718070BF623B
:407FC000D10150004E50000808080862D00062D10750004E7D7C443030303030303030303030303030303030303030303030303030303030303030303030303030303030AA
:020000040010EA
:40000000FFFFFFFFFFFFFFFFFFFFFFFFFFFFFFFFFFFFFFFFFFFFFFFFFFFFFFFFFFFFFFFFFFFFFFFFFFFFFFFFFFFFFFFFFFFFFFFFFFFFFFFFFFFFFFFFFFFFFFFFFFFFFFFF00
:40004000FFFFFFFFFFFFFFFFFFFFFFFFFFFFFFFFFFFFFFFFFFFFFFFFFFFFFFFFFFFFFFFFFFFFFFFFFFFFFFFFFFFFFFFFFFFFFFFFFFFFFFFFFFFFFFFFFFFFFFFFFFFFFFFFC0
:020000040020DA
:02000000DCFA28
:00000001FF
