:020000040000FA
:0600000085EF0FF0120075
:0600080014EF0BF01200E2
:0600180082EF0BF0120064
:06002A0002005A1F000055
:10003000A200000002000000581F0000A000000005
:0400400002000000BA
:0C0044005EEC05F0FB0EDBCFF3FFDB06EB
:10005000F35000090AE0ACEC05F0FA0E17EC06F0DC
:10006000F3E1151CF1E1010E01D0000E8DEF05F05A
:100070005EEC05F03B0EE12402E3E168E652E16E3E
:10008000010EDB6A020EDB6AF90EDBCFF6FFFA0E19
:10009000DBCFF7FFFB0EDBCFF8FF0800F550DF6E7C
:1000A000DF5002E1B1EF04F0250EDF5C02E0A4EFC7
:1000B00004F0030EDB6A040EDB6A050EDB6A060E33
:1000C000DB6A070EDB6AC6EC04F02D0EDF5C0CE089
:1000D0002B0EDF5C09E0200EDF5C06E0230EDF5C08
:1000E00003E0300EDF5C1AE1DF50300A14E0130A3F
:1000F0000FE0030A0AE00B0A05E0060AE4E1030E3A
:10010000DB80E1D7030EDB82DED7030EDB84DBD797
:10011000030EDB86D8D7030EDB88D5D72A0EDF5C2B
:100120001BE1C2EC04F010EC05F010E0030EDB80E4
:1001300008680968130EDBCF0DF0140EDBCF0EF04C
:10014000A4EC0EF0040E06C0DBFF03D0130EF9EC96
:1001500004F0C6EC04F00BD0090EDB6A67EC05F086
:1001600003E0DBEC05F0FAD7090EF9EC04F0030E1E
:10017000DBB0DB982E0EDF5C1BE1C6EC04F02A0E30
:10018000DF5C0BE1C2EC04F010EC05F003E1130EB0
:100190004BEC05F0C6EC04F00BD0090EDB6A67EC03
:1001A00005F003E0DBEC05F0FAD7090E4BEC05F0A7
:1001B000680EDF5C07E1C6EC04F0680EDF5C1DE151
:1001C000030E18D0740EDF5C17E07A0EDF5C14E0CB
:1001D000480EDF5C06E0540EDF5C03E05A0EDF5C85
:1001E00002E1020E07D06C0EDF5C03E06A0EDF5CFA
:1001F00004E1010E9EEC05F0C9DBDF506E0A01E15F
:100200007FD31E0A01E192D1200A01E18FD13F0A7A
:1002100001E149D11A0A01E146D10D0A01E143D1B8
:10022000200A01E140D13A0A01E13DD1200A01E171
:100230003AD1260A01E135D10D0A01E132D11A0A7B
:1002400001E1D9D0200A4AE0300A1FE0460A0EE058
:10025000250A01E083D3D950F90FE96EFF0EDA20A9
:10026000EA6E010EEE5E000EEE5AEE5AACEC05F0B0
:10027000250EE66E95DB03E1151C01E169D3A8ECC0
:1002800005F001E26BD3DB2A69D3080EDB6A040EAA
:10029000DB50010806E2040EDB0470EC05F0DB50D5
:1002A0008BDB080EDB5009E0030EDB50010B05E190
:1002B00072DB01E04DD3080EDB6A64DBEFCFDFFFBA
:1002C00020EC06F003E1151C01E142D3A8EC05F097
:1002D00001E3DB2A60DB01E141D33AD3070EDB50B7
:1002E00002080FE1ECEC05F0030EB3EC05F00E0E86
:1002F000EECFDBFF0F0EEECFDBFF100EEECFDBFFFE
:1003000020D0F70EDBCF17F0F80EDBCF18F0020E7F
:10031000175E000E185AF70E17C0DBFFF80E18C054
:10032000DBFF17C0E9FF18C0EAFFA3EC05F0166A6F
:100330000E0E14C0DBFF0F0E15C0DBFF100E16C033
:10034000DBFF0E0EDBCFE6FF0F0EDBCFE6FF100E5E
:10035000DBCFE6FF7FEC0EF0E552E552E552130EDF
:1003600007C0DBFF140E08C0DBFF060EDB5005E004
:10037000130EE7EC05F001E26ADB0BEC06F002E29B
:10038000130E37DBCEEC05F006E0040EE7EC05F0CB
:1003900002E2050E2EDB030EDBB005D0FCDA01E035
:1003A000D7D2080EDB6A090EDB6A0E0EDBCFF6FF32
:1003B0000F0EDBCFF7FF100EDBCFF8FF0800F55074
:1003C000DF6EDF5014E011EC06F011E220EC06F0D5
:1003D00003E1151C01E1BCD2BBDB01E3DB2A090E02
:1003E000DB2AD9500E0FE96E000ECBDBE7D7D3DA4C
:1003F00001E1B4D2ADD2C6DA110EEECFDBFF120EA0
:10040000EDCFDBFF110EDBCFE6FF120EDBCFE6FFF9
:1004100071EC0EF0E552E552130EF3CFDBFF140E34
:10042000F4CFDBFF060EDB5004E0130ED0DB01E25D
:100430000EDB0BEC06F002E2130EDBDAAFDB05E0BD
:10044000040EC5DB02E2050ED4DA030EDBB005D0E4
:10045000A2DA01E07DD2080EDB6A090EDB6A110E1A
:10046000DBCFE9FF120EDBCFEAFFEFCFDFFFDF507C
:1004700014E0D7DB12E2E4DB03E1151C01E168D2F2
:1004800067DB01E3DB2A090EDB2A110EDB2ADBCF57
:10049000E9FF120EE8E3DB2AE6D77DDA01E15ED25E
:1004A00057D2030EDB8E070EDB0410E195DB040E42
:1004B0005ADB0A0EEECFDBFF0B0EEECFDBFF0C0E8E
:1004C000EECFDBFF0D0EEECFDBFF6CD0070EDB5067
:1004D00003082CE1030EDBAE0DD0B2DA020E76DAA1
:1004E000EFCF14F0156A166A176A14AE39D0156882
:1004F000166835D0F70EDBCF15F0F80EDBCF16F00F
:10050000020E155E000E165AF70E15C0DBFFF80E30
:1005100016C0DBFF15C0E9FF16C0EAFFEFCF14F0ED
:100520000A0E14C0DBFF0B0EDB6A38D0070EDB505F
:10053000020809E1030EDBAE04D059DB16AE10D081
:100540000ED055DB0DD0030EDBAE12D079DA020EE1
:100550003DDAF9DA166A176A15AE02D0166817681E
:10056000E2DA0C0E16C0DBFF0D0E17C0DBFF1AD04F
:10057000F70EDBCF16F0F80EDBCF17F0020E165E8B
:10058000000E175AF70E16C0DBFFF80E17C0DBFF80
:1005900016C0E9FF17C0EAFFD6DAC5DA0C0EDB6A2F
:1005A0000D0EDB6A060EDB5005E1010EF36E050E43
:1005B000F3CFDBFF150EDB6A160EDB6AD950370F5F
:1005C000146E000EDA20156E390E14C0DBFF3A0EE1
:1005D00015C0DBFF380EDB6A080EDB6A0A0EAEDAE6
:1005E000DF50780A12E0200A10E0280A0CE0200A06
:1005F0000AE03F0A06E00D0A02E0200A08E1020EC6
:1006000005D0080E03D0080EDF26100E97DA030E71
:10061000DBBE02D0DB92DB94DB50800B24E08ADA75
:10062000D890030EEB50000A08E6000EEE5C000EB8
:10063000EE58000EEE58000EEE5815E213DA0B6875
:100640000C680D680E6803EC0EF00A0E02C0DBFFAA
:100650000B0E03C0DBFF0C0E04C0DBFF0D0E05C04C
:10066000DBFF2D0E08D0030EDBA202D02B0E03D031
:10067000DBA408D0200EF36E170EF3CFDBFF150EB0
:10068000DB2A02D0170EDB6A050EDB5003E1B7D977
:1006900001E189D0420E146E1F0E156E000E166E0B
:1006A000070EDBCF17F0186A196A1A6A17C00BF029
:1006B00018C00CF019C00DF01AC00EF0D3D9D1EC4F
:1006C0000EF014500224F36E15500320F46E1650F1
:1006D0000420F86EF4CFF7FFF3CFF6FF0800090E01
:1006E000F5CFDBFF580EDF5C0FE1610EF36E090EF4
:1006F0007BD90AE3200E146E090EDBCFE7FF1450FE
:10070000E75E090EE7CFDBFF070EDBCF14F0156ABB
:10071000166A176A0FDA14C00BF015C00CF016C079
:100720000DF017C00EF0EECF06F0EECF07F0EECFD3
:1007300008F0EFCF09F0D1EC0EF009C0EDFF08C0D2
:10074000EDFF07C0EDFF06C0EFFF390EDBCFE9FF7D
:10075000DB063A0EDBCFEAFF01E2DB06090EDBCF58
:10076000EFFF150EDB2A4BD995E1030EDBA61DD05A
:100770006F0EDF5C06E1C1D918E3150EDB285BDAEA
:1007800014D0780EDF5C09E0580EDF5C06E0620EE4
:10079000DF5C03E0420EDF5C08E1020EF36E160E32
:1007A000F3CFDBFF02D0150EDB6A030EDB50100B1C
:1007B0000EE0040EDBCF14F0050EDB50D88014548D
:1007C00006E2060EDB5003E1040EDB5034DA95D965
:1007D0000AE2050EDBCFE7FF150EDB50E75E050EE4
:1007E000E7CFDBFF02D0050EDB6A040EDBCF14F08F
:1007F000160E45D9D880145414E2160EDBCFE6FF4E
:10080000150EDBCFE6FF040EDBCFE6FF050EDB5057
:10081000E552E75CE552D880E754E552D880E754CA
:100820005FD9030EDB50010B0BE1080EDB5008E033
:10083000B2D801E08DD0080EDB50BED8080EDB6ABE
:10084000170EDB5007E088D9170EF1D903E1151C0C
:1008500001E17ED0160EDB5016E07ED9300EE66E3A
:100860009FD802E1151C74E077D9DFCFE6FF84EC56
:100870000DF0E552E552E552F4CF15F00001F31CFE
:1008800002E1151C65E0050EDBCF14F0160EDB50FF
:10089000D880145409E2050EDBCFE7FF160EDB50BB
:1008A000E75E050EE7CFDBFF300EE66E050ECBD917
:1008B0004FE1390EDB2ADBCFE9FF3A0E01E3DB2AF9
:1008C000DBCFEAFF090EEFCFDBFFDB500EE044D9B0
:1008D000090EADD902E1151C3BE0390EDB2ADBCF56
:1008E000E9FF3A0EEDE3DB2AEBD755D831E1160EDE
:1008F000DBCFE6FF080EC3D8E552E7245DD82ED043
:10090000070EDB50030A1CE0010A14E0030A07E0AB
:100910007BD9DBCFEEFF020EDBCFEDFF1FD0F5D88A
:10092000196A17AE02D0186819682CD8BCD819C03B
:10093000EEFF14D0EAD817BE186824D8B4D80ED069
:1009400063D9DBCFEFFF0AD07BD905E1151C03E1AA
:10095000F368F46810D0FCD801E3DB2A79D94DEFB5
:1009600000F0010EDBCF14F0020EDBCF15F014C047
:10097000F3FF15C0F4FF3B0EE15C02E2E16AE552D1
:10098000E16ECBD029D9020EB3EF05F061D9080092
:10099000F550DF6E1200200EE66E080E23EF06F013
:1009A00084EC0DF0E552E552E552F3CF14F0F4CFAC
:1009B00015F00001F31C1200146E156AD950010FD6
:1009C0004DD91450EE261550ED221200185E000E7F
:1009D000195AF70E18C0DBFFF80E19C0DBFF18C05C
:1009E000E9FF19C0EAFF1200DBCFF4FFF350F45C1B
:1009F0001200DB50E76E040EE7CFDBFF12000A0E99
:100A0000DBCF14F00B0EDBCF15F00C0EDBCF16F0A6
:100A10000D0EDBCF17F01450151016101710120022
:100A2000130EEECFDBFF140EEDCFDBFF130EDBCF8B
:100A300014F0140EDBCF15F00001800E1514120017
:100A4000F70EDBCF18F0F80EDBCF19F01200050E11
:100A5000DB50E66ED950130F01D9E552E750EE6E28
:100A6000ED6A12000A0EDBCF06F00B0EDBCF07F0AB
:100A70000C0EDBCF08F00D0EDBCF09F01200DBCF40
:100A8000E6FF150EDBCFE6FF050EDB50E552E7244F
:100A9000E552E7241200DB50CED8010EF36E060EAD
:100AA000F3CFDBFF1200EE50EFCFEAFFE96E16C086
:100AB000EEFF17C0EEFF18C0EEFF1200D9CFE6FF21
:100AC000DACFE6FFE1CFD9FFE2CFDAFF1200DFCFC6
:100AD000E6FFE66A63EC0FF0E552E552F3501200D0
:100AE000E76E080EE7CFDBFF1200EECF14F0EECF7B
:100AF00015F0EFCF16F0176A1200050EDBCF14F0D9
:100B0000150EDB50D88014541200010EDBCF16F006
:100B1000020EDBCF17F0186A1200E552E5CFDAFFBC
:100B2000E7CFD9FF12000A0E14C0DBFF0B0E15C071
:100B3000DBFF1200D9500A0F2EEF06F0F36E070EFE
:100B4000F3CFDBFF1200EECF14F0EFCF15F0120061
:100B5000010EDB2A020E1200FC0EDBCFE6FFFD0EBB
:100B6000DBCFE6FF1200145E000E155AF70E14C01C
:100B7000DBFFF80E15C0DBFF14C0E9FF15C0EAFF6C
:100B80001200DA20EA6EEF2AEECFF6FF000EEF2217
:100B9000EECFF7FFEF22EECFF8FF1200040EDBCF0F
:100BA000E6FF130EDB50E552E75C9ADFDB5004DF13
:100BB000060EDB501200090EDB500A0DF350DF2445
:100BC000D00FE76E090EE7CFDBFFC6EF04F0DB5076
:100BD000F36E050EF4EF04F0F70EDBCF14F0F80E11
:100BE000DBCF15F01200DFCFE6FFD0EF04F028DFF7
:100BF000030EECDE75EF05F022EC00F0E552E55255
:100C0000E552E55200091200BDDEEE50EFCFEAFFDB
:100C1000E96E010E1200130EDB50F36E040EF4EFBA
:100C200004F0040EDB50F36E090EF4EF04F0DBCF9A
:100C3000E6FFD0EF04F0E76E050EE7CFDBFF120012
:100C40008BDFF3EF05F0DBCFE6FF86DFFCEF05F08F
:100C5000D950F90FE96EFF0EC1EF05F0E96E000EF5
:060C6000DA20EA6E12002A
:0A0C6600D9CFE6FFE1CFD9FFE65237
:100C700000019B69E66A3BEC0EF0E552DF6EFF0E69
:100C8000DF5C06E1E66AE66A4BEC0EF0E552E552FF
:100C9000E552E552E7CFD9FF12001200D9CFE6FFA7
:100CA000E1CFD9FF070EE126060EDB6AB60EE66E2F
:100CB000190EE66E000EE66E38EC0DF0E552E552C8
:100CC000E552940EE66E190EE66E000EE66E38ECF6
:100CD0000DF0E552E552E552720EE66E190EE66E23
:100CE000000EE66E38EC0DF0E552E552E552E66A8C
:100CF0003BEC0EF0E552E76E050EE7CFDBFF060E8C
:100D0000DBCF14F0050EDB50E76E1418E8AE02D00E
:100D1000E73402D0E750145C38E2040EE126060EF8
:100D2000DBCFE6FF48D8EECF14F0EECF15F0EECFD4
:100D300016F0EECF17F0EECF18F0196E050EE15E4B
:100D4000195014C0DFFF010E15C0DBFF020E16C0E4
:100D5000DBFF030E17C0DBFF040E18C0DBFFD9CF8B
:100D6000E9FFDACFEAFFEECFE6FFEECFE6FFEECF08
:100D7000E6FFEECFE6FFEECFE6FFDED8146E050EFF
:100D8000E15E1450060EDB2ABAD7700EE66E190E1D
:100D9000E66E000EE66E38EC0DF0E552E552E552D7
:100DA000070EE15C03E200D0E16AE552E16EE55234
:100DB000E7CFD9FF1200D9CFE6FFE1CFD9FF060E6A
:100DC000E126FE0EDB50040DF350040FE76E050E16
:100DD000E7CFDBFFDBCFE6FF3BEC0EF0E552DF6E4B
:100DE000AA0EDF5C1FE1D9CFE9FFDACFEAFFEECF31
:100DF00014F0EECF15F0EECF16F0EECF17F0EFCFE8
:100E000018F0D9CFE9FFDACFEAFFED50ED5018C066
:100E1000EDFF17C0EDFF16C0EDFF15C0EDFF14C0CC
:100E2000EFFF48D0050EDB2ADBCFE6FF3BEC0EF0F0
:100E3000E552E76E010EE7CFDBFF050EDB2ADBCFC5
:100E4000E6FF3BEC0EF0E552E76E020EE7CFDBFF6C
:100E5000050EDB2ADBCFE6FF3BEC0EF0E552E76E3A
:100E6000030EE7CFDBFF050EDB2AFE0EDB50E76E3D
:100E7000040EE7CFDBFFD9CFE9FFDACFEAFFEECFF1
:100E800014F0EECF15F0EECF16F0EECF17F0EFCF57
:100E900018F0D9CFE9FFDACFEAFFED50ED5018C0D6
:100EA000EDFF17C0EDFF16C0EDFF15C0EDFF14C03C
:100EB000EFFF00D0060EE15C02E2E16AE552E16E6E
:100EC000E552E7CFD9FF1200D9CFE6FFE1CFD9FF36
:100ED000E652FE0EDB50040DF350040FDF6EFA0EE7
:100EE000DBCFE6FFDFCFE6FF4BEC0EF0E552E5523D
:100EF000DF2AFB0EDBCFE6FFDFCFE6FF4BEC0EF089
:100F0000E552E552DF2AFC0EDBCFE6FFDFCFE6FF3E
:100F10004BEC0EF0E552E552DF2AFD0EDBCFE6FF8B
:100F2000DFCFE6FF4BEC0EF0E552E55200D0E55284
:100F3000E552E7CFD9FF1200D9CFE6FFE1CFD9FFC5
:100F4000E652FE0EDB50DF6EDFCF14F0156A14BEE2
:100F5000156814C0E6FF15C0E6FF680EE66E190EB0
:100F6000E66E000EE66E38EC0DF0166E050EE15ED4
:100F70001650FB0EDBCF14F0156A14BE156814C0B2
:100F8000E6FF15C0E6FFFA0EDBCF16F0176A16BEB5
:100F9000176816C0E6FF17C0E6FF5B0EE66E190E77
:100FA000E66E000EE66E38EC0DF0186E070EE15E90
:100FB0001850FC0EDBCF14F0156A14BE156814C06F
:100FC000E6FF15C0E6FF550EE66E190EE66E000E42
:100FD000E66E38EC0DF0166E050EE15E1650FD0E55
:100FE000DB0401E100D0E552E552E7CFD9FF120062
:100FF000E7EC0BF000D01200D9CFE6FFE1CFD9FF2C
:10100000100EE126020EDB6A040EDB6AF36E050E9B
:10101000F3CFDBFF0B0EDB6A0C0EDB6A0F0EDB6817
:10102000E66A3BEC0EF0E552E76E010EE7CFDBFF20
:10103000020EDBCF14F0010EDB50E76E1418E8AEA1
:1010400002D0E73402D0E750145C01E3DCD0030E99
:10105000DB6A040EE126020EDBCFE6FFACDEEECF4C
:1010600014F0EECF15F0EECF16F0EECF17F0EECF76
:1010700018F0196E050EE15E1950060E14C0DBFF64
:10108000070E15C0DBFF080E16C0DBFF090E17C0E8
:10109000DBFF0A0E18C0DBFF080EDBCFE6FF800E79
:1010A000146EFE0EDB5014C0E7FF070B04E0E742AE
:1010B000E79EE806FCE1E750E552E71403E0010E85
:1010C000DF6E01D0DF6ADF503DE0060EDBCF14F0AB
:1010D000FD0EDB50E76E1418E8AE02D0E73402D004
:1010E000E750145C2FE2060EDBCF14F00B0EDB5042
:1010F000E76E1418E8AE02D0143403D0E750D8805D
:10110000145405E2010EF36E030EF3CFDBFF0B0E5A
:10111000DB50F36E060EDB50F35C14E1070EDBCF01
:1011200014F00C0EDB50E76E1418E8AE02D0143445
:1011300003D0E750D880145405E2010EF36E030E7D
:10114000F3CFDBFFDF5045E0FD0EDB50F36E060E04
:10115000DB50F35C3EE1070EDBCF14F0FC0EDB50FE
:10116000E76E1418E8AE02D0143403D0E750D880EC
:1011700014542FE3060EDBCF14F00B0EDB50E76E9A
:101180001418E8AE02D0143403D0E750D8801454B9
:1011900005E2010EF36E030EF3CFDBFF0B0EDB5007
:1011A000F36E060EDB50F35C14E1070EDBCF14F098
:1011B0000C0EDB50E76E1418E8AE02D0143403D0E6
:1011C000E750D880145405E2010EF36E030EF3CFFE
:1011D000DBFF030EDB5014E0D9500B0FE96EDACFC2
:1011E000EAFF060EDBCFEEFF070EDBCFEEFF080EA9
:1011F000DBCFEEFF090EDBCFEEFF0A0EDBCFEEFFFB
:10120000020EDB2A15D70F0EDB5000019B5D1BE0A1
:101210000F0EDB50FF0817E0010EF36E040EF3CF44
:10122000DBFF0E0EDBCFA1F00B0EDBCF97F00C0E29
:10123000DBCF98F00D0EDBCF99F00E0EDBCF9AF0DE
:101240000F0EDBCF9BF0040EDB50146E100EE15C32
:1012500003E200D0E16AE552E16E1450E552E7CFB7
:04126000D9FF1200A0
:0C126400D9CFE6FFE1CFD9FF070EE1264D
:10127000050EDB6AA1D80001A15102E0000E01D0E9
:10128000010EE8B08088E8A08098060E0001805D1D
:1012900055E12D0E825D4AE13A0E855D47E1070E6C
:1012A000806F300E815D010FE76E040EE7CFDBFF2C
:1012B000300E845D146E300E835D0A0DF3501424DD
:1012C000E76E010EE7CFDBFF300E875D146E300E48
:1012D000865D0A0DF3501424E76E020EE7CFDBFFA4
:1012E000300E8A5D146E300E895D0A0DF3501424A1
:1012F000E76E030EE7CFDBFFDBCFE6FF020EDBCFAF
:10130000E6FF010EDBCFE6FF040EDBCFE6FFCAEC03
:101310000BF0E552E552E552E552010EF36E050E73
:10132000F3CFDBFF0001010EA06F08D04F0E815DEF
:1013300005E14B0E825D02E1070E806F0001A051B6
:1013400013E0A06B3DEC0CF0E66E45EC0CF0E66EA5
:1013500049EC0CF0E66EFCEC07F0E552E552E55284
:10136000E76E060EE7CFDBFF0001805105E13DECA3
:101370000CF0010801E146D90001805106E1050E9B
:10138000DB5003E0050EDB6AF1D80001805109E172
:10139000060EDB5006E0060EDB6AA1C0E6FF03D9AD
:1013A000E55269D7070EE15C02E2E16AE552E16EBF
:1013B000E552E7CFD9FF1200D9CFE6FFE1CFD9FF41
:1013C000E652DF6AD388D38AD38C0F0EC16E010E2A
:1013D000806E816A040E826EEF0E926E010E936E25
:1013E000DE0E946EF19EDF50DF2A146E050EE76E5E
:1013F0001418E8AE02D0E73402D0E750145C0DE2D6
:101400000A0EE66E4CEC0FF0E55280980A0EE66E7E
:101410004CEC0FF0E5528088E6D7940EE66E30EC87
:101420000FF0E552E30EE66E0B0EE66E14EC0FF0D5
:10143000E552E552330EE66EE66A7C0EE66EC6ECC9
:101440000DF0E552E552E5520001806B8C6BF28E97
:10145000F28CDFEC0BF0F292F2949E900001A16B03
:1014600033EC06F0E552E552E7CFD9FF1200D9CFB1
:10147000E6FFE1CFD9FFFE0EDB503E0A1DE0020A77
:1014800014E0750A0BE00A0A01E01CD00001800597
:1014900002E0805102E1020E806F4FD0020E000187
:1014A000805D02E1030E806F48D0040E0001805D74
:1014B00002E1050E806F41D0050E0001805D02E162
:1014C000060E806F00018051030A2EE0020A26E01A
:1014D000070A1DE0010A1BE0020A06E0070A01E014
:1014E0002BD0040E806F29D08C518C2BE96EEA6AC8
:1014F000E9BEEA68810EE926000EEA22FE0EDBCF85
:10150000EFFF0B0E8C5D02E1070E806F16D0FE0E12
:10151000DB50440802E1806B8C6B0FD0FE0EDB5079
:101520004E0802E1806B8C6BFE0EDB503F0804E13D
:10153000E7EC0BF00001806B00D0E552E7CFD9FF5C
:1015400012000001805111E1480EE66E190EE66EA0
:10155000000EE66E38EC0DF0E552E552E552000162
:10156000010E806F800501E1FDD71200EADF020E57
:101570000001805D01E016D02D0EE66E190EE66EBC
:10158000000EE66E38EC0DF0E552E552E552120E13
:10159000E66E190EE66E000EE66E38EC0DF0E552C2
:1015A000E552E5521200D9CFE6FFE1CFD9FFC9DFFE
:1015B000020E0001805D01E021D0FE0EDBCF14F0B1
:1015C000156A14BE156814C0E6FF15C0E6FFF50ED7
:1015D000E66E180EE66E000EE66E38EC0DF0166E36
:1015E000050EE15E1650DC0EE66E180EE66E000E7D
:1015F000E66E38EC0DF0E552E552E552E552E7CFE4
:10160000D9FF12009EDF020E0001805D01E00BD0C9
:10161000AF0EE66E180EE66E000EE66E38EC0DF0BC
:10162000E552E552E5521200DACFE4FFE2CFDAFFED
:10163000E9CFE4FFEACFE4FFF6CFE4FFF7CFE4FF22
:10164000F8CFE4FFF5CFE4FFF3CFE4FFF4CFE4FFFE
:10165000FACFE4FFFBCFE4FF00EE00F0140EE80445
:1016600003E3EECFE4FFFBD700EE14F0070EE8042F
:1016700003E3EECFE4FFFBD7E652F2A412D0E30E71
:10168000E66E0B0EE66E14EC0FF0E552E55296ECAA
:101690000BF041EC0CF0000903E10001010EA06F1A
:1016A000F2949EAA06D0F5EC0EF0E66EE0DEE5526E
:1016B0009E9A00D0E55200EE1AF0070EE80403E30C
:1016C000E5CFEDFFFBD700EE13F0140EE80403E3C3
:1016D000E5CFEDFFFBD7E5CFFBFFE5CFFAFFE5CF89
:1016E000F4FFE5CFF3FFE5CFF5FFE5CFF8FFE5CF5A
:1016F000F7FFE5CFF6FFE5CFEAFFE5CFE9FFE5CF5E
:10170000DAFF1100D8CFE4FFE0CFE4FFE46EDACFD8
:10171000E4FFE2CFDAFFE65200D0E552E5CFDAFF90
:0C172000E550E5CFE0FFE5CFD8FF10005A
:04172C0000019F2BEE
:101730003C0EE76E9F19E8AE02D0E73402D0E750C6
:101740009F5D02E39E2B9F6B3C0EE76E9E19E8AEF9
:1017500002D0E73402D0E7509E5D02E39D2B9E6BE2
:10176000180EE76E9D19E8AE02D0E73402D0E750BC
:101770009D5D0EE39D6B9C2B060EE76E9C19E8AEFB
:1017800002D09C3503D0E750D8809C5501E29C6B79
:1017900000D01200D9CFE6FFE1CFD9FFFE0EDBCF9C
:1017A0009CF0FD0EDBCF9DF0FC0EDBCF9EF0FB0E20
:1017B000DBCF9FF000D0E552E7CFD9FF1200000148
:1017C0009C6B2D0E9F6F9E6B9D6B00D012009CC07A
:1017D00014F0156A14BE156814C0E6FF15C0E6FFC4
:1017E000AB0EE66E180EE66E000EE66E38EC0DF0EF
:1017F000166E050EE15E16509DC014F0156A14BEFB
:10180000156814C0E6FF15C0E6FFA50EE66E180EBB
:10181000E66E000EE66E38EC0DF0166E050EE15E1B
:1018200016509EC014F0156A14BE156814C0E6FF69
:1018300015C0E6FF9F0EE66E180EE66E000EE66E11
:1018400038EC0DF0166E050EE15E16509FC014F0D8
:10185000156A14BE156814C0E6FF15C0E6FF9A0E9F
:10186000E66E180EE66E000EE66E38EC0DF0166EA3
:10187000050EE15E165000D0120000019E5100D00E
:10188000120000019F5100D0120000019D5100D0B4
:0A189000120000019C5100D012006C
:06189A0025303264002538
:1018A0003032642E00253032643A0025642D004722
:1018B0004554202F6D6963726F2F74696D652E70AA
:1018C000687020485454502F312E310A486F737479
:1018D0003A206C696B612E62650A0A0048545450C4
:1018E0002F312E310A486F73743A206C696B612E68
:1018F00062650A0A00474554202F6D6963726F2F95
:1019000064656275672E7068703F6D73673D25640E
:1019100020002220485454502F312E310A486F7332
:10192000743A206C696B612E62650A0A004745545F
:10193000202F6D6963726F2F64656275672E706802
:10194000703F6D73673D3300436C696B612E626558
:101950002F38300A00256220202000253032643ADA
:1019600024303264202020002530336420202000E1
:101970000A002D2D2D2D2D2D2D2D2D2D2D2D2D2DE7
:101980002D2D2D2D2D2D2D2D2D2D2D2D2D2D2D2D87
:101990002D0A0D00496E6465782054696D6520201C
:1019A00020784D5457544653532020416374697630
:1019B0006974790A0D0053776974636820706F69E0
:1019C0006E74206F766572766965773A0A0D0A0D36
:0119D0000016
:0E19D2002A0EF66E000EF76E000EF86E000183
:1019E0000900F550926F0900F550936F03E192677B
:1019F00001D03DD00900F5508D6F0900F5508E6F74
:101A00000900F5508F6F09000900F550E96E0900D3
:101A1000F550EA6E090009000900F550906F0900C1
:101A2000F550916F09000900F6CF94F0F7CF95F0CB
:101A3000F8CF96F08DC0F6FF8EC0F7FF8FC0F8FF8D
:101A40000001905302E1915307E00900F550EE6E5A
:101A50009007F8E29107F9D794C0F6FF95C0F7FF19
:101A600096C0F8FF00019207000E935BBFD71200EB
:101A7000D9CFE6FFDACFE6FFE1CFD9FFE2CFDAFF39
:101A8000E652E652E652E652D950FB0F146EFF0EB4
:101A9000DA20156E14C0DEFFDD6EDECFE6FFDDCF8F
:101AA000E6FFFB0EDBCFE6FFFC0EDBCFE6FFFD0E15
:101AB000DBCFE6FFA2C0E6FFA3C0E6FF38EC00F0F4
:101AC000146E070EE15C02E2E16AE552E16E145029
:101AD000020EF3CFDBFF030EF4CFDBFF020EDBCFF2
:101AE00014F0030EDBCF15F014C0F3FF15C0F4FFA4
:101AF000040EE15C02E2E16AE552E16EE552E5CFF7
:081B0000DAFFE7CFD9FF120064
:081B0800D9CFE6FFDACFE6FFBA
:101B1000E1CFD9FFE2CFDAFFFB0EDBCF14F0FC0EF2
:101B2000DBCF15F00001800E15141AE1FB0EDBCFA0
:101B3000E9FFFC0EDBCFEAFFEECFF3FFEDCFF4FFC2
:101B4000EE2A000EEF22F3CFE9FFF4CFEAFFFD0EFD
:101B5000DBCFEFFFEF50156AF36E15C0F4FF10D026
:101B6000FB0EDB50FE0806E1FD0EDBCFE6FF93EC3B
:101B70000FF005D0FD0EDBCFE6FFAAEC0FF0E5522B
:0C1B8000E552E5CFDAFFE7CFD9FF1200F5
:041B8C00D9CFE6FFC8
:101B9000DACFE6FFE1CFD9FFE2CFDAFFAC6AAB6A7A
:101BA000FD0EDBB0AC88DBA202D0AC8CAB8CDBB41E
:101BB000AC8EDBA602D0AB8801D0AB8ADBA802D00A
:101BC000AC8401D0AC949E98DBAC02D09D8A01D04D
:101BD0009D9A9E9ADBAE02D09D8801D09D98FB0E07
:101BE000DB50AF6EAC8AAB8E949C948EAC50100BD5
:101BF00004E0AC50800B01E1948CE552E5CFDAFFB4
:061C0000E7CFD9FF12003E
:0A1C060006500B02F3CF02F0F4CFFA
:101C100003F00C02F3500326000EF420046E06506D
:101C20000D02F3500426000EF420056E06500E023D
:101C3000F350052607500B02F3500326F4500422FC
:101C4000000E052207500C02F3500426F450052222
:101C500007500D02F350052608500B02F3500426DE
:101C6000F450052208500C02F350052609500B02CF
:061C7000F35005261200EE
:0A1C7600D9CFE6FFE1CFD9FFFE0E43
:101C8000DB50A96EA69EA69CA680A85000D0E55267
:101C9000E7CFD9FF1200D9CFE6FFE1CFD9FFE65257
:101CA000DF6AA69CA6B2FED7FE0EDB50A96EFD0E23
:101CB000DB50A86EA69EA684F2AE03D0F29E010E63
:101CC000DF6E550EA76EAA0EA76EA682A694A6B2C8
:101CD000FED7DF5001E0F28EE552E552E7CFD9FFA3
:021CE0001200F0
:0E1CE200FE0EE3CFE9FFFF0EE3CFEAFFF36A49
:101CF000F46AEE5203E0F34AF42AFBD71200FF0E17
:101D0000E3CFF8FFE552FF0EE3CFF7FFE552FF0EFA
:101D1000E3CFF6FFE552E66AE66AE66A0900F552A5
:101D200009E0FD0EE32A05E1FE0EE32A02E1FF0EC3
:101D3000E32AF4D7FD0EE3CF07F0FE0EE3CF08F061
:081D4000FF0EE3CF09F01200D1
:081D480009C013F008C012F0FD
:101D500008500D02F4CF07F0F3CF06F009500E0241
:101D6000F4CF09F0F3CF08F00D02F3500726F4503A
:101D70000822E86A092212500E02F3500726F45096
:101D80000822E86A09220EAECAEF0EF01250085E71
:101D90001350095A13AE000C0D50085E0E50095A2C
:021DA000000C35
:0E1DA200056A046A036A026A200EE76ED89092
:101DB0000636073608360936023603360436053647
:101DC0000B50025C0C5003580D5004580E5005582F
:101DD00009E30B50025E0C50035A0D50045A0E508A
:0A1DE000055A062AE72EE4D7120088
:061DEA00D9CFE6FFDACFBD
:101DF000E6FFE1CFD9FFE2CFDAFFE652F20E0001B3
:101E0000A417ABAC03D0A491ABB0A481ABB4A485B0
:101E1000ABB2A487AE50DF6EDF50E552E552E5CF9E
:081E2000DAFFE7CFD9FF120041
:081E2800D9CFE6FFDACFE6FF97
:101E3000E1CFD9FFE2CFDAFFE652E652FC0EDBCF6C
:101E4000DEFFDBCFDDFF010EDB50D76EDF50D66E3D
:101E5000E552E552E552E5CFDAFFE7CFD9FF1200B0
:101E6000D9CFE6FFDACFE6FFE1CFD9FFE2CFDAFF45
:101E7000FD0EDB507F0BD56ED76AD66AF294FD0E4D
:101E8000DBAE02D0F28A01D0F29AD58EE552E5CFD0
:081E9000DAFFE7CFD9FF1200D1
:081E9800FF0EE3501C6EEF0E7B
:101EA00001D0F30EE76EE72E53EF0FF00C0E1B6E12
:101EB000E76AE72E59EF0FF01B2E58EF0FF01C2E9C
:061EC00051EF0FF01200CB
:0A1EC600F36AF46AFF0EE124E96EEE
:101ED000FF0EE220EA6EED6607D02F0EEF6404D00D
:0A1EE0003A0EEF6001D0F32A120061
:061EEA00000EF36E00EE95
:101EF00000F0020E01D81200EA6002D0EE6AFCD7B0
:0A1F0000F350E9601200EE6AFCD70E
:061F0A0011EE00F021EED3
:101F100000F0F86A019CE9EC0CF0ABEC0FF032EC4D
:061F200009F0FBD71200DE
:0A1F2600FF0EE350ACBA04D0AF6A1E
:101F3000AB8EAC8A949CACA2FED7AD6EF36EF46A05
:021F400012008D
:0E1F42003031323334353637383961626364FA
:031F5000656600C3
:021F5400120079
:021F5600120077
:021F5800000087
:021F5A00FEFF88
:020000040030CA
:0100010048B6
:010002000FEE
:010003001EDE
:01000500807A
:010006008079
:010008000FE8
:01000900C036
:01000A000FE6
:01000B00E014
:01000C000FE4
:01000D0040B2
:0200000400F00A
:100000000300000007003E01071E41011600FF002B
:00000001FF
