:020000040000FA
:06000000ECEF0CF0120011
:0600080029EF09F01200CF
:06001800ADEF09F012003B
:06002A000200401A000074
:10003000A900000002000000361A0000970000002E
:040040000A000000B2
:0C0044005EEC05F0FB0EDBCFF3FFDB06EB
:10005000F35000090AE0ACEC05F0FA0E17EC06F0DC
:10006000F3E1151CF1E1010E01D0000E8DEF05F05A
:100070005EEC05F03B0EE12402E3E168E652E16E3E
:10008000010EDB6A020EDB6AF90EDBCFF6FFFA0E19
:10009000DBCFF7FFFB0EDBCFF8FF0800F550DF6E7C
:1000A000DF5002E1B1EF04F0250EDF5C02E0A4EFC7
:1000B00004F0030EDB6A040EDB6A050EDB6A060E33
:1000C000DB6A070EDB6AC6EC04F02D0EDF5C0CE089
:1000D0002B0EDF5C09E0200EDF5C06E0230EDF5C08
:1000E00003E0300EDF5C1AE1DF50300A14E0130A3F
:1000F0000FE0030A0AE00B0A05E0060AE4E1030E3A
:10010000DB80E1D7030EDB82DED7030EDB84DBD797
:10011000030EDB86D8D7030EDB88D5D72A0EDF5C2B
:100120001BE1C2EC04F010EC05F010E0030EDB80E4
:1001300008680968130EDBCF0DF0140EDBCF0EF04C
:100140000BEC0CF0040E06C0DBFF03D0130EF9EC31
:1001500004F0C6EC04F00BD0090EDB6A67EC05F086
:1001600003E0DBEC05F0FAD7090EF9EC04F0030E1E
:10017000DBB0DB982E0EDF5C1BE1C6EC04F02A0E30
:10018000DF5C0BE1C2EC04F010EC05F003E1130EB0
:100190004BEC05F0C6EC04F00BD0090EDB6A67EC03
:1001A00005F003E0DBEC05F0FAD7090E4BEC05F0A7
:1001B000680EDF5C07E1C6EC04F0680EDF5C1DE151
:1001C000030E18D0740EDF5C17E07A0EDF5C14E0CB
:1001D000480EDF5C06E0540EDF5C03E05A0EDF5C85
:1001E00002E1020E07D06C0EDF5C03E06A0EDF5CFA
:1001F00004E1010E9EEC05F0C9DBDF506E0A01E15F
:100200007FD31E0A01E192D1200A01E18FD13F0A7A
:1002100001E149D11A0A01E146D10D0A01E143D1B8
:10022000200A01E140D13A0A01E13DD1200A01E171
:100230003AD1260A01E135D10D0A01E132D11A0A7B
:1002400001E1D9D0200A4AE0300A1FE0460A0EE058
:10025000250A01E083D3D950F90FE96EFF0EDA20A9
:10026000EA6E010EEE5E000EEE5AEE5AACEC05F0B0
:10027000250EE66E95DB03E1151C01E169D3A8ECC0
:1002800005F001E26BD3DB2A69D3080EDB6A040EAA
:10029000DB50010806E2040EDB0470EC05F0DB50D5
:1002A0008BDB080EDB5009E0030EDB50010B05E190
:1002B00072DB01E04DD3080EDB6A64DBEFCFDFFFBA
:1002C00020EC06F003E1151C01E142D3A8EC05F097
:1002D00001E3DB2A60DB01E141D33AD3070EDB50B7
:1002E00002080FE1ECEC05F0030EB3EC05F00E0E86
:1002F000EECFDBFF0F0EEECFDBFF100EEECFDBFFFE
:1003000020D0F70EDBCF17F0F80EDBCF18F0020E7F
:10031000175E000E185AF70E17C0DBFFF80E18C054
:10032000DBFF17C0E9FF18C0EAFFA3EC05F0166A6F
:100330000E0E14C0DBFF0F0E15C0DBFF100E16C033
:10034000DBFF0E0EDBCFE6FF0F0EDBCFE6FF100E5E
:10035000DBCFE6FFE6EC0BF0E552E552E552130E7B
:1003600007C0DBFF140E08C0DBFF060EDB5005E004
:10037000130EE7EC05F001E26ADB0BEC06F002E29B
:10038000130E37DBCEEC05F006E0040EE7EC05F0CB
:1003900002E2050E2EDB030EDBB005D0FCDA01E035
:1003A000D7D2080EDB6A090EDB6A0E0EDBCFF6FF32
:1003B0000F0EDBCFF7FF100EDBCFF8FF0800F55074
:1003C000DF6EDF5014E011EC06F011E220EC06F0D5
:1003D00003E1151C01E1BCD2BBDB01E3DB2A090E02
:1003E000DB2AD9500E0FE96E000ECBDBE7D7D3DA4C
:1003F00001E1B4D2ADD2C6DA110EEECFDBFF120EA0
:10040000EDCFDBFF110EDBCFE6FF120EDBCFE6FFF9
:10041000D8EC0BF0E552E552130EF3CFDBFF140ED0
:10042000F4CFDBFF060EDB5004E0130ED0DB01E25D
:100430000EDB0BEC06F002E2130EDBDAAFDB05E0BD
:10044000040EC5DB02E2050ED4DA030EDBB005D0E4
:10045000A2DA01E07DD2080EDB6A090EDB6A110E1A
:10046000DBCFE9FF120EDBCFEAFFEFCFDFFFDF507C
:1004700014E0D7DB12E2E4DB03E1151C01E168D2F2
:1004800067DB01E3DB2A090EDB2A110EDB2ADBCF57
:10049000E9FF120EE8E3DB2AE6D77DDA01E15ED25E
:1004A00057D2030EDB8E070EDB0410E195DB040E42
:1004B0005ADB0A0EEECFDBFF0B0EEECFDBFF0C0E8E
:1004C000EECFDBFF0D0EEECFDBFF6CD0070EDB5067
:1004D00003082CE1030EDBAE0DD0B2DA020E76DAA1
:1004E000EFCF14F0156A166A176A14AE39D0156882
:1004F000166835D0F70EDBCF15F0F80EDBCF16F00F
:10050000020E155E000E165AF70E15C0DBFFF80E30
:1005100016C0DBFF15C0E9FF16C0EAFFEFCF14F0ED
:100520000A0E14C0DBFF0B0EDB6A38D0070EDB505F
:10053000020809E1030EDBAE04D059DB16AE10D081
:100540000ED055DB0DD0030EDBAE12D079DA020EE1
:100550003DDAF9DA166A176A15AE02D0166817681E
:10056000E2DA0C0E16C0DBFF0D0E17C0DBFF1AD04F
:10057000F70EDBCF16F0F80EDBCF17F0020E165E8B
:10058000000E175AF70E16C0DBFFF80E17C0DBFF80
:1005900016C0E9FF17C0EAFFD6DAC5DA0C0EDB6A2F
:1005A0000D0EDB6A060EDB5005E1010EF36E050E43
:1005B000F3CFDBFF150EDB6A160EDB6AD950370F5F
:1005C000146E000EDA20156E390E14C0DBFF3A0EE1
:1005D00015C0DBFF380EDB6A080EDB6A0A0EAEDAE6
:1005E000DF50780A12E0200A10E0280A0CE0200A06
:1005F0000AE03F0A06E00D0A02E0200A08E1020EC6
:1006000005D0080E03D0080EDF26100E97DA030E71
:10061000DBBE02D0DB92DB94DB50800B24E08ADA75
:10062000D890030EEB50000A08E6000EEE5C000EB8
:10063000EE58000EEE58000EEE5815E213DA0B6875
:100640000C680D680E686AEC0BF00A0E02C0DBFF46
:100650000B0E03C0DBFF0C0E04C0DBFF0D0E05C04C
:10066000DBFF2D0E08D0030EDBA202D02B0E03D031
:10067000DBA408D0200EF36E170EF3CFDBFF150EB0
:10068000DB2A02D0170EDB6A050EDB5003E1B7D977
:1006900001E189D0210E146E1A0E156E000E166E31
:1006A000070EDBCF17F0186A196A1A6A17C00BF029
:1006B00018C00CF019C00DF01AC00EF0D3D938ECE8
:1006C0000CF014500224F36E15500320F46E1650F3
:1006D0000420F86EF4CFF7FFF3CFF6FF0800090E01
:1006E000F5CFDBFF580EDF5C0FE1610EF36E090EF4
:1006F0007BD90AE3200E146E090EDBCFE7FF1450FE
:10070000E75E090EE7CFDBFF070EDBCF14F0156ABB
:10071000166A176A0FDA14C00BF015C00CF016C079
:100720000DF017C00EF0EECF06F0EECF07F0EECFD3
:1007300008F0EFCF09F038EC0CF009C0EDFF08C06D
:10074000EDFF07C0EDFF06C0EFFF390EDBCFE9FF7D
:10075000DB063A0EDBCFEAFF01E2DB06090EDBCF58
:10076000EFFF150EDB2A4BD995E1030EDBA61DD05A
:100770006F0EDF5C06E1C1D918E3150EDB285BDAEA
:1007800014D0780EDF5C09E0580EDF5C06E0620EE4
:10079000DF5C03E0420EDF5C08E1020EF36E160E32
:1007A000F3CFDBFF02D0150EDB6A030EDB50100B1C
:1007B0000EE0040EDBCF14F0050EDB50D88014548D
:1007C00006E2060EDB5003E1040EDB5034DA95D965
:1007D0000AE2050EDBCFE7FF150EDB50E75E050EE4
:1007E000E7CFDBFF02D0050EDB6A040EDBCF14F08F
:1007F000160E45D9D880145414E2160EDBCFE6FF4E
:10080000150EDBCFE6FF040EDBCFE6FF050EDB5057
:10081000E552E75CE552D880E754E552D880E754CA
:100820005FD9030EDB50010B0BE1080EDB5008E033
:10083000B2D801E08DD0080EDB50BED8080EDB6ABE
:10084000170EDB5007E088D9170EF1D903E1151C0C
:1008500001E17ED0160EDB5016E07ED9300EE66E3A
:100860009FD802E1151C74E077D9DFCFE6FFEBECEF
:100870000AF0E552E552E552F4CF15F00001F31C01
:1008800002E1151C65E0050EDBCF14F0160EDB50FF
:10089000D880145409E2050EDBCFE7FF160EDB50BB
:1008A000E75E050EE7CFDBFF300EE66E050ECBD917
:1008B0004FE1390EDB2ADBCFE9FF3A0E01E3DB2AF9
:1008C000DBCFEAFF090EEFCFDBFFDB500EE044D9B0
:1008D000090EADD902E1151C3BE0390EDB2ADBCF56
:1008E000E9FF3A0EEDE3DB2AEBD755D831E1160EDE
:1008F000DBCFE6FF080EC3D8E552E7245DD82ED043
:10090000070EDB50030A1CE0010A14E0030A07E0AB
:100910007BD9DBCFEEFF020EDBCFEDFF1FD0F5D88A
:10092000196A17AE02D0186819682CD8BCD819C03B
:10093000EEFF14D0EAD817BE186824D8B4D80ED069
:1009400063D9DBCFEFFF0AD07BD905E1151C03E1AA
:10095000F368F46810D0FCD801E3DB2A79D94DEFB5
:1009600000F0010EDBCF14F0020EDBCF15F014C047
:10097000F3FF15C0F4FF3B0EE15C02E2E16AE552D1
:10098000E16ECBD029D9020EB3EF05F061D9080092
:10099000F550DF6E1200200EE66E080E23EF06F013
:1009A000EBEC0AF0E552E552E552F3CF14F0F4CF48
:1009B00015F00001F31C1200146E156AD950010FD6
:1009C0004DD91450EE261550ED221200185E000E7F
:1009D000195AF70E18C0DBFFF80E19C0DBFF18C05C
:1009E000E9FF19C0EAFF1200DBCFF4FFF350F45C1B
:1009F0001200DB50E76E040EE7CFDBFF12000A0E99
:100A0000DBCF14F00B0EDBCF15F00C0EDBCF16F0A6
:100A10000D0EDBCF17F01450151016101710120022
:100A2000130EEECFDBFF140EEDCFDBFF130EDBCF8B
:100A300014F0140EDBCF15F00001800E1514120017
:100A4000F70EDBCF18F0F80EDBCF19F01200050E11
:100A5000DB50E66ED950130F01D9E552E750EE6E28
:100A6000ED6A12000A0EDBCF06F00B0EDBCF07F0AB
:100A70000C0EDBCF08F00D0EDBCF09F01200DBCF40
:100A8000E6FF150EDBCFE6FF050EDB50E552E7244F
:100A9000E552E7241200DB50CED8010EF36E060EAD
:100AA000F3CFDBFF1200EE50EFCFEAFFE96E16C086
:100AB000EEFF17C0EEFF18C0EEFF1200D9CFE6FF21
:100AC000DACFE6FFE1CFD9FFE2CFDAFF1200DFCFC6
:100AD000E6FFE66ACAEC0CF0E552E552F35012006C
:100AE000E76E080EE7CFDBFF1200EECF14F0EECF7B
:100AF00015F0EFCF16F0176A1200050EDBCF14F0D9
:100B0000150EDB50D88014541200010EDBCF16F006
:100B1000020EDBCF17F0186A1200E552E5CFDAFFBC
:100B2000E7CFD9FF12000A0E14C0DBFF0B0E15C071
:100B3000DBFF1200D9500A0F2EEF06F0F36E070EFE
:100B4000F3CFDBFF1200EECF14F0EFCF15F0120061
:100B5000010EDB2A020E1200FC0EDBCFE6FFFD0EBB
:100B6000DBCFE6FF1200145E000E155AF70E14C01C
:100B7000DBFFF80E15C0DBFF14C0E9FF15C0EAFF6C
:100B80001200DA20EA6EEF2AEECFF6FF000EEF2217
:100B9000EECFF7FFEF22EECFF8FF1200040EDBCF0F
:100BA000E6FF130EDB50E552E75C9ADFDB5004DF13
:100BB000060EDB501200090EDB500A0DF350DF2445
:100BC000D00FE76E090EE7CFDBFFC6EF04F0DB5076
:100BD000F36E050EF4EF04F0F70EDBCF14F0F80E11
:100BE000DBCF15F01200DFCFE6FFD0EF04F028DFF7
:100BF000030EECDE75EF05F022EC00F0E552E55255
:100C0000E552E55200091200BDDEEE50EFCFEAFFDB
:100C1000E96E010E1200130EDB50F36E040EF4EFBA
:100C200004F0040EDB50F36E090EF4EF04F0DBCF9A
:100C3000E6FFD0EF04F0E76E050EE7CFDBFF120012
:100C40008BDFF3EF05F0DBCFE6FF86DFFCEF05F08F
:100C5000D950F90FE96EFF0EC1EF05F0E96E000EF5
:060C6000DA20EA6E12002A
:0A0C6600D9CFE6FFE1CFD9FFE65237
:100C70000001A569E66AA2EC0BF0E552DF6EFF0EFB
:100C8000DF5C06E1E66AE66AB2EC0BF0E552E5529B
:100C9000E552E552E7CFD9FF12001200D9CFE6FFA7
:100CA000E1CFD9FF060EE126FE0EDB50040DF35016
:100CB000040FE76E050EE7CFDBFFDBCFE6FFA2EC0C
:100CC0000BF0E552DF6EAA0EDF5C1FE1D9CFE9FF22
:100CD000DACFEAFFEECF14F0EECF15F0EECF16F03C
:100CE000EECF17F0EFCF18F0D9CFE9FFDACFEAFF58
:100CF000ED50ED5018C0EDFF17C0EDFF16C0EDFF31
:100D000015C0EDFF14C0EFFF48D0050EDB2ADBCF86
:100D1000E6FFA2EC0BF0E552E76E010EE7CFDBFF3A
:100D2000050EDB2ADBCFE6FFA2EC0BF0E552E76E07
:100D3000020EE7CFDBFF050EDB2ADBCFE6FFA2ECDE
:100D40000BF0E552E76E030EE7CFDBFF050EDB2A63
:100D5000FE0EDB50E76E040EE7CFDBFFD9CFE9FFD5
:100D6000DACFEAFFEECF14F0EECF15F0EECF16F0AB
:100D7000EECF17F0EFCF18F0D9CFE9FFDACFEAFFC7
:100D8000ED50ED5018C0EDFF17C0EDFF16C0EDFFA0
:100D900015C0EDFF14C0EFFF00D0060EE15C02E2CB
:100DA000E16AE552E16EE552E7CFD9FF120000ECAF
:100DB0000AF000D01200D9CFE6FFE1CFD9FF100E24
:100DC000E126020EDB6A040EF36EF3CFDBFF050EA5
:100DD000DB6A0B0EDB6A0C0EDB6A0F0EDB68E66A61
:100DE000A2EC0BF0E552E76E010EE7CFDBFF020E3F
:100DF000DBCF14F0010EDB50E76E1418E8AE02D022
:100E0000E73402D0E750145C01E3DCD0030EDB6A68
:100E1000040EE126020EDBCFE6FF40DFEECF14F03A
:100E2000EECF15F0EECF16F0EECF17F0EECF18F0B4
:100E3000196E050EE15E1950060E14C0DBFF070E99
:100E400015C0DBFF080E16C0DBFF090E17C0DBFF65
:100E50000A0E18C0DBFF080EDBCFE6FF800E146E13
:100E6000FE0EDB5014C0E7FF070B04E0E742E79EED
:100E7000E806FCE1E750E552E71403E0010EDF6EFF
:100E800001D0DF6ADF503DE0060EDBCF14F0FD0E2F
:100E9000DB50E76E1418E8AE02D0E73402D0E7501A
:100EA000145C2FE2060EDBCF14F00B0EDB50E76E66
:100EB0001418E8AE02D0143403D0E750D88014548C
:100EC00005E2010EF36E030EF3CFDBFF0B0EDB50DA
:100ED000F36E060EDB50F35C14E1070EDBCF14F06B
:100EE0000C0EDB50E76E1418E8AE02D0143403D0B9
:100EF000E750D880145405E2010EF36E030EF3CFD1
:100F0000DBFFDF5045E0FD0EDB50F36E060EDB50DD
:100F1000F35C3EE1070EDBCF14F0FC0EDB50E76E16
:100F20001418E8AE02D0143403D0E750D88014541B
:100F30002FE3060EDBCF14F00B0EDB50E76E141818
:100F4000E8AE02D0143403D0E750D880145405E240
:100F5000010EF36E030EF3CFDBFF0B0EDB50F36ECF
:100F6000060EDB50F35C14E1070EDBCF14F00C0E21
:100F7000DB50E76E1418E8AE02D0143403D0E7500B
:100F8000D880145405E2010EF36E030EF3CFDBFF9D
:100F9000030EDB5014E0D9500B0FE96EDACFEAFFF5
:100FA000060EDBCFEEFF070EDBCFEEFF080EDBCF2A
:100FB000EEFF090EDBCFEEFF0A0EDBCFEEFF020ED7
:100FC000DB2A15D70F0EDB500001A55D1EE00F0ECA
:100FD000DB50FF081AE0EBDE0E0EDB50E8B0818834
:100FE000E8A081980E0EDB5001E000D00B0EDBCFA5
:100FF000A1F00C0EDBCFA2F00D0EDBCFA3F00E0E96
:10100000DBCFA4F00F0EDBCFA5F0100EE15C03E206
:1010100000D0E16AE552E16EE552E7CFD9FF120058
:10102000D9CFE6FFE1CFD9FF050EE12666D8815082
:10103000100B02E0819401D08184050E0001805DD7
:101040003FE12D0E825D3CE13A0E855D39E1060EF1
:10105000806F300E815DE76E040EE7CFDBFF300E50
:10106000845D146E300E835D0A0DF3501424E76E18
:10107000010EE7CFDBFF300E875D146E300E865D0C
:101080000A0DF3501424E76E020EE7CFDBFF300E9B
:101090008A5D146E300E895D0A0DF3501424E76EDC
:1010A000030EE7CFDBFFDBCFE6FF020EDBCFE6FF71
:1010B000010EDBCFE6FFE8EC09F0E552E552E55220
:1010C000000199510FE0996B41EC0AF0E66E49EC92
:1010D0000AF0E66E4DEC0AF0E66EDBEC06F0E55247
:1010E000E552E552A4D7050EE15C02E2E16AE55261
:1010F000E16EE552E7CFD9FF1200D9CFE6FFE1CF8D
:10110000D9FFE652DF6AD388D39AD38C0F0EC16E13
:10111000010E806E816A040E826E926AC10E936E19
:10112000D00E946EF19EDF50DF2A146E050EE76E2E
:101130001418E8AE02D0E73402D0E750145C0DE298
:101140000A0EE66EB3EC0CF0E55281940A0EE66EE0
:10115000B3EC0CF0E5528184E6D7960EE66E97EC80
:101160000CF0E5520B0EE66EE66A7BEC0CF0E552F5
:10117000E5520C0EE66EE66A7C0EE66E2DEC0BF088
:10118000E552E552E5520001806B8C6BF28EF28CD9
:10119000FAEC09F0F292F2949E908198808633ECFA
:1011A00006F0E552E552E7CFD9FF1200D9CFE6FFAE
:1011B000E1CFD9FFFE0EDB503E0A1AE0020A11E031
:1011C000750A09E00A0A01E019D00001805102E124
:1011D000010E806F3AD00001800502E1020E806F9F
:1011E00034D0030E0001805D02E1040E806F2DD02B
:1011F000040E0001805D02E1050E806F0001805148
:10120000050A1DE0030A1BE0020A06E0050A01E0E8
:101210001CD0030E806F19D08C518C2BE96EEA6ABA
:10122000E9BEEA68810EE926000EEA22FE0EDBCF57
:10123000EFFF0B0E8C5D02E1060E806F06D0FE0EF6
:10124000DB50440801E1806B00D0E552E7CFD9FFC5
:101250001200DACFE4FFE2CFDAFFE9CFE4FFEACF12
:10126000E4FFF6CFE4FFF7CFE4FFF8CFE4FFF5CFDC
:10127000E4FFF3CFE4FFF4CFE4FFFACFE4FFFBCFCA
:10128000E4FF00EE00F0140EE80403E3EECFE4FF09
:10129000FBD700EE14F0070EE80403E3EECFE4FF03
:1012A000FBD7E652F2A428D00B0EE66EE66A7BEC82
:1012B0000CF0E552E55200019A519B1107E1120E24
:1012C000E66EE66A7BEC0CF0E552E55200019A2BE3
:1012D000000E9B23080E9A1901E19B510CE1C1EC11
:1012E00009F000019A6B9B6B45EC0AF0000903E1E1
:1012F0000001010E996FF2949EAA06D05CEC0CF0EE
:10130000E66E54DFE5529E9A00D0E55200EE1AF0E8
:10131000070EE80403E3E5CFEDFFFBD700EE13F083
:10132000140EE80403E3E5CFEDFFFBD7E5CFFBFFA9
:10133000E5CFFAFFE5CFF4FFE5CFF3FFE5CFF5FF0B
:10134000E5CFF8FFE5CFF7FFE5CFF6FFE5CFEAFF02
:10135000E5CFE9FFE5CFDAFF1100D8CFE4FFE0CF1A
:10136000E4FFE46EDACFE4FFE2CFDAFFE65200D02A
:10137000E552E5CFDAFFE550E5CFE0FFE5CFD8FF56
:0213800010005B
:0E1382000001A82B3C0EE76EA819E8AE02D0C1
:10139000E73402D0E750A85D02E3A72BA86B3C0E10
:1013A000E76EA719E8AE02D0E73402D0E750A75D98
:1013B00002E3A62BA76B180EE76EA619E8AE02D0C3
:1013C000E73402D0E750A65D01E3A66B00D012001F
:1013D000D9CFE6FFE1CFD9FFFE0EDBCFA6F0FD0EA1
:1013E000DBCFA7F0FC0EDBCFA8F000D0E552E7CFB3
:1013F000D9FF12000001A86BA76BA66B00D01200EA
:10140000A6C014F0156A14BE156814C0E6FF15C016
:10141000E6FF1B0EE66E1A0EE66E000EE66E9FEC01
:101420000AF0166E050EE15E1650A7C014F0156A9C
:1014300014BE156814C0E6FF15C0E6FF150EE66E73
:101440001A0EE66E000EE66E9FEC0AF0166E050EA2
:10145000E15E1650A8C014F0156A14BE156814C0D9
:10146000E6FF15C0E6FF100EE66E1A0EE66E000EE1
:10147000E66E9FEC0AF0166E050EE15E165000D087
:1014800012000001A75100D012000001A85100D0A5
:1014900012000001A65100D01200010E00D012006F
:1014A0002A0EF66E000EF76E000EF86E00010900AF
:1014B000F550926F0900F550936F03E1926701D0E8
:1014C0003DD00900F5508D6F0900F5508E6F090071
:1014D000F5508F6F09000900F550E96E0900F550CD
:1014E000EA6E090009000900F550906F0900F550F7
:1014F000916F09000900F6CF94F0F7CF95F0F8CF7F
:1015000096F08DC0F6FF8EC0F7FF8FC0F8FF000188
:10151000905302E1915307E00900F550EE6E9007F9
:10152000F8E29107F9D794C0F6FF95C0F7FF96C08F
:0E153000F8FF00019207000E935BBFD7120078
:02153E00D9CF03
:10154000E6FFDACFE6FFE1CFD9FFE2CFDAFFE652DE
:10155000E652E652E652D950FB0F146EFF0EDA2027
:10156000156E14C0DEFFDD6EDECFE6FFDDCFE6FFD9
:10157000FB0EDBCFE6FFFC0EDBCFE6FFFD0EDBCF85
:10158000E6FFA9C0E6FFAAC0E6FF38EC00F0146E43
:10159000070EE15C02E2E16AE552E16E1450020ED0
:1015A000F3CFDBFF030EF4CFDBFF020EDBCF14F033
:1015B000030EDBCF15F014C0F3FF15C0F4FF040ECB
:1015C000E15C02E2E16AE552E16EE552E5CFDAFF65
:0615D000E7CFD9FF120075
:0A15D600D9CFE6FFDACFE6FFE1CF40
:1015E000D9FFE2CFDAFFFB0EDBCF14F0FC0EDBCF2E
:1015F00015F00001800E15141AE1FB0EDBCFE9FF98
:10160000FC0EDBCFEAFFEECFF3FFEDCFF4FFEE2AC7
:10161000000EEF22F3CFE9FFF4CFEAFFFD0EDBCFA0
:10162000EFFFEF50156AF36E15C0F4FF10D0FB0EFC
:10163000DB50FE0806E1FD0EDBCFE6FFFAEC0CF016
:1016400005D0FD0EDBCFE6FF19EC0DF0E552E552BB
:0A165000E5CFDAFFE7CFD9FF120063
:06165A00D9CFE6FFDACF54
:10166000E6FFE1CFD9FFE2CFDAFFAC6AAB6AFD0E4D
:10167000DBB0AC88DBA202D0AC8CAB8CDBB4AC8E24
:10168000DBA602D0AB8801D0AB8ADBA802D0AC8449
:1016900001D0AC949E98DBAC02D09D8A01D09D9A7B
:1016A0009E9ADBAE02D09D8801D09D98FB0EDB5048
:1016B000AF6EAC8AAB8E949C948EAC50100B04E051
:1016C000AC50800B01E1948CE552E5CFDAFFE7CF17
:0416D000D9FF12002C
:0C16D40006500B02F3CF02F0F4CF03F03D
:1016E0000C02F3500326000EF420046E06500D0287
:1016F000F3500426000EF420056E06500E02F3503F
:10170000052607500B02F3500326F4500422000E66
:10171000052207500C02F3500426F450052207500E
:101720000D02F350052608500B02F3500426F45026
:10173000052208500C02F350052609500B02F35005
:041740000526120068
:0C174400D9CFE6FFE1CFD9FFFE0EDB504D
:10175000A96EA69EA69CA680A85000D0E552E7CF11
:10176000D9FF1200D9CFE6FFE1CFD9FFE652DF6AF9
:10177000A69CA6B2FED7FE0EDB50A96EFD0EDB5076
:10178000A86EA69EA684F2AE03D0F29E010EDF6E76
:10179000550EA76EAA0EA76EA682A694A6B2FED775
:1017A000DF5001E0F28EE552E552E7CFD9FF12009B
:1017B000FE0EE3CFE9FFFF0EE3CFEAFFF36AF46A20
:1017C000EE5203E0F34AF42AFBD71200FF0EE3CFF8
:1017D000F8FFE552FF0EE3CFF7FFE552FF0EE3CF30
:1017E000F6FFE552E66AE66AE66A0900F55209E0A4
:1017F000FD0EE32A05E1FE0EE32A02E1FF0EE32AD5
:10180000F4D7FD0EE3CF07F0FE0EE3CF08F0FF0E96
:06181000E3CF09F0120015
:0A18160009C013F008C012F00850DA
:101820000D02F4CF07F0F3CF06F009500E02F4CF0B
:1018300009F0F3CF08F00D02F3500726F450082208
:10184000E86A092212500E02F3500726F4500822CB
:10185000E86A09220EAE31EF0CF01250085E135008
:10186000095A13AE000C0D50085E0E50095A000CB8
:10187000056A046A036A026A200EE76ED89006368B
:1018800007360836093602360336043605360B505D
:10189000025C0C5003580D5004580E50055809E3D3
:1018A0000B50025E0C50035A0D50045A0E50055A4C
:0818B000062AE72EE4D712001E
:0818B800D9CFE6FFDACFE6FF0D
:1018C000E1CFD9FFE2CFDAFFE652F20E0001AB170B
:1018D000ABAC03D0AB91ABB0AB81ABB4AB85ABB22F
:1018E000AB87AE50DF6EDF50E552E552E5CFDAFF51
:0618F000E7CFD9FF120052
:0A18F600D9CFE6FFDACFE6FFE1CF1D
:10190000D9FFE2CFDAFFE652E652FC0EDBCFDEFF74
:10191000DBCFDDFF010EDB50D76EDF50D66EE55218
:0E192000E552E552E5CFDAFFE7CFD9FF12001E
:02192E00D9CF0F
:10193000E6FFDACFE6FFE1CFD9FFE2CFDAFFFD0E17
:10194000DB507F0BD56ED76AD66AF294FD0EDBAE04
:1019500002D0F28A01D0F29AD58EE552E5CFDAFFB5
:06196000E7CFD9FF1200E1
:0A196600FF0EE3501C6EEF0E01D0DF
:10197000F30EE76EE72EBAEF0CF00C0E1B6EE76A63
:10198000E72EC0EF0CF01B2EBFEF0CF01C2EB8EFB3
:041990000CF0120045
:0C199400F36AF46AFF0EE124E96EFF0E16
:1019A000E220EA6EED6607D02F0EEF6404D03A0E07
:0819B000EF6001D0F32A1200E0
:0819B800000EF36E00EE00F0DA
:1019C000020E01D81200EA6002D0EE6AFCD7F35092
:0819D000E9601200EE6AFCD789
:0819D80011EE00F021EE00F019
:1019E000F86A019C50EC0AF01AEC0DF010EC08F0CB
:0419F000FBD712000F
:0C19F400FF0EE350ACBA04D0AF6AAB8E1B
:101A0000AC8A949CACA2FED7AD6EF36EF46A120061
:101A10002530326400253032642E00253032643A9D
:011A200000C5
:0F1A2100303132333435363738396162636465BA
:021A300066004E
:021A32001200A0
:021A340012009E
:0A1A360000000000000000000000A6
:021A4000FEFFA7
:00000001FF
